:020000040800F2
:1000000068D00020DD01000881810008E548000873
:1000100021800008751700080DA1000800000000ED
:100020000000000000000000000000004501000882
:10003000872100080000000089010008659A000877
:10004000F7010008F7010008F7010008F7010008B0
:10005000F7010008F7010008F7010008F7010008A0
:10006000F7010008F7010008F7010008F701000890
:10007000F7010008F7010008F7010008F701000880
:100080004521000851210008F7010008F701000888
:10009000F7010008F7010008F7010008F701000860
:1000A000F7010008F7010008F7010008F701000850
:1000B000559B0008F7010008F7010008F701000848
:1000C000F7010008F7010008F7010008298B000874
:1000D000F7010008E9A00008F5A00008F7010008F2
:1000E000F7010008F7010008F7010008F701000810
:1000F000F7010008F7010008F7010008F701000800
:10010000F7010008F7010008F7010008F7010008EF
:10011000F7010008F7010008F7010008F7010008DF
:10012000F7010008F7010008F7010008F7010008CF
:10013000DFF80CD000F098FF00480047E5B2000857
:1001400068D00020224B19680868B0E8F00F80F3EF
:100150000988BFF36F8F4FF0000080F311884EF0D5
:100160000D0E70470000000006480068006880F32C
:10017000088862B661B6BFF34F8FBFF36F8F00DFA1
:1001800000BF00BF08ED00E0EFF30980BFF36F8F01
:100190000F4B1A6820E9F00F106008B54FF05000BF
:1001A00080F31188BFF34F8FBFF36F8F0CF004FE05
:1001B0004FF0000080F31188BDE808401968086816
:1001C000B0E8F00F80F30988BFF36F8F704700BF6E
:1001D00078130020EFF30580704700000648804741
:1001E00006480047FEE7FEE7FEE7FEE7FEE7FEE71C
:1001F000FEE7FEE7FEE7FEE70D9B00083101000881
:10020000202A04DB203A21FA02F00021704721FA6B
:1002100002F3D040C2F120029140084319467047D2
:10022000A0F14101192900D82030704700487047DB
:1002300034DB000840EA01039B0703D009E008C94A
:10024000121F08C0042AFAD203E011F8013B00F89B
:10025000013B521EF9D27047D2B201E000F8012BE7
:10026000491EFBD270470022F6E710B513460A4636
:1002700004461946FFF7F0FF204610BD421E12F853
:10028000013F002BFBD111F8013B02F8013B002B91
:10029000F9D1704730B505462A460B4612F8010BD6
:1002A00013F8014B08B1A042F8D01CB1002802D0CD
:1002B0006D1CF1E7284630BD10B5044604E00B780C
:1002C00000F8013B03B1491C521EF8D2204610BD74
:1002D000421C10F8011B0029FBD1801A704710B591
:1002E000002200E0521C835C8C5CA34201D1002BF5
:1002F000F8D1D8B2E1B2401A10BD034611F8012B73
:1003000000F8012B002AF9D11846704730B5054690
:100310000020034600E05B1C934205D2EC5CC85C05
:10032000201A01D1002CF6D130BD00000FB400B569
:100330008DB010A909900B9000914FF0FF300A90FA
:1003400000200C9005480690054807906A4609A8C9
:100350000F9900F079FB0DB05DF814FB650A0008F9
:10036000830A00082DE9FF4F087883B09946FF28DB
:1003700005D0491C2D2804D00024002008E00020CE
:100380000BE00124F9E700EB800003EB4000491C7F
:100390000B78FF2BF7D104B140420023029314786D
:1003A00019461D462D2C01D02B2C04D1521C2D2C6E
:1003B00013D000240294AA461478FF2C0FD00A25EB
:1003C000A3FB057801FB05814FF0000C03FB0C112A
:1003D000521CE3194AEB0101EEE70124EAE78144EC
:1003E00053EA010002D019F5C87F06DA039800210C
:1003F000C0E9001107B0BDE8F08F0025AE4E2F46D2
:10040000DFF8B882184600F0EFFDCDE90001B9F140
:10041000000002DAC9F1000400E004460023A74A04
:100420001AEB030B42EB045A12E0E00707D02A460E
:1004300033463846414600F0F6FC074688462A46D1
:1004400033461046194600F0EEFC05460E46641091
:10045000002CEAD1DDE90001B9F1000F5A465346FC
:1004600006DA00F052FD3A46434600F04EFD05E044
:1004700000F0D9FC3A46434600F0D5FC029A0AB196
:1004800081F00041039AC2E90001B3E72DE9FF4F73
:100490001F468DB0D7E901464FF0FF382E20454664
:1004A0004FF000090B90B9696D1C0E988847396AA6
:1004B000824688470028F6D1BAF1FF3F0AD024F4DB
:1004C000D064002E11DDBAF12B0F08D0BAF12D0F38
:1004D0000BD102E0404611B08DE744F48064B96965
:1004E0006D1C0E9888478246761E6946600501D5C8
:1004F0002D2000E02B208DF8000001F1010B0DF103
:10050000200809E0B9696D1C0E98884782460F984B
:1005100044F40074761E0560002E02DDBAF1300F3F
:10052000F0D00B998A453ED144F0800406E00F9943
:10053000681CA9F1010944F400740860B9696D1CD4
:10054000761E0E98884782463028F0D02BE00B9913
:100550008A4505D1200603D444F08004761E18E0B5
:10056000504609F0B9FF08B30DF11301761E44F4AB
:1005700000748B4508D2AAF130000BF8010B20065D
:1005800007D5A9F1010003E0200602D409F101001A
:100590008146A00502D50F99681C0860B9696D1CD9
:1005A0000E9888478246002ED1DC53E0002E51DDA4
:1005B000BAF1650F02D0BAF1450F4BD1A00549D56C
:1005C000B9696D1C24F44074761E0E9888478246E3
:1005D000002E0CDD2B2804D0BAF12D0F07D144F4E6
:1005E0008074B9696D1C0E9888478246761EE005B6
:1005F00001D52D2100E02B2108F8011BCDF82C801E
:1006000021E00DF12901761E44F4007488450CD2D6
:10061000AAF1300010F0FF0088F8000002D10B9919
:10062000884509D908F1010806E0E00501D524480C
:1006300001E042F20F708146B9696D1C0E9888473F
:1006400082460F980560002E04DD504609F044FFF5
:100650000028D6D1F9690E988847FF208BF8000052
:1006600088F800000020069007904B466A4608A9CB
:1006700006A8FFF777FEA00502D46FF001002AE775
:1006800014F0240F0AD0E00714D1DDE9061238680F
:10069000031D3B600068C0E900120BE0DDE90601C4
:1006A00000F0C6FC0146E00704D13868021D3A603C
:1006B0000068016028460EE7000014400000F03F8B
:1006C000F1D8FFFF70B5064609F030FE0468054614
:1006D0000A220021304600F033FA2C6070BDF0B4DD
:1006E00080EA0102D40F4200B2EB410F02D202466F
:1006F000084611464A0042D0C30DDDB2C1F3C752CD
:10070000AD1A202D35DAC1F3160141F4000204B10F
:100710005242C5F1200602FA06F12A411044B3EB19
:10072000D05F23D0C4B1012DA0EBC35009DCF0BCD5
:100730004FF0004202EAC352DBB200F5000000F0C5
:1007400040BA400000F1807000EBC350A0F180700F
:1007500040EAD170490009E0490841EAC071A0EBC4
:10076000C35000F50000400800EBC350F0BC00F09F
:100770001FBA6142012202EB4101001BF6E7F0BC07
:10078000704781F00041AAE780F00040A7E780EAC7
:10079000010210B502F00043400022D04A001FD0F1
:1007A000010E01EB1261C0F35600C2F3560240F491
:1007B000000042F40002A0FB022000047F39140470
:1007C00000D0401C50EA124001D44000491EC2B281
:1007D0000C0604EBD010401C4008802A02D003E035
:1007E000002010BD20F00100002900DA002018438D
:1007F00010BD30B480EA010202F0004530F0004242
:1008000021F0004013D090B1C30DD40DC2F31601F6
:10081000C0F31600E41A41F4000140F400027D34F4
:10082000914201D3641C00E04900002C02DA30BC84
:10083000002070474FF400000023914201D3891A31
:10084000034340084FEA4101F7D151B1914202D12F
:100850004FF0004105E002D24FF0010101E06FF0DE
:10086000010103EBC450284430BC00F0A1B9C10F12
:1008700080EAE0700844CA079623002100F0A1B97D
:1008800096230022114600F09CB900F0004220F0AF
:100890000040C10DC0F3160040F400007F2901DACA
:1008A00000207047962903DCC1F19601C84001E0A1
:1008B00096398840002AF4D04042704720F000402A
:1008C000C10DC0F3160040F400007F2901DA0020BA
:1008D0007047962903DCC1F19601C84070479639EC
:1008E0008840704770B5C1F30A5201F000450024FA
:1008F000C1F3130140F2FF3341F480119A4201DA4F
:10090000002070BD40F233439A42A2F2334203DC2E
:100910005242FFF775FC00E090402C43F1D040427A
:1009200070BD000030B5041E71F1000404DB4FF00F
:100930000044404264EB0101141E73F1000405DB26
:100940001C464FF00043524263EB04038B4208BF46
:10095000824230BD30B5041E71F1000404DB4FF05B
:100960000044404264EB0101141E73F1000405DBF6
:100970001C464FF00043524263EB0403994208BF08
:10098000904230BD002801DBC0F10040002901DBAE
:10099000C1F1004181427047002801DBC0F10040F5
:1009A000002901DBC1F100418842704730B50B4698
:1009B000014600202022012409E021FA02F59D428F
:1009C00005D303FA02F5491B04FA02F52844151E63
:1009D000A2F10102F1DC30BD2DE9F05F05460020F7
:1009E00092469B4688460646814640241BE02846A0
:1009F000414647462246FFF703FC53465A46C01A73
:100A0000914110D311461846224600F03FFB2D1AA3
:100A100067EB01084F4622460120002100F036FB1B
:100A200017EB00094E41201EA4F10104DFDC48460B
:100A300031462A464346BDE8F09F00000268114453
:100A40001378016018467047D16004495161044928
:100A5000116200211161114600F048BB3D0A0008F7
:100A6000D9100008426842B1016811F8013B23B176
:100A7000521EC0E90012184670470121C160881E4D
:100A8000704742685AB1C368016843B983688B42B2
:100A900005D0491E521CC0E90012002070474FF0DB
:100AA000FF3070470FB4002300B589B00CA9009146
:100AB0000B996FF00042CB601E4B06931E4B0793C1
:100AC0000423CDE901321D4A089202466B460020FC
:100AD000FFF7DCFC09B05DF814FB70B586B0064684
:100AE0004FF0FF300091CDE90101002015460C4682
:100AF00004903246694604A8FFF7D4FF02460498E2
:100B0000211825B108B1084600E020462860049865
:100B100000280DD0002A02DD0098884208D0081B6A
:100B20000094CDE901043246694604A8FFF7BAFFF4
:100B300006B070BD650A0008830A0008D9100008D5
:100B40002DE9F04791460F4680460446002614F8EA
:100B5000015B2DB100F0BCFA0068405DC007F6D122
:100B60002B2D02D02D2D18D0641E4A463946204622
:100B700000F052FC27B13968A14201D1C7F80080CA
:100B800071054FF002040BD54042002803DD09F047
:100B9000CDFB0460A007BDE8F08746F48066E4E77B
:100BA0000028F8DA09F0C2FB04606FF00040F2E7B9
:100BB0000029A8BF7047401C490008BF20F0010071
:100BC000704710B4B0FA80FC00FA0CF050EA01044F
:100BD00004BF10BC704749B1CCF1200421FA04F4E1
:100BE00011FA0CF118BF012121430843A3EB0C01BA
:100BF000CB1D4FEA00614FEA102042BF002010BC1D
:100C0000704700EBC35010440029A4BF10BC7047CC
:100C1000401C490008BF20F0010010BC704710B50F
:100C2000141E73F1000408DA401C41F1000192180F
:100C30005B411A4301D120F0010010BD2DE9F04DB8
:100C400092469B4611B1B1FA81F202E0B0FA80F20D
:100C50002032904600F01AFA04460F4640EA0A0095
:100C600041EA0B0153465A46084313D0114653EA52
:100C7000010019D0C8F140025046FFF7C1FA0546FD
:100C80000E4650465946424600F000FA084305D049
:100C9000012004E020463946BDE8F08D00200543E0
:100CA00046EAE0762C4337430A986305E40AA0EB52
:100CB00008000022FD0A44EA47540A3002D5002009
:100CC0000146E9E7010510196941DDE90845001908
:100CD0006941BDE8F04DA2E72DE9FE4F804681EA6B
:100CE0000300C00F0C46009021F0004123F00045A6
:100CF000B8EB0200A94105D24046214690461C4669
:100D00000B46024623F00040104347D0270DC7F39F
:100D10000A00C3F30A510290401A019040286BDA8E
:100D2000C3F3130040F4801B0098924620B10023C7
:100D3000D2EB030A63EB0B0B01985946C0F140025A
:100D4000504600F0A3F906460D4650465946019A12
:100D500000F0ABF910EB08006141002487EA115262
:100D600084EAE7731A4340D0009A62B3019A012AD9
:100D70004FEA075215DC001B61EB02014FF0004205
:100D800002EA0752CDE90042001C41F580113246CB
:100D90002B46FFF753FF03B0BDE8F08F40462146D6
:100DA000F9E7001B61EB0201001C41F580130018FC
:100DB0005B412018A2F5001747EB030140EAD5700C
:100DC000B6196D4111E06D084FEA360645EAC07567
:100DD0004FEA0752001B61EB0201001C41F5801134
:100DE00049084FEA30000019514132462B4603B002
:100DF000BDE8F04FFFF713BF009801224000002329
:100E0000D0EB020263EBE073009821464FEAE074F6
:100E1000B8EB000061EB0401E9E783F000435BE716
:100E200081F0004158E72DE9FE4F81EA030404F008
:100E3000004421F0004100944FF0000B23F00043E8
:100E400050EA01045ED052EA03045BD0C3F30A54B3
:100E5000C1F30A552C44A4F2F3340194A0FB0254CC
:100E6000C1F3130141F48011C3F3130343F480135E
:100E700001FB024400FB034E840A970A44EA8154B2
:100E800047EA8357A4FB076802958D0A05FB07858F
:100E90004FEA932C04FB0C542705029D4FEA065899
:100EA00047EA1637B5EB08056EEB070C870E920E76
:100EB00047EA811742EA8312A7FB0201B6EB0B0156
:100EC00064EB00042B0D43EA0C335E1844EB1C501A
:100ED000DA465146E7FB0201C5F313044FEA0B3330
:100EE00043EA14534FEA0432019C43EA0603A4F197
:100EF0000C040294009CCDE900B4FFF79FFE03B000
:100F0000BDE8F08F00200146F9E72DE9F04D81EAB8
:100F1000030404F0004B21F0004514464FF0000A92
:100F200023F0004150EA050220D054EA01021DD00E
:100F3000C5F30A570246C5F31303C1F31300C1F307
:100F40000A5640F4801543F48013A7EB0608101BE3
:100F5000D64608F2FD3873EB050002D308F101080C
:100F600001E092185B41B8F1000F03DA002001465E
:100F7000BDE8F08D00204FF48011064684460EE057
:100F8000171B73EB050705D3121B63EB0503064321
:100F90004CEA010C49084FEA300092185B4150EAD4
:100FA0000107EDD152EA030012D082EA040083EA7D
:100FB0000501084305D0101BAB4106D201220023D6
:100FC00006E000224FF0004302E06FF001025310F0
:100FD0001AEB06004CEB085110EB0A0041EB0B0139
:100FE000BDE8F04DFFF71BBE0EB540F23342029252
:100FF0000022CDE900221346FFF720FE03B000BD1A
:10100000C1F30A52C1F3130140F2FF3341F48011DE
:101010009A4202DA00200146704740F233439A4276
:10102000A2F2334202DC5242FFF7EAB800F02EB8D7
:1010300001F0004330B421F0004150EA010206D033
:101040000A0DA2F56072C1F31301002A02DC30BC64
:1010500000207047440F44EAC104C100E01830BCCE
:1010600000EBC250FFF7A4BD064C074D06E0E06858
:1010700040F0010394E8070098471034AC42F6D3DF
:10108000FFF75AF83CDE00085CDE0008202A04DB8B
:10109000203A00FA02F1002070479140C2F120038B
:1010A00020FA03F3194390407047202A06DBCB1740
:1010B000203A41FA02F043EAE07306E041FA02F313
:1010C000D040C2F120029140084319467047000009
:1010D00000487047F0DB000810B50446FFF7F8FF42
:1010E0000068005D00F0010010BD00002DE9F34F25
:1010F0008BB04FF0000801F10C000C464FF0010BD3
:1011000046460DF1080A0190626901210198904755
:10111000051E2DD0252D2CD0216A8847C0B16269CB
:10112000012101989047216A88470028F7D1411E84
:1011300062690198904700E0761CA1690B98884786
:10114000216A88470028F7D1E1690B988847DBE7D7
:10115000A1690B9888470746A84201D1761CD3E7BE
:10116000E1690B9888477F1C02D1B8F1000F6FD05E
:1011700046E1002762693D463946019890472A2892
:1011800004D162690121019890470125DFF884921A
:101190006269012101989047A0F130010A290AD221
:1011A0004F45E5DC07EB870100EB4107303FDFD41B
:1011B00045F01005ECE7E90601D46FF000476C2814
:1011C0000AD04C2814D0682815D06A280DD074286D
:1011D0001CD07A281AD01DE062690121019890473D
:1011E0006C2802D045F0040514E045F002050DE03E
:1011F00045F020050AE062690121019890476828BE
:1012000002D045F0080505E045F40065626901215A
:1012100001989047C4E9015765283DD019DC58284A
:101220007AD00CDC452837D004DC252826D041288C
:1012300031D131E046282FD047282CD12CE05B2833
:1012400077D0612828D063287CD0642823D15AE045
:10125000D0E06F2848D008DC66281DD067281BD056
:10126000692821D06E2816D127E0702845D0732830
:1012700068D0752847D078280DD14DE0A1690B982A
:101280008847054625283FF469AFE1690B988847F0
:101290006D1C3FF46AAFB3E023466A466FF001006D
:1012A0000B99FFF7F3F89EE045F040006060A80757
:1012B00023464FF0000236D43EE0E8077FF447AF04
:1012C0002068011D21600068290501D506701BE713
:1012D000290701D5068017E7A90703D5F117C0E94B
:1012E000006111E706600FE745F040006060A80765
:1012F00023464FF0080216D41EE040F60E0125EA00
:101300000100606016E045F040006060A8072346D9
:101310004FF00A0207D40FE045F040006060A807D4
:1013200008D5234610226FF001000B99AFF300801F
:1013300059E007E0234610226FF001000B99AFF34C
:10134000008050E04FF000094F464B46632802D022
:101350005B2806D040E0E80601D40120A060012708
:101360003AE062690121019890475E2805D14FF06B
:1013700001096269494601989047216939B90021FC
:101380000A46534643F82120491C0829FADBB0B32A
:10139000216969B9C11700EBD16253110AEB8301CE
:1013A00022F01F02821A01200B68904003430B6059
:1013B00062690121019890475D28E8D1B9F1000FD9
:1013C00009D00020514651F82020D24341F8202076
:1013D000401C0828F7DB02AB224600976FF00100A3
:1013E0000B99AFF3008000280CDA401C08D1BBF148
:1013F000000F05D04FF0FF300DB0BDE8F08FFFE7D4
:101400004046F9E7E90701D108F1010806444FF029
:10141000000B79E6CCCCCC0C2DE9F05F824600784D
:10142000002715468B460AF10104B946302801D041
:101430009DB113E014F8010B0127782803D0582838
:1014400001D045B10AE00DB1102D07D100271025BC
:1014500014F8010B02E0082500E00A250026B0463A
:101460000EE005FB080005FB06F1012701EB104625
:101470001FFA80F8B6F5803F00D3B94614F8010B87
:10148000294600F018F80028EBDABBF1000F05D070
:101490000FB1641E00E05446CBF80040B9F1000FD4
:1014A00006D008F043FF02210160C81EBDE8F09F8E
:1014B00048EA0640FAE73A2800D2303820F0200205
:1014C000412A01D3A2F13700884201D34FF0FF3007
:1014D000704770B58C1810F8015B15F0070301D147
:1014E00010F8013B2A1106D110F8012B03E010F887
:1014F000016B01F8016B5B1EF9D12B0705D40023AA
:10150000521E0DD401F8013BFAE710F8013BCB1A4B
:10151000921C03E013F8015B01F8015B521EF9D540
:10152000A142D8D3002070BD2DE9F041244F0D46D3
:10153000064601221146384601F061FE01220221D1
:10154000384601F05CFE00F087FD1E480024047060
:1015500008F0DDFD1B490322491CB82008F030FECD
:1015600003200AF03DF808221749B82007F010FAC6
:1015700001221146384601F042FE0122022138467E
:1015800001F03DFE0821104800F031FA90B10E4CF8
:101590006079217900EB0120FFF772F93060E07883
:1015A000A17800EB01200A21B0FBF1F0FFF768F908
:1015B000286001E034602C604FF07E50BDE8F0817F
:1015C000000C014018130020B062002070B51446D2
:1015D0000D46064608E03046711C8EB200F007F852
:1015E000641E05F8010BA4B2002CF4D170BD10B537
:1015F0000446002003F048FB200AA02101EB400034
:10160000C1B2002003F0DAFA002003F0C1FBE1B21E
:10161000002003F0D3FA002003F0BAFB002003F00F
:1016200033FBA121002003F0C9FA002003F0B0FB36
:101630000021084603F04AFA0446002003F066FB46
:10164000204610BD70B516460C46054606E02178CA
:10165000284600F007F86D1CADB2641C761EB6B2C9
:10166000F5D270BD70B504460D46002003F00CFBAA
:10167000200AA02101EB4000C1B2002003F09EFA35
:10168000002003F085FBE1B2002003F097FA002070
:1016900003F07EFB2946002003F090FA002003F0BF
:1016A00077FB002003F032FBBDE870400A2009F010
:1016B00097BF00002DE9F0411F4D064600241BA1F5
:1016C0002868FEF7E7FD012710B1012486F888702D
:1016D0001AA12868FEF7DEFD10B1022486F8897091
:1016E0001AA12868FEF7D6FD10B1032486F88A7087
:1016F00019A12868FEF7CEFD10B1042486F88B707E
:10170000D6F8900058B917A12868FEF7C3FD30B18C
:1017100016A008F0E7FD05240820707100E00CB168
:1017200000F0A4FC2046BDE8F08100002B434655A4
:101730004E3A203100000000201300202B43504976
:101740004E3A2052454144590000000043616C6C00
:101750002052656164790000534D532052656164E5
:1017600079000000434C4F5345440000636C6F7395
:10177000650D0A00FEE7000008B5474C4FF0FF3545
:1017800029462B466A4600200BF04CFF0128F7D172
:101790000098C0B210285BD024DC012832D0022887
:1017A0003CD0042848D00828EAD13CA008F09AFD93
:1017B0004FF4C8413CA008F095FD0BF06FFB0146CB
:1017C0003FA008F08FFD00F0D1F820680028D7D0A6
:1017D000002303225FF008010BF04CFE0028CFD15C
:1017E0003BA043E0202844D040284BD08028C7D1DC
:1017F0003EA008F077FD00F0CDF800230322802101
:101800002068E9E73DA008F06DFD00F0AFF8206822
:101810000028B5D00023032201210AE03AA008F0F5
:1018200061FD00F0A3F820680028A9D0002303225E
:1018300002210BF01FFEA3E736A008F053FD00F0D5
:1018400095F8206800289BD0002303220421F0E7AC
:1018500033A008F047FD00F09DF80023032210217B
:1018600020680BF007FE00288AD131A008F03AFD6D
:1018700086E736A008F036FD00F08CF8002303223E
:101880002021BDE735A008F02DFD00F083F80023EE
:1018900003224021B4E7000028000020C8A1CFFBAC
:1018A000B0B4BCFC0D0A0000544F54414C5F484595
:1018B00041505F53495A45203D2025640D0A0000E0
:1018C000CAA3CFC2486561703D2025640D0A00009F
:1018D000322073656E64206B65792076616C756566
:1018E0002066616C73650D0A00000000C8A1CFFB83
:1018F000B0B4BCFCB3A4B0B40D0A0000B9A6C4DCFB
:10190000B0B4BCFC0D0A0000CFF2C9CFB0B4BCFC2F
:101910000D0A0000CFF2CFC2B0B4BCFC0D0A00002B
:10192000D1A1D4F1B0B4BCFCB3A4B0B40D0A000092
:10193000312073656E64206B65792076616C756506
:101940002066616C73650D0A00000000CFF2C9CFFC
:10195000B0B4BCFCB3A4B0B40D0A0000CFF2CFC247
:10196000B0B4BCFCB3A4B0B40D0A000010B5084C70
:1019700001220821204601F042FC962009F030FEA9
:1019800020460022BDE81040082101F038BC0000CC
:10199000000C014010B5084C01220821204601F03E
:1019A0002EFC4FF4967009F01BFE20460022BDE885
:1019B0001040082101F023BC000C014030B5034663
:1019C0004FF6FF704AF201040DE000BF13F8012B3F
:1019D00050400022C5074FEA500000D06040521C22
:1019E000D2B2082AF6D3491EC9B2EFD230BD30B503
:1019F00005460C46881EC1B22846FFF7DFFF2919AD
:101A000011F8012CB2EB102F06D111F8021CC0B254
:101A1000814201D1FF2030BD002030BD10B53222FF
:101A200017499020FFF7D2FD154800F091F9144AAC
:101A30000319501C00F01EF9C418901C00F04AFA5B
:101A400004440F480C3000F01DF904440C481630D3
:101A500000F0A6F804440A48203000F013F80444CB
:101A60000748283000F0CAF9204410F0FF0F04D0D6
:101A7000322203499020FFF7E5FD002010BD000051
:101A8000BF6200202DE9FE430446006800906068B4
:101A900001902089ADF808000621684600F086FA1A
:101AA000401C02D00020BDE8FE831E4F1E4E4FF0AA
:101AB000FF3800251DA008F015FC0122224923480B
:101AC00002F01AFE00234246194638680BF078FAF5
:101AD000012821D106211E4800F068FA81461C48E1
:101AE000FEF7F6FB0C2812D8B9F1FF3F0FD0062203
:101AF00017492046FEF7E0FB214616A008F0F2FB4E
:101B000040211348FEF7AFFB35700120CBE74021A1
:101B10000F48FEF7A8FB357001220B490B4802F075
:101B2000EBFDC7E73C0000204C000020CAE4C8EBF6
:101B3000C9FAB2FAC8D5C6DA5C725C6EBDE1CEB243
:101B4000A3BA0D0A000000004D0000206C580020D0
:101B50007459002025730D0A000000001CB50020F8
:101B60008DF800008DF80400012269468A20FFF7F5
:101B70002DFD012201A98B20FFF728FD9DF804000F
:101B80009DF8001040EA0120B0F5167F03D900202F
:101B900003F056F91CBD014908801CBDAC120020A1
:101BA0002DE9FE430446006800906068019020899A
:101BB000ADF808000921684600F0F8F9401C02D091
:101BC0000020BDE8FE831E4F1E4E4FF0FF3800255B
:101BD0001DA008F087FB01222149224802F08CFD5C
:101BE00000234246194638680BF0EAF9012821D152
:101BF00009211D4800F0DAF981461B48FEF768FB11
:101C00000C2812D8B9F1FF3F0FD0092216492046FF
:101C1000FEF752FB214615A008F064FB4021124854
:101C2000FEF721FB35700120CBE740210E48FEF77F
:101C30001AFB357001220A490A4802F05DFDC7E728
:101C40003C0000204C000020CAE4C8EBC9E8B1B851
:101C500049445C725C6EBDE1CEB2A3BA0D0A0000CD
:101C60004D0000206C5800207459002025730D0A87
:101C7000000000000178012901D00121017000203D
:101C8000704700002DE9FE43016800914168019111
:101C900080460089ADF808001EA16846FEF7FAFAF2
:101CA00010B10020BDE8FE831B4E1C4F1C4C4FF0B2
:101CB000FF3900251BA008F015FB0122224923480B
:101CC00002F01AFD00234A46194630680BF078F9F5
:101CD00001280CD11148FEF7FBFA0A2802D2387805
:101CE00056280AD040210D48FEF7BDFA2570012282
:101CF0001549164802F000FDDCE722780749404606
:101D0000921EFEF7D9FA40210448FEF7ACFA25707E
:101D10000120C7E7560000003C0000207459002055
:101D20004C000020CAE4C8EBD3B2BCFEB0E6B1BEA2
:101D30005C725C6EBDE1CEB2B8F1CABD2856312EE0
:101D40007829A3BA0D0A00004D0000206C5800202D
:101D50007FB58025002001240095CDE901040A4EBD
:101D60006946304601F052F98021304601F042FACE
:101D70000220CDE90240CDE900546946304601F029
:101D800045F904B0002070BD001001401FB50122CC
:101D900069468220FFF71AFC012201A98320FFF780
:101DA00015FC9DF804009DF80010134C40EA01203A
:101DB00042F2067160800A38884202D30A2003F09A
:101DC0007BF8012202A98420FFF700FC012203A96D
:101DD0008520FFF7FBFB9DF80C009DF8081040EAFA
:101DE000012000B242F20F71A080884202DD002083
:101DF00003F08CF81FBD0000901200202DE9FE4377
:101E0000044600680090606801902089ADF80800E1
:101E10000821684600F0CAF8401C02D00020BDE846
:101E2000FE831E4F1E4E4FF0FF3800251DA008F008
:101E300059FA01222249234802F05EFC002342465F
:101E4000194638680BF0BCF8012821D108211E483A
:101E500000F0ACF881461C48FEF73AFA0C2812D87C
:101E6000B9F1FF3F0FD0082217492046FEF724FAA8
:101E7000214616A008F036FA40211348FEF7F3F980
:101E800035700120CBE740210F48FEF7ECF93570A3
:101E900001220B490B4802F02FFCC7E73C00002051
:101EA0004C000020CAE4C8EBC1F7CBAEBAC538CEAF
:101EB000BB5C725C6EBDE1CEB2A3BA0D0A0000003D
:101EC0004D0000206C5800207459002025730D0A25
:101ED000000000002DE9FE43016800914168019176
:101EE00080460089ADF8080020A16846FEF7D2F9C7
:101EF00010B10020BDE8FE831D4E1E4F1E4C4FF05A
:101F0000FF3900251DA008F0EDF9012224492548DC
:101F100002F0F2FB00234A46194630680BF050F8F5
:101F200001280CD11348FEF7D3F90A2802D23878D9
:101F300056280AD040210F48FEF795F92570012256
:101F40001749184802F0D8FBDCE7227809494046D7
:101F5000921EFEF7B1F9074913A008F0C3F940211A
:101F60000448FEF780F925700120C3E75600000001
:101F70003C000020745900204C000020CAE4C8EB4B
:101F8000C8EDBCFEB0E6B1BE5C725C6EBDE1CEB227
:101F9000B8F1CABD2856312E7829A3BA0D0A00001F
:101FA0004D0000206C5800202573000002460020E0
:101FB00008E0135C303B092B02D94FF0FF3070472B
:101FC000401C40B28842F4DB7047000070B598B006
:101FD00000246D4604EB440605EB860120010C222B
:101FE000FFF7F4FA15F82600641CA04204D0002084
:101FF00002F0A2FF18B070BDE4B2082CEAD30A4D7B
:10200000002400BF04EB440005EB800120010C22FA
:10201000FFF7DCFA641CE4B2082CF3D36022024917
:102020000248FEF707F9E5E7B4590020145A0020EA
:1020300008B5012269468720FFF7C8FA9DF800001D
:10204000C11E622903D3032002F0C6FF08BD014967
:10205000487008BD901200200020034902460A542F
:10206000401C0F28FBDB7047B062002070B521498F
:10207000214C0878401C08702368186890F80015F7
:1020800040F2045505EB4101425A90F8001501EB6E
:10209000810100EBC11103F1AA00FEF7CBF8206823
:1020A000002250F8AB1B91F8003505EB4303C95AE9
:1020B0000A542068006890F8001501EB810100EBDC
:1020C000C110FEF705F901462068006890F8002568
:1020D00002EB820200EBC210FEF7C5F82068006830
:1020E00090F8001519B1002180F8001570BD01218C
:1020F000FAE700001D1300200413002010B505F0BE
:10210000DDFC044605F02AFD044405A005F0A2FD0F
:102110002044C1B2BDE8104004A008F0E3B80000BC
:102120002F52656365697665436D6400666C61670F
:102130003A336F6B20666C6167203D2025640D0A81
:1021400000000000014800F0C3BD0000305900202D
:10215000014800F0BDBD0000EC58002030B590F8FB
:1021600040500124AC40C56B6C60046863604368F8
:10217000102B036803D099600068C26030BD9A607C
:102180000068C16030BD704770B50078424C434D67
:1021900086B0072829D2DFE800F004142A3B4C5D02
:1021A0006E003F4E306800281FD114223D4968461A
:1021B000FEF740F80021684609F028FA3060032055
:1021C0000FE0394E306800280FD1364914221431FF
:1021D0006846FEF72FF80021684609F017FA3060CC
:1021E0000420207028680AF087FD06B070BD2F4ECD
:1021F00030680028F9D12B49142228316846FEF7AF
:1022000019F80021684609F001FA30600520E8E776
:10221000274E30680028E8D1224914223C31684614
:10222000FEF708F80021684609F0F0F93060062052
:10223000D7E7204E30680028D7D11A4914225031F0
:102240006846FDF7F7FF0021684609F0DFF93060C6
:102250000720C6E7184E30680028C6D1114914225D
:1022600064316846FDF7E6FF0021684609F0CEF9C3
:1022700030600820B5E7114E30680028B5D1094913
:10228000142278316846FDF7D5FF0021684609F031
:10229000BDF930600920A4E75C0000206400002044
:1022A000A8120020ECD90008C4120020C01200209F
:1022B000B8120020E8120020D8120020E0120020FE
:1022C00070B51B4D4FF40071284600F093FF044693
:1022D000A915284600F08EFF1649097801EB410246
:1022E000154901EB820131F8062C1449B1F90010AF
:1022F0008A4203DA012C01D1012804D08A4208DD88
:10230000012C04D005E0BDE8704005F0BBBE0128FB
:1023100008D08A420AD10CB1002807D1BDE870402C
:1023200005F0E2BEBDE8704005F07CBE70BD000067
:102330000010014090120020B45900209412002097
:102340002DE9F84F06460878DDF828801D4614462A
:102350000F4650B9207861780844A178C0EB00108E
:1023600001EB8000306001203870207861784C4AA1
:102370000844A178C0EB001001EB8000128831689E
:10238000DFF82091114488425CD3DFF81CA14FF4A0
:102390000071504600F02EFF83464FF48071504686
:1023A00000F028FFBBF1010F43D1404A404901280A
:1023B0003FD11078934600EB400201EB82008A4641
:1023C00010F80A0CFEF75CFA00903B4839490068A7
:1023D000FEF70FFA0099FEF7DFFA0CD23749B9F988
:1023E00000000988884206DAA8F800000120287059
:1023F00005F018FE1DE09BF8000000EB40010AEB21
:10240000810010F8090CFEF73BFA82462A48294958
:102410000068FEF7EEF95146FEF7B4FA09D2B9F9B1
:102420000000002805DDA8F800000220287005F053
:1024300029FE207861780844A178C0EB001001EBF8
:102440008000306029780020012917D0022925D189
:10245000217862781144A278C1EB011102EB81016D
:102460003160B8F80010B9F900200A39914215DB43
:1024700038702870BDE8F84F05F036BE21786278D4
:102480001144A278C1EB011102EB81013160B8F86F
:102490000010B9F900200A319142E9DDBDE8F88F5A
:1024A000AC12002094120020001001409012002075
:1024B000B459002000002041F012002092120020A8
:1024C000002180F87F100B4601A203A100F0B0B8F4
:1024D0004F4B0D0A0000000041540D0A000000009F
:1024E0000023024A02A100F0A3B80000D024000893
:1024F000415445300D0A000070B50025044680F8AF
:1025000082502B4606A208A100F092F884F882506F
:102510002046BDE87040002301A203A100F088B866
:102520004552524F520D0A0041542B434950434CDF
:102530004F53450D0A00000070B590B00D46064699
:10254000144607A1684607F0DDFE23462A46694681
:10255000304600F095F9012800D0002010B070BD81
:1025600041542B43495053454E443D25640D0A00C8
:1025700000000000052302A203A100F059B80000EA
:1025800053485554204F4B0041542B434950534816
:1025900055540D0A000000000023024A02A100F079
:1025A00047B80000D024000841542B4349505352EF
:1025B00049503D310D0A000010B5002303A207A1C8
:1025C00000F036F8012800D0002010BD434F4E4ED9
:1025D000454354204F4B0D0A0000000041542B434B
:1025E000495053544152543D22544350222C2231DD
:1025F00038322E39322E302E3238222C22313838D1
:1026000033220D0A00000000002180F884100B46E0
:1026100001A203A100F00CB853544154453A000004
:1026200041542B4349505354415455530D0A000013
:102630002DE9F0411D462B4E002390460F460446DF
:102640005A1E194630680AF0BBFCC4E924783846A3
:10265000FDF73EFE0146384606F000FC85B14FF41A
:102660007A7005FB00F220480023194600680AF042
:10267000A7FC0025012809D054F8901F1BA024E0D6
:1026800039462046BDE8F04105F064BF2048216886
:10269000006891F80015006801EB810100EBC110A2
:1026A0004146FDF7F7FD68B1FFF7E0FC00231A464D
:1026B000194630680AF07EFD44F8905F012065609D
:1026C000BDE8F08154F8901F12A007F00BFE002324
:1026D0001A46194630680AF06DFD256000206560D5
:1026E000EEE700000813002034000020636D642032
:1026F0003D205B25735D2C7853656D6170686F724A
:102700006554616B65203D2066616C73650D0A0040
:1027100004130020636D64203D205B25735D2C63F2
:102720006865636B206572726F720D0A00000000AD
:102730002DE9F843002704466E46B84680F88370BA
:102740003B463CA23DA1FFF773FF01286FD13E48F5
:102750003E4D81460168AA31296006E0FFF786FCFC
:10276000D9F80000AA300127286039A12868FDF7B0
:1027700091FD08B9002FF1D037A0296807F0B2FD0C
:1027800033A12868FDF786FD40F2045100284BD0A4
:102790002A6848461278202A17D0036822681B68E6
:1027A00093F8003501EB43031A4413885B1E138032
:1027B000036822681B6893F8003501EB4303D25A83
:1027C000A2B32A68521C2A60E4E72A68521C2A60D5
:1027D00012782C2A18D0036822681B6893F80035F9
:1027E00001EB43031A4413885B1E138003682268BD
:1027F0001B6893F8003501EB4303D25AB2B12A6843
:10280000127806F8012BE0E786F800809DF80000BA
:10281000A0719DF80100E0719DF8020020726846E9
:10282000FDF750FF20710120BDE8F883FFE700208D
:10283000FAE700004F4B0D0A0000000041542B4303
:1028400053510D0A00000000041300202013002043
:102850002B4353513A0000002A2A2A2A2A2A475099
:1028600052535F52785F4461742A2A2A2A2A2A2AFC
:102870002A20435351203D205B25735D0D0A000043
:102880002DE9F04700262F4F994692460D46044603
:102890003346721E314638680AF092FBB04684F81F
:1028A000858029A1C4E9245184F885802846FDF754
:1028B0000FFD0146284606F0D1FA2946204605F0CC
:1028C00049FE88B1454684F88580FFF7CFFB1FA0FD
:1028D000C4F8900020A0C4F8940084F886504946BB
:1028E000504606F0BBFA0AE01EA007F0FBFC26E00B
:1028F000761CF6B2642008F073FE642E14D094F8AF
:1029000086000028F4D0FFF7B1FB84F88650C4F8A5
:1029100090500023C4F894501A46194638680AF0BB
:1029200049FC0120BDE8F087FFF7A0FB00231A4611
:10293000194638680AF03EFC44F8905F6560002054
:10294000F0E70000081300203E0000004D515454F1
:102950005F4441540000000053454E44204F4B0D4E
:102960000A000000273E27206E6F74207265637690
:102970002072657475726E206572726F720D0A0036
:1029800070B50546002409F051FE09E0641CE4B26C
:10299000032C02D1002409F049FE642008F020FE37
:1029A0002846FFF78DFD0128F0D12846FFF798FD56
:1029B0000128FAD12846FFF7EFFD0128FAD170BDB2
:1029C00070B5054600244FF47A7008F009FE2846D9
:1029D000FFF7AEFE28790A2823D92879202820D2AB
:1029E0002846FFF7E9FD104E04463068FFF70CFE5D
:1029F00030684179062901D1012C06D04179082996
:102A00000BD04079092802D007E0012070BD28468C
:102A1000FFF772FD2846FFF7ADFD214603A007F042
:102A200061FC204670BD000004130020666C6167E5
:102A3000203D2025640D0A0010B5044612A0C4F8FC
:102A4000900013A0C4F894001448002342F21072BE
:102A5000194600680AF0B4FA012801D0002010BD20
:102A60000F482168006891F80015006801EB8101AA
:102A700000EBC110D4F89410FDF70CFC0028EED048
:102A8000FFF7F4FA012010BD524543560000000044
:102A9000524543562046524F4D000000380000205A
:102AA0000413002010B5094C09A0B4F9041007F074
:102AB00019FC0020A080E08002F028FAB4F904108C
:102AC000BDE8104002A007F00DBC000090120020ED
:102AD000475F4E6F775F526F757465203D202564A8
:102AE0000D0A0000F8B5164C0020ADF8000069464C
:102AF0002068FFF7A1FF014612A007F0F3FB206852
:102B000013A1AA30FDF7C6FB13A1FDF7C3FB851C7B
:102B10002078BDF80010281A081AAA30C6B231462B
:102B20000EA007F0DFFB29460FA007F0DBFB2068B3
:102B300032462946AA30FDF77DFB0120F8BD000092
:102B40000413002072656376203D2025640D0A0081
:102B500052454356000000000D0A00006C656E20CF
:102B60003D2025640D0A000070203D2025730000E3
:102B700001680A6822F00E020A6001680A6822F001
:102B800001020A6090F84020C36B012101FA02F2B1
:102B90005A6080F82110002180F820100846704704
:102BA0002DE9F05F90F821100024022903D00421C0
:102BB0008163012485E001680A6822F00E020A6040
:102BC00001680A6822F001020A603F4E3E4FB215CA
:102BD000DFF8F4C0DFF8F090DFF8ECA0DFF8E8B041
:102BE000DFF8E4E00168783F13011502ACF1640CF2
:102BF000A9F15009AAF13C0AABF1280BAEF1140E71
:102C00004FF48018B14227D9B9420ED0614512D095
:102C100049451DD0514518D0594518D0714501D1AD
:102C2000424615E0294EB14201D1012210E0274E63
:102C30001436B14201D110220AE0244E2836B142A6
:102C400006D0224A3C32914201D11A4600E02A467F
:102C50001E49091F0A602BE0B94213D0614517D005
:102C6000494522D051451DD059451DD0714501D14E
:102C700042461AE0B14202D14FF0807215E0134E85
:102C8000B14201D1012210E0104E1436B14201D1FF
:102C900010220AE00D4E2836B14206D00B4A3C32D3
:102CA000914201D11A4600E02A46074980394A601C
:102CB000012180F82110002180F82010416B01B122
:102CC00088472046BDE8F09F80000240080402408B
:102CD0002DE9F05FC16B0A6801680B68046C4FF066
:102CE000040808FA04F8844D844E854FDFF814C2B6
:102CF000DFF81492DFF814A2DFF814B2DFF814E260
:102D000018EA020F65D05FEA437862D50A68920636
:102D100003D40A6822F004020A60DFF8F0814FF45D
:102D20008062016808F1140813011402414524D996
:102D3000A9420DD0B1420FD0B9421AD0614515D089
:102D4000494515D0514501D1120312E0594501D131
:102D500004220EE0714501D140220AE06D4D143588
:102D6000A94206D06B4A2832914201D11A4600E0AE
:102D700022466749091F0A6029E0A94213D0B142DF
:102D800015D0B94220D061451BD049451BD05145D3
:102D900002D14FF4800217E0414502D14FF080622A
:102DA00012E0594501D104220EE0714501D14022C3
:102DB0000AE0584D1435A94206D0564A28329142AD
:102DC00001D11A4600E022464B4908394A60C16ADF
:102DD00071E04FF0020808FA04F818EA020F70D008
:102DE0005FEA83786DD50A68920606D40A6822F0F5
:102DF0000A020A60012180F82110DFF810814FF4E7
:102E00000072016808F1140813011402414524D925
:102E1000A9420DD0B1420FD0B9421AD0614515D0A8
:102E2000494515D0514501D1120312E0594501D150
:102E300002220EE0714501D120220AE0354D143501
:102E4000A94206D0334A2832914201D11A4600E005
:102E500022462F49091F0A6029E0A94213D0B14236
:102E600015D0B94220D061451BD049451BD05145F2
:102E700002D14FF4001217E0414502D14FF0007229
:102E800012E0594501D102220EE0714501D1202204
:102E90000AE0204D1435A94206D01E4A283291423C
:102EA00001D11A4600E02246134908394A60002140
:102EB00080F82010816A00291CD0BDE8F05F084727
:102EC000FFE70825A540154214D01A0712D50A6855
:102ED00022F00E020A6090F84020C36B012101FA33
:102EE00002F25A60816380F82110002180F82010DE
:102EF000016BE0E7BDE8F09F080002401C000240C3
:102F00003000024044000240580002406C00024081
:102F1000080402401C04024030B560B11C4A03683A
:102F20001421934209D21B4A1A44B2FBF1F18900E1
:102F3000016419490AE0012030BD154A52421A4481
:102F4000B2FBF1F18900016411490839C163022122
:102F500080F821101A6843F6F0718A43F0E90114F1
:102F60002143D0E902452C432143046921434469AC
:102F70002143846921431143196000214162816228
:102F8000C16201634163012242770177084630BD87
:102F900008040240F8FFFDBF0000024070B504467F
:102FA00090F82000002501280CD0012084F8200092
:102FB00094F821600020012E06D084F8200002251C
:102FC000284670BD022070BD022684F82160A063EF
:102FD0002068066826F0010606602046FFF7BEF866
:102FE000E06A00282068016802D041F00E0106E086
:102FF00021F0040101602068016841F00A010160CC
:103000002068016841F001010160D9E72DE9F84F1E
:10301000DFF8B8A100220AF1040B144601274FF093
:103020000F090BF1040E00BF0B6807FA04F52B40E3
:10303000AB4274D1DFF898C14E68A6EB0C08664528
:103040002BD00DDC032E34D005DC36B3012E19D085
:10305000022E2FD11BE0112E16D0122E2AD119E0EC
:10306000B8F5881F19D006DCB8F5803F15D0B8F543
:10307000801F1FD111E0B8F5001F0ED0B8F5041F56
:1030800018D10AE0CA6815E0CA68121D12E0CA68C1
:1030900008320FE0CA680C320CE08A682AB1012AB3
:1030A0004FF0080203D0456104E0042202E005610C
:1030B00000E00022FF2B01D8064601E000F10406E3
:1030C0004FEA840501D9A5F12005D6F800C009FA18
:1030D00005F82CEA080C02FA05F54CEA050CC6F8CE
:1030E00000C04D68ED006AD53A4DAE6946F0010664
:1030F000AE61AD6924F0030605F001050095364D7B
:1031000006EB050CDCF80850A6074FEA167809FA1A
:1031100008F6B543314EB04202D100261AE04EE027
:103120002F4EB04201D1012614E02E4EB04201D103
:1031300002260FE02C4EB04201D103260AE02B4EAE
:10314000B04201D1042605E0294EB04201D1052646
:1031500000E0062606FA08F62E43CCF808604D6813
:10316000DAF80060ED03554601D51E4300E09E43AA
:103170002E604D68AD0305D5DBF800601E43CBF82B
:10318000006004E0DBF800509D43CBF800504D6830
:10319000DEF80060ED02754601D51E4300E09E4357
:1031A0002E604D68AD0205D5084D0C352E681E43C6
:1031B0002E6004E0054E0C3635689D433560641C76
:1031C000102CFFF431AFBDE8F88F0000000401407F
:1031D00000001110001002400000014000080140F2
:1031E000000C014000100140001401400018014093
:1031F000001C01408068084000D0012070470AB1DF
:10320000016170470904FBE70148806870470000CE
:103210004813002002488168027811448160704799
:1032200048130020074810B5016841F01001016003
:10323000032000F09DF80F2000F006F800F024F8BD
:10324000002010BD0020024070B50D4D04464FF423
:103250007A712878B1FBF0F00A490968B1FBF0F007
:1032600000F096FE48B9102C07D200222146501ECD
:1032700000F05EF800206C6070BD012070BD0000A1
:103280004813002050000020214808B5816941F012
:1032900001018161816901F001010091C16941F081
:1032A0008051C161C06900F080500090032000F09F
:1032B0005FF8002211466FF00B0000F039F8002291
:1032C00011466FF00A0000F033F8002211466FF04B
:1032D000090000F02DF800221146501F00F028F8D8
:1032E00000221146101F00F023F800220F21901E2B
:1032F00000F01EF800220F21501E00F019F80548BA
:10330000416821F0E06141F00071416008BD0000BA
:10331000001002400000014000F01F020121914016
:103320004009800000F1E020C0F800117047000063
:10333000F0B40E4B1B680C46C3F30223C3F1070520
:10334000042D00D90425191D072901D2002300E00E
:10335000DB1E012606FA05F1491E214099409E40D8
:10336000761E16403143F0BC04F00BBF0CED00E0BC
:10337000064900F0070208684FF6FF03184040EACC
:103380000220034A10430860704700000CED00E083
:103390000000FA05014901200862704700000E4252
:1033A00010B52CA401461DCC86B08DE81D002DA0C3
:1033B0002D4C00680490002004292FD00BDC01293B
:1033C0002FD0022928D100F08BF96168C1F3813137
:1033D000491C49001EE0082920D010291CD1616831
:1033E0002268D20118D5C1F38342C9031DF8020037
:1033F00009D5616804AAC1F34041515C1B4AB2FB84
:10340000F1F1484301E01A4948436168490203D495
:1034100040000321B0FBF1F006B010BD00F070F9E0
:10342000FAE7226AC2F30121012903D1920701D5EB
:10343000C803F1E7022905D1626A920702D549F66D
:103440004040E9E70329E7D121688903E4D54FF239
:103450002440E1E702030405060708090A0B0C0DE6
:103460000E0F1010010200000010024000127A003E
:1034700000093D002DE9F84305460078354CC007AA
:1034800054D0E0690026C00008D4E06940F08050C4
:10349000E061E069012600F0805000902E4801684C
:1034A000C90512D40168804641F480710160FFF7BC
:1034B000ABFE074605E000BFFFF7A6FEC01B642871
:1034C00023D8D8F80000C005F6D5206A10F4407063
:1034D00021D0A98801F4407181421CD0206A1F4983
:1034E000012220F440700A6000220A602062C007B6
:1034F00011D0FFF789FE074641F2883808E000BF87
:10350000FFF782FEC11B414502D90320BDE8F883C5
:10351000206A8007F4D5206A696820F44070084367
:1035200020621EB1E06920F08050E06128788007B9
:1035300005D56068A96820F4404008436060287899
:10354000C00605D56068696920F4800008436060A2
:103550000020DBE7001002400070004040044242BF
:103560002DE9F047DFF83C8105460E46D8F800000B
:1035700000F00700B0420CD2D8F8001021F007018B
:103580003143C8F80010D8F8000000F00700B0423E
:1035900063D12878444C800705D56068A96820F07D
:1035A000F000084360602878C00745D068680128AB
:1035B00016D02168022816D0890700294DDA6168E3
:1035C00021F0030101436160FFF71EFE69680746B1
:1035D00041F2883001290FD00229814619D027E015
:1035E00021688903E9E78901E7E700BFFFF70CFEDF
:1035F000C11B494501D918E081466068C0F38100CC
:103600000128F3D118E000BFFFF7FEFDC11B4945BB
:103610000BD86068C0F381000228F5D10CE000BF30
:10362000FFF7F2FDC11B494502D90320BDE8F08731
:10363000606810F00C0FF3D1D8F80010404601F08C
:103640000701B1420BD9016821F007013143016044
:10365000006800F00700B04201D00120E6E72878BA
:10366000400705D56068E96820F4E06008436060C1
:103670002878000706D56068296920F4605040EA80
:10368000C100606000F03CF86168084AC1F30311B2
:10369000515CC840064908600F20FFF7D5FD0020A7
:1036A000C4E70000002002400010024034D90008A6
:1036B00050000020014800687047000050000020C2
:1036C0000448054900684968044AC1F30221515C75
:1036D000C8407047500000200010024044D9000844
:1036E0000448054900684968044AC1F3C221515C95
:1036F000C8407047500000200010024044D9000824
:1037000012A185B00FC98DE80F0014A0144A0068FB
:1037100004905168134801F00C03042B10D0082BBF
:103720000ED1C1F38343C9031DF803000AD55168C4
:1037300004AAC1F34041515C0A4A5043B0FBF1F086
:1037400005B0704708494843FAE700000203040542
:10375000060708090A0B0C0D0E0F101001020000DD
:103760000010024000127A0000093D002DE9F84FD8
:1037700004460078B94DC00748D06868C0F381009E
:10378000012807D06868C0F38100022809D1686861
:10379000C00306D52868800338D5606800286FD03C
:1037A00034E06068B0F5803F0BD010B1B0F5A02FC9
:1037B00011D0286820F480302860286820F4802008
:1037C00002E0286840F480302860606888B1FFF724
:1037D0001BFD064609E0286840F480202860F0E7D9
:1037E000FFF712FD801B642875D828688003F7D581
:1037F0000CE0FFF709FD064605E000BFFFF704FDFA
:10380000801B6428F0D828688003F7D42078944E71
:1038100080074FF001094FF000083BD5686810F0B1
:103820000C0F07D06868C0F38100022809D16868CE
:10383000C00306D42868800714D5206901281FD149
:1038400010E02069B0B1C6F80090FFF7DDFC074634
:1038500005E000BFFFF7D8FCC01B0228C4D82868C9
:103860008007F7D52868616920F0F80040EAC100B8
:1038700028600FE0C6F80080FFF7C6FC074606E0A8
:10388000E9E000BFFFF7C0FCC01B022823D828686E
:103890008007F7D4207800072CD57248A169D9B1E8
:1038A000C0F80090FFF7B0FC074604E0FFF7ACFC5F
:1038B000C01B02280FD8686A8007F7D56A484FF402
:1038C000FA510068B0FBF1F0009000BF0098411E73
:1038D0000091FAD20EE080E0C0F80080FFF794FC7F
:1038E000074604E0FFF790FCC01B022875D8686A01
:1038F0008007F7D42078400760D5E8690027C0002A
:1039000008D4E86940F08050E861E869012700F0D8
:103910008050009055480168C90513D4016883465A
:1039200041F480710160FFF76FFC824606E000BF42
:10393000FFF76AFCA0EB0A0064284ED8DBF8000011
:10394000C005F5D5E06801280AD008B1052813D0D4
:10395000286A20F001002862286A20F0040002E0B2
:10396000286A40F001002862E06841F2883B98B183
:10397000FFF74AFC82460BE0286A40F00400286208
:10398000EEE700BFFFF740FCA0EB0A0159455AD80B
:10399000286A8007F6D50CE0FFF736FC824605E082
:1039A000FFF732FCA0EB0A0159454CD8286A800782
:1039B000F6D41FB1E86920F08050E861E06988B36F
:1039C0006968C1F38101022945D00228C6F86080E8
:1039D00004D0FFF719FC044638E034E0FFF714FC8C
:1039E000074604E0FFF710FCC01B02282BD828680C
:1039F0008001F7D4206AB0F5803F05D16868A168DE
:103A000020F4003008436860D4E90801084369687D
:103A100021F4741108436860C6F86090FFF7F4FB66
:103A2000044606E015E000BFFFF7EEFB001B02288E
:103A300009D828688001F7D50BE000BFFFF7E4FB49
:103A4000001B022802D90320BDE8F88F28688001F6
:103A5000F4D40020F8E70120F6E70000001002404F
:103A600000004242800442425000002000700040AA
:103A70002DE9F04791460C465FEA00084AD084B32E
:103A8000D8F800004068400744D4404604F01CFFCA
:103A90004FF461620546B0FBF2F1B0FBF2F302FBBA
:103AA00013503C23B0FBF3F0B5FBF2F6607002FB61
:103AB0001650B0FBF3F203FB1200A070182931D3AB
:103AC0001820B1FBF0F7B1FBF0F200FB12102070F0
:103AD000404604F0F2FE411C04D0A84202D9461B25
:103AE00002E017E04FF0FF36A7EB071000EB4000B5
:103AF000C0EB001005EBC0152946404604F033FF2B
:103B000040B9701C01D0711900E03146404604F004
:103B100016FF10B10120BDE8F0873946404604F099
:103B20003FFE00E02170B9F1000F0BD0207804F0C7
:103B30002CFE2070607804F028FE6070A07804F0FD
:103B400024FEA0700020E6E770B5040003D0607C7E
:103B5000002610B105E0012070BD2674204600F05B
:103B600043F802206074204600F010F9042578BB69
:103B7000204604F06CFE58BB2068416821F0070124
:103B80004160A06820B11748016821F0010101607F
:103B90001448001F0168A26821F46071114301609C
:103BA0006068411C04D10120FFF7FAFB80B1401E80
:103BB00021688A6822F00F0242EA10428A60216876
:103BC000CA6860F30F02CA60204604F05BFE08B1C9
:103BD0006574C0E7E67301206073A0736074002011
:103BE00070BD0000306C004008B50068084988428C
:103BF0000DD1FFF7CFFB0748C16941F00061C161FA
:103C0000C069054900F0006000900120086008BD0F
:103C100000280040001002403C0442422DE9F041DF
:103C20000D4604003BD0C5B3207C01283AD04FF0AC
:103C3000010884F8108002206074E87872B304F000
:103C40009BFDE073687804F097FD6073A87804F03A
:103C500093FDA073C2B2617BE07B04F045FE20734C
:103C60002870204604F030FE4FF46161B0FBF1F1A2
:103C7000002518292DD91822B1FBF2F1A1EB011171
:103C800001EB4101C1EB011100EBC11631462046A9
:103C900004F069FE0427C8B90BE000E004E001204D
:103CA000BDE8F0810220FBE7E07368786073A878D4
:103CB000CFE7204604F001FE411C0AD0B04208D2F2
:103CC00006490144204604F03AFE10B16774257499
:103CD000E5E784F8118025740020E1E780510100B8
:103CE0002DE9F0410D46040024D01DB3207C0128AD
:103CF00023D04FF0010884F81080022060742878E7
:103D0000EAB104F039FD4FF4616100FB01F6687817
:103D100004F032FDC0EB001006EB8006A87804F03A
:103D20002BFD35182946204604F01DFE00260427E9
:103D300010BB0FE00120BDE8F0810220FBE74FF44B
:103D4000616148436978C1EB011100EB8100A978FA
:103D50004518E7E72068416821F0050141602046E9
:103D600004F0ABFD411C0AD0A84208D20649014428
:103D7000204604F0E4FD10B167742674DAE784F895
:103D8000118026740020D6E78051010070B5040030
:103D90000AD02068416821F008014160FFF734FA39
:103DA00005464FF47A7608E0012070BDFFF72CFA43
:103DB000401BB04201D9032070BD20684068000755
:103DC000F4D5002070BD704738B5044600684268DD
:103DD00081684B0605D4CB0703D0530601D5216C6F
:103DE00004E08B0707D5130605D5616C01B02046AA
:103DF000BDE83040084711F0600F3FD093063DD535
:103E00004B060AD594F85130032B34D0636D43F040
:103E100004036365C36883680093890609D5616DEF
:103E200041F00101616581680091016821F0400164
:103E30000160606D002821D02068416821F0E00118
:103E40004160012084F85100900718D02068416833
:103E500021F0030141600C4DE06C18B14563E06C4A
:103E6000FEF79EFEA06C002808D04563A06CBDE85C
:103E70003840FEF795BEC1688068009038BD204686
:103E8000FFF7A1FF38BD0000358B000870B50400B6
:103E900005D00025A56294F8510010B104E001207E
:103EA00070BD204600F034F8022084F851002068EC
:103EB000016821F040010160D4E901010843D4E91F
:103EC00003121143084361690843218B01F4007117
:103ED0000843E1690843216A0843A16A084321684D
:103EE0000860A069042101EA1040616A0843216862
:103EF00048602168E06A08612068C16921F40061B6
:103F0000C1616565012084F85100002070BD00008A
:103F100010B50068154986B0884224D114488169DB
:103F200041F4805181618069124C00F4805004900A
:103F3000A0200090022001900320039069462046B3
:103F4000FFF764F800214020CDE9000102916946A5
:103F50002046FFF75BF8002205212320FFF7E8F950
:103F60002320FFF7D9F906B010BD00000030014052
:103F700000100240000801404FF0E02104280869C9
:103F800003D020F004000861704740F00400FAE715
:103F900010B5401EB0F1807F01D3012010BD4FF05D
:103FA000E02460610F21601704F0EBF80020A061AD
:103FB00007202061002010BD7047704730B590F891
:103FC0003C20012A20D0012280F83C20022380F8E6
:103FD0003D3003685C6824F070045C6003685C68D2
:103FE0000D682C435C6003689C6824F080049C602E
:103FF00003689C6849680C439C6080F83D20002160
:1040000080F83C10084630BD022030BD10B50400D9
:1040100003D094F83D0010B107E0012010BD00204E
:1040200084F83C00204600F00DF8022084F83D00A2
:10403000211D206805F094FD012084F83D0000203A
:1040400010BD000008B50068B0F1804F12D10A48D9
:10405000C16941F00101C161C069002200F00100A5
:10406000009005211C20FFF763F9BDE808401C20E3
:10407000FFF752B908BD0000001002400168CA688D
:1040800042F00102CA600068016841F0010101606C
:104090000020704770B5044690F83C00012817D006
:1040A000012584F83C50022084F83D002068826895
:1040B00022F0770222F47F4282600868502837D0CD
:1040C0000DDC202859D005DC88B3102841D151E0FF
:1040D000022070BD302853D040283AD13FE06028FC
:1040E0002ED070280BD0B0F5805F03D0B0F5005F04
:1040F0002FD110E02068816821F0070115E0CB681E
:10410000D1E90121206805F071FD2168886840F03F
:10411000770088601DE0CB68D1E90121206805F0B7
:1041200065FD2068816841F48041816011E01EE0F6
:10413000CA684968206805F06BFD5021206806E0D8
:10414000CA684968206805F074FD6021206805F0A0
:1041500057FD84F83D50002084F83C0070BDCA68CB
:104160004968206805F054FD40212068EFE70021F0
:104170002068ECE710212068E9E720212068E6E7C5
:1041800030212068E3E7704770B504460068016994
:104190004FF00005C943890715D4C168C943890791
:1041A00011D4E91E01610120207720688069800711
:1041B000204602D0FFF7E7FF04E000F098F8204621
:1041C00000F0BCF8257720680169C943490717D476
:1041D000C168C943490713D46FF00401016102208B
:1041E00020772068806910F4407F204602D0FFF7D6
:1041F000CAFF04E000F07BF8204600F09FF8257726
:1042000020680169C943090716D4C168C943090771
:1042100012D46FF008010161042020772068C06982
:104220008007204602D0FFF7AEFF04E000F05FF801
:10423000204600F083F8257720680169C943C90644
:1042400017D4C168C943C90613D46FF010010161C6
:10425000082020772068C06910F4407F204602D0F3
:10426000FFF791FF04E000F042F8204600F066F806
:10427000257720680169C943C90708D1C168C943C6
:10428000C90704D1891E0161204600F059F8206851
:104290000169C943090609D4C168C943090605D49F
:1042A0006FF0800101612046FFF786FE20680169FA
:1042B000C943490609D4C168C943490605D46FF00A
:1042C00040010161204600F04FF820680169C943B0
:1042D00089060BD4C168C943890607D46FF0200151
:1042E00001612046BDE87040FFF767BE70BD7047B2
:1042F00070B50D46040003D094F83D0010B107E0FE
:10430000012070BD002084F83C00204600F015F824
:10431000022084F83D00211D206805F021FC206862
:10432000016821F0080101602068016829430160EB
:10433000012084F83D00002070BD704770470000E8
:10434000074800680068D0F80815B1F5805F04D30D
:10435000D0F80815491CC0F808150248FFF78EBEB2
:10436000041300202C580020704710B50446006844
:10437000416994F83920C1F3C011212A0BD151B100
:10438000416921F080014161206B08B1FEF7F0FB2B
:10439000204605F005FD2068416994F83A20C1F3F4
:1043A0008011222A0BD151B1416921F040014161B4
:1043B000606B08B1FEF7DCFB204605F0E3FC002053
:1043C00010BD704770B5026804461068D168536923
:1043D00010F00F0F50D003F0010501F49076354333
:1043E0005DD0C20705D0CA0503D5E26B42F00102D9
:1043F000E263420705D5DA0703D0E26B42F002021E
:10440000E263820705D5DA0703D0E26B42F00402CB
:10441000E263020705D5DA0703D0E26B42F0080237
:10442000E263E26B002A33D0800604D5880602D509
:10443000204605F0F1FC20684069E16BC0F3801074
:10444000090700D428B3204605F09CFC2068416988
:1044500049061AD5416921F040014161606BA0B164
:104460001B494163606BFEF79BFB002810D0606B1B
:10447000416BBDE870400847830610D58B060ED50A
:104480002046BDE8704005F0C7BC2046FFF799FF05
:1044900070BD2046FFF795FF0020E06370BD030666
:1044A00006D50B0604D52046BDE8704005F0B8BD22
:1044B0004006F3D54806F1D5D168204621F04001E9
:1044C000D160202184F8391000F00AFA70BD000094
:1044D000AD9C000870B5040004D094F839000025A4
:1044E00010B106E0012070BD84F83850204600F07D
:1044F00023F8242084F839002068C16821F4005191
:10450000C160204605F0D4FC2068016921F4904187
:1045100001612068416921F02A0141612068C16878
:1045200041F40051C160E563202084F8390084F82B
:104530003A00002070BD0000F0B506463A4F03680F
:104540003A48022103223A4D002485B0BB4219D1DA
:10455000836943F4804383618069039200F480405F
:1045600004900802CDE9000169462846FEF74EFD99
:104570002815CDE90004694628460294FEF746FD59
:1045800005B0F0BD2B4FBB42FAD1C36943F40033F1
:10459000C361C069039200F4003004900420CDE9A7
:1045A000000169462846FEF731FD0820CDE90004E8
:1045B000694628460294FEF729FD204D1E488027B3
:1045C00001C5102091C51D4845F810496C61AC61CA
:1045D000EC61FEF7A1FC20B140F22F1118A005F00C
:1045E00075FE35636E6214481C4D1438C5E900042D
:1045F000C5E902472C614FF440506C61C5E90640A3
:104600002846FEF789FC20B140F23F110CA005F0CE
:104610005DFE75630022052126206E62FEF788FE8E
:104620002620FEF779FEABE700380140001002407B
:10463000000801400044004080000240EC58002087
:104640002E2E2F5372632F73746D33326631787848
:104650005F68616C5F6D73702E63000030590020DD
:10466000F8B5044690F83A0020283CD1C1B3BAB35B
:1046700094F83800012836D0012084F83800A1626F
:10468000A2850025E563222084F83A00636B174871
:104690009862636B1648D862636B16481863606B48
:1046A000134645630846666B216802463046091D7D
:1046B000FEF774FC206801684168009184F8385066
:1046C000C16841F48071C1602068416941F0010115
:1046D00041612068416941F0400141610020F8BD1D
:1046E000FFE70120FBE70220F9E70000079D000833
:1046F000439D0008BD9C000890F83A30202B22D141
:10470000F9B1F2B190F83830012B1CD0816282856A
:10471000C2850021C163222280F83A2080F8381037
:104720000168CA6842F48072CA6001684A6942F04E
:1047300001024A610068C16841F02001C1600020A7
:1047400070470120704702207047000008B50068DC
:104750000F4988421BD10F480F49027843788B5488
:10476000521CD2B20270881810F8011C0A2908D114
:1047700010F8020C0D2804D108486946006808F0BA
:10478000C9FD04490122491C0548FFF7B5FF08BDD2
:10479000003801404C000020745900203C000020EB
:1047A0006C58002070472DE9F843044690F8390012
:1047B0001F4616460D46202850D1A5B19EB194F84B
:1047C000380001284AD0012084F838004FF0000852
:1047D000C4F83C80212084F83900FEF715FDA6843A
:1047E0008146E68426E00120BDE8F883E08C401E87
:1047F000E084A0684B46B0F5805F4FF000024FF0B8
:1048000080012046009703D005F03BFCE8B90DE09D
:1048100005F037FCC8B928882168C0F30800486053
:10482000206908B16D1C05E0AD1C03E0216815F896
:10483000010B4860E08C0028D8D14B460022402173
:104840002046009705F01DFC08B10320CCE720208E
:1048500084F8390084F838800020C5E70220C3E7D7
:1048600070B5044690F83900202830D169B362B39E
:1048700094F8380001282AD0012084F838002162F9
:10488000A284E2840025E563212084F83900236BAB
:1048900010489862236B1048D862236B0F48186346
:1048A000206B134645632668206B321DFEF776FBAE
:1048B00021686FF04000086084F838502068416932
:1048C00041F080014161002070BD012070BD0220D7
:1048D00070BD00004D9D00087B9D0008BD9C000838
:1048E0007047704701A005F0FDFCFBE7686172644A
:1048F0006661756C740D0A0070B51F4C05004FF0B1
:1049000000021DD002212046FEF779FC284604F063
:10491000EFF8002201212046FEF771FC0A2006F084
:10492000BFFA012202212046FEF769FC0A2006F0A8
:10493000B7FA002202212046BDE87040FEF75FBCB6
:104940004FF4004631462046FEF759FC284604F055
:10495000CFF8002240210948FEF751FC022006F062
:104960009FFA012231462046FEF749FC022006F05C
:1049700097FA00223146DEE7000C014000100140AA
:104980002DE9F04101002B48DFF8AC8086B04FF0F4
:1049900001044FF0020520D001291BD1816941F0AB
:1049A000080181618069694600F0080004900320D5
:1049B000CDE900044046CDE90245FEF727FB012280
:1049C00002214046FEF71BFC012211464FEA080077
:1049D000FEF715FC06B0BDE8F081816941F00401E5
:1049E0008161816901F004010491816941F008014C
:1049F00081618069002700F008000297CDE903502B
:104A00004FF40046CDE9006469464046FEF7FEFAE1
:104A1000402003958DE8910069460848FEF7F6FAB4
:104A2000002231464046FEF7EAFB002240210448BE
:104A3000CEE7000000100240000C014000080140D9
:104A40000010014070B51F4C05004FF000021DD052
:104A500002212046FEF7D3FB284604F049F8012244
:104A600011462046FEF7CBFB0A2006F019FA012278
:104A700002212046FEF7C3FB0A2006F011FA0022AD
:104A800002212046BDE87040FEF7B9BB4FF4004656
:104A900031462046FEF7B3FB284604F029F80122F0
:104AA00040210948FEF7ABFB022006F0F9F901228C
:104AB00031462046FEF7A3FB022006F0F1F9002262
:104AC0003146DEE7000C0140001001402DE9F047BF
:104AD000384D88465FEA00094FF0000434D003F0F7
:104AE000EBFF01220824002611462846FEF787FB2B
:104AF000002202212846FEF782FB0A2006F0D0F9A8
:104B00007006060E641EE4B2012202212846FEF75A
:104B100076FB0A2006F0C4F901212846FEF76AFB5D
:104B2000012840D006F0FE06002CE1D1002202212F
:104B30002846FEF764FBB8F1000F484636D0FFF771
:104B4000DBFE3046BDE8F08703F0B6FFDFF868A073
:104B500000264FF40047002239462846FEF74FFB57
:104B6000022006F09DF9012239462846FEF747FB50
:104B70006006040E40215046FEF73CFB08B1641C61
:104B8000E4B2012006F08CF9761CF6B2082EE2D3CE
:104B9000B8F1000F484603D0FFF7AEFE2046D1E73C
:104BA000FFF750FFFAE746F00106BDE7FFF74AFFBF
:104BB000C7E70000000C0140001001402DE9F04162
:104BC0002F4D0C4660B103F093FF002202212E46C8
:104BD0002846FEF714FB0025200631D5012230E0DF
:104BE00003F086FF4FF40047002239462846FEF7BF
:104BF00006FBDFF890800026200601D5012200E0A8
:104C0000002240214046FEF7FAFA6006040E022018
:104C100006F046F9012239462846FEF7F0FA02204E
:104C200006F03EF9002239462846FEF7E8FA02204F
:104C300006F036F9761CF6B2082EDDD3BDE8F08119
:104C4000002201213046FEF7DAFA6006040E082041
:104C500006F026F9012202213046FEF7D0FA08209C
:104C600006F01EF9002202213046FEF7C8FA08209D
:104C700006F016F96D1CEDB2082DADD3DEE700008D
:104C8000000C01400010014070B51E4CE8B103F06B
:104C90002FFF012211462046FEF7B1FA0122022120
:104CA0002046FEF7ACFA082006F0FAF800220121AF
:104CB0002046FEF7A4FA082006F0F2F800220221AE
:104CC0002046BDE87040FEF79ABA03F011FF0E4D82
:104CD000012240212846FEF792FA0122D6033146EE
:104CE0002046FEF78CFA042006F0DAF80022402174
:104CF0002846FEF784FA042006F0D2F80022314656
:104D0000DEE70000000C01400010014070B51E4CB1
:104D1000C0B103F0EDFE002201212046FEF76FFA3C
:104D2000082006F0BDF8012202212046FEF767FAAE
:104D3000082006F0B5F82046BDE870400122114673
:104D4000FEF75DBA03F0D4FE4FF400450022294679
:104D50002046FEF754FA0D4E002240213046FEF761
:104D60004EFA042006F09CF8012229462046FEF760
:104D700046FA012240213046FEF741FABDE8704074
:104D8000042006F08DB80000000C01400010014026
:104D90002DE9F041284D06004FF0000412D003F039
:104DA0008BFE012211462846FEF729FA0A2006F05A
:104DB00077F8012202212846FEF721FA0A2006F0A0
:104DC0006FF82CE003F078FE1C4F0122402138469A
:104DD000FEF715FA012006F063F84FF400480122AF
:104DE00041462846FEF70BFA012006F059F803E089
:104DF000641CE4B2FA2C0CD840213846FEF7FAF9CC
:104E00000028F5D10022414611E0641CE4B2FA2CDE
:104E100005D93046FFF77AFF0120BDE8F081012176
:104E20002846FEF7E7F90028EFD1002202212846A4
:104E3000FEF7E5F90020F0E7000C0140001001400A
:104E40001CB50446000A8DF800008DF804400122CC
:104E500069468A20FCF7F6FB012201A98B20FCF7AA
:104E6000F1FB014804801CBDAC12002008B50122F2
:104E700069468020FCF7AAFB9DF9000032306528C6
:104E80000CD305208DF80000012269468020FCF734
:104E9000D9FB012269468020FCF798FB9DF90000B0
:104EA000FBF7E5FC0249FBF7A4FC0249086008BDDA
:104EB00000002041EC1200207CB5124D010A0122B5
:104EC00068808DF800108DF8040069468220FCF798
:104ED000B9FB012201A98320FCF7B4FB0A4E002490
:104EE00004EB440006EB80016888CA88824204D93A
:104EF000C88020010C22FCF7A5FB641CE4B2082C3E
:104F0000EED37CBD90120020B45900201CB5094995
:104F100001228880010A8DF800108DF8040069468E
:104F20008420FCF78FFB012201A98520FCF78AFB76
:104F30001CBD0000901200202DE9F0410026012741
:104F40001A4D1DE000EB4001441C05F8214005EB23
:104F5000810117220A723B224A728A720E7119224B
:104F60008A701422CA70CE804F7020B92F7104232A
:104F70002B726E72AE7200010C22FCF763FBE0B282
:104F80000828DFD30A4D002404EB440005EB800120
:104F900020010C22FCF71AFB641CE4B2082CF3D3AA
:104FA000BDE8F0410C2103A005F09CB9145A002083
:104FB000B4590020777269746520616C6C20537459
:104FC00072617465677920737563636573732564B3
:104FD00021210D0A0000000001B501226946872049
:104FE000FCF730FB02499DF80000487008BD000046
:104FF0009012002000F040B82DE9F0410E4607461F
:10500000B024204605F096F8102005F093F8002013
:1050100005F090F80025384605F012F9304605F005
:105020000FF96D1CEDB2802DF5D3641CE4B2B82CE1
:10503000E7D3BDE8F08100000E4810B500784FF0CE
:1050400000030A284FF02D0208D04421B32001F0BC
:1050500021FB00232D225421B32007E06421B52039
:1050600001F018FB00232D227421B520BDE810406B
:1050700001F010BB5C00002070B50C460546002313
:105080000E221421B72001F005FB00230F2224215A
:10509000B72001F0FFFA002310223421B72001F0DD
:1050A000F9FA002311224421B72001F0F3FA00237A
:1050B0003A225421B72001F02BFB2146284600F06C
:1050C000BDF800232A225221B52001F0E3FA002383
:1050D00002221421B32001F0DDFABDE87040002364
:1050E00003222421B32001F0D5BA00002DE9F041BC
:1050F000444C454E4FF00108217819B93188618040
:1051000084F80080002509287AD2DFE800F0050C39
:1051100014793E7979795B00BDE8F0413949491C41
:10512000481CFFF767BF6078032802D2401C6070FC
:1051300041E065703FE060784FF4167130B10128AE
:1051400009D002280CD0032835D10CE060886430E7
:1051500003E060802FE060880A308842F9D92AE0B5
:105160006088401CF9E72749491C481C00F066F894
:1051700060883080FFF764FE01F0D0F940F2DC5027
:1051800006F02EFAFFF758FF15E0607820B10128ED
:1051900007D002280FD109E0608864280BD4643856
:1051A000D7E760880A2806D40A38D2E76088012841
:1051B00001D4401ECDE7BDE8F0411249491C481C0E
:1051C00000F03CB8114F3878072819D110A005F02D
:1051D00089F800210846FFF70FFF002000F0F2FBDE
:1051E0003088608025700220387012486570006831
:1051F00007F0FEFC104861684160656080F800803F
:10520000BDE8F081E4120020AC1200205C00002018
:105210006E6F775F70616765203D3D2044656C610E
:10522000795F496E7370656374696F6E5F706167F3
:10523000650D0A00640000204400002038B50C46CB
:105240000546302203216846FBF706F82A881FA18D
:10525000684605F057F8207868B300239DF80020D1
:105260003A21B52001F054FA2078012825D00023F6
:105270009DF801204221B52001F04AFA2078022849
:105280001DD000239DF802204A21B52001F040FAEC
:105290002078032815D0002302221421B32001F026
:1052A000F9F9207803280ED0002303222421B3200B
:1052B00001F0F0F938BD0123D0E70123D8E701233D
:1052C000E0E70123E8E70123EFE70000253033643E
:1052D0000000000010B50078042826D000242346E2
:1052E00035220421B72001F013FA23462E220C2187
:1052F000B72001F00DFA23460E221421B72001F049
:10530000C9F923460F222421B72001F0C3F923460F
:1053100010223421B72001F0BDF923461122442187
:10532000BDE81040B72001F0B5B90124D7E710B5AA
:105330000078032826D00024234634220421B120FB
:1053400001F0E6F923462E220C21B12001F0E0F90C
:1053500023460A221421B12001F09CF923460B2296
:105360002421B12001F096F923460C223421B120EA
:1053700001F090F923460D224421BDE81040B120F0
:1053800001F088B90124D7E770B50C460546002323
:105390000A221421B72001F07DF900230B222421D9
:1053A000B72001F077F900230C223421B72001F057
:1053B00071F900230D224421B72001F06BF900237D
:1053C0003A225421B72001F0A3F92146284600F0E3
:1053D000BDF800232F225421B52001F05BF90023F2
:1053E00002221421B32001F055F9BDE870400023DA
:1053F00003222421B32001F04DB900002DE9F0472C
:10540000424C8046DFF808916078424F012638B957
:1054100049463868FBF7BBF9FBF737FA207066702E
:105420003A480025B8F1090F80786CD2DFE808F01F
:10543000050C176B3C6B6B6B4600BDE8F0473349BE
:10544000891C881E01F0B7B838B1A570BDE8F047D7
:105450002E49891C881E00F079B8A670F6E7E8B1DD
:10546000012850D12949891C881E00F06FF894F951
:105470000000FBF7FCF94946FBF7BBF93860012255
:1054800022498020FCF7DEF801F048F840F2DC50B9
:1054900006F0A6F8BDE8F047FFF7CEBD94F900008E
:1054A000322830DA401C07E000282CD194F90000A3
:1054B00010F1320F27DD401E2070C7E7DFF858805B
:1054C00098F8000006281ED114A004F00BFF00215C
:1054D0000846FFF791FD002000F074FA494638684D
:1054E000FBF755F9FBF7D1F920706570022188F8B8
:1054F00000101448A570006807F07AFB1248616834
:10550000416065600670BDE8F0870000B4120020BD
:1055100000002041EC1200205C0000206E6F775FDD
:1055200070616765203D3D2048554D495F436F6D73
:1055300070656E736174696F6E5F706167650D0A87
:105540000000000064000020440000207CB50C46F0
:105550000546302205216846FAF77EFE95F90020BF
:10556000002A28DB39A1684604F0CCFE2078E0B19F
:105570005FF000039DF800202A21B52001F0C8F853
:105580002078A0B100232E223221B52001F0C0F8EE
:10559000207870B15FF000039DF801203A21B5201A
:1055A00001F0B6F8002320222AE00123E2E70123DC
:1055B000E9E70123F0E727A1684604F0A3FE20787D
:1055C000A8B300239DF800202A21B52001F0A0F8FF
:1055D000207868B35FF000039DF801203221B520E8
:1055E00001F096F8207840B300232E223A21B5200E
:1055F00001F08EF8207810B35FF000039DF80220D0
:105600004221B52001F084F82078012819D0002328
:1056100002221421B32001F03DF82078012812D095
:10562000002303222421B32001F034F87CBD00E0E4
:1056300001E00123C6E70123CEE70123D5E70123DB
:10564000DCE70123E4E70123EBE7000025303264C7
:1056500000000000253033640000000010B5007821
:10566000022826D00024234633220421B32001F04F
:105670004FF823462E220C21B32001F049F823468F
:1056800008221421B32001F005F823460922242121
:10569000B32000F0FFFF234604223421B32000F0A2
:1056A000F9FF234605224421BDE81040B32000F055
:1056B000F1BF0124D7E730B40A787AB1012A15D0B6
:1056C000022A20D0032A2BD102880A23B2FBF3F44A
:1056D00003FB1423092B20D2521C12E0028842F251
:1056E00028339A4219D202F57A720AE002884FF4FE
:1056F0007A73B2FBF3F403FB1423B3F5617F0CD28E
:105700006432028009E002886423B2FBF3F403FBF5
:1057100014235A2B01D20A32F3E730BC00F0C2B88E
:1057200030BC704770B50C46054600230822142192
:10573000B72000F0AFFF002309222421B72000F09A
:10574000A9FF002304223421B72000F0A3FF002387
:1057500005224421B72000F09DFF00233A22542166
:10576000B72000F0D5FF2146284600F09BF8002323
:105770002E225421B52000F08DFF00230222142197
:10578000B32000F087FFBDE87040002303222421EE
:10579000B32000F07FBF00002DE9F041344C354FBD
:1057A0004FF00108217819B93988618084F80080A8
:1057B000002509285AD2DFE800F0050C1A5934599F
:1057C00059593B00BDE8F0412949491C481C00F0EB
:1057D0005FBF6078042802D2401C607000E06570F2
:1057E000BDE8F0412249491C481C00F05BB86078D4
:1057F00004280FD11E49491C481C00F053F860884A
:10580000FFF75AFB00F08AFE40F2DC5005F0E8FE9C
:10581000FFF712FCBDE8F0411549491C481CFFF791
:105820004ABFBDE8F0411249491C481C00F096B837
:10583000114E3078052819D110A004F053FD002135
:105840000846FFF7D9FB002000F0BCF838886080DC
:1058500025700220307011486570006807F0C8F9A3
:105860000F4861684160656080F80080BDE8F081A4
:10587000BC120020921200205C0000206E6F775F47
:1058800070616765203D3D204D61785F526F757492
:10589000655F706167650D0A00000000640000200C
:1058A000440000203EB50C46054630220A216846D9
:1058B000FAF7D2FC2A8827A1684604F023FD207855
:1058C000B0B300239DF800202A21B52000F020FF6E
:1058D000207801282FD000239DF801203221B52007
:1058E00000F016FF2078022827D000239DF8022020
:1058F0003A21B52000F00CFF207803281FD00023A8
:105900009DF803204221B52000F002FF20780428F2
:1059100017D000280BD1002302221421B32000F05D
:10592000B9FE002303222421B32000F0B3FE3EBDC4
:10593000FFE70123C6E70123CEE70123D6E70123D2
:10594000DEE7012302221421B32000F0A3FE01238D
:10595000E8E70000253034640000000030B40A7825
:105960004FF47A7372B1012A12D0022A1AD0032A94
:1059700025D102880A23B2FBF3F403FB1423DBB125
:10598000521E0DE002889A4216D3A2F57A7207E001
:105990000288B2FBF3F403FB1423632B0CD9643AA3
:1059A000028009E002886423B2FBF3F403FB1423B2
:1059B000092B01D90A3AF3E730BCFFF773BF30BCBB
:1059C00070470000254910B50A78092845D2DFE85C
:1059D00000F0050D14441844444420001F4ABDE85B
:1059E0001040921C511E481E00F032BE1B49BDE8FB
:1059F0001040891C881EFCF7C7BB002A2DD001214E
:105A000002E0072A29D20221BDE81040134800F025
:105A100031B891F90200401C1FD100240C704C7069
:105A200021462046FFF7E8FA0D48007800F06AFFAB
:105A30000C480068007900F03DFF012000F0F0FE06
:105A400000F01AFF0848006807F0D2F80748012163
:105A5000017007490A6842600C6010BDAE12002058
:105A60009012002004130020600000204400002059
:105A7000640000202DE9F041044690F800C00620A3
:105A800005220423032502260127BCF1080F7DD23D
:105A9000DFE80CF004081827354D5F7602297ED127
:105AA000277005E002290BD0012978D10020207051
:105AB000204600F05BF92046BDE8F04100F0D6B882
:105AC000267004E002290AD0012968D127702046F7
:105AD00000F0CCF82046BDE8F041FFF7BFBD2570CF
