:020000040800F2
:1000000090B70020DD010008657200087941000802
:10001000057100089B160008D58F0008000000003D
:100020000000000000000000000000004501000882
:10003000D72100080000000089010008798A000823
:10004000F7010008F7010008F7010008F7010008B0
:10005000F7010008F7010008F7010008F7010008A0
:10006000F7010008F7010008F7010008F701000890
:10007000F7010008F7010008F7010008F701000880
:1000800095210008A1210008F7010008F7010008E8
:10009000F7010008F7010008F7010008F701000860
:1000A000F7010008F7010008F7010008F701000850
:1000B000F7010008F7010008F7010008F701000840
:1000C000F7010008F7010008F7010008A17800080F
:1000D000F7010008918F00089D8F0008F7010008C4
:1000E000F7010008F7010008F7010008F701000810
:1000F000F7010008F7010008F7010008F701000800
:10010000F7010008F7010008F7010008F7010008EF
:10011000F7010008F7010008F7010008F7010008DF
:10012000F7010008F7010008F7010008F7010008CF
:10013000DFF80CD000F08CFF00480047D1A4000885
:1001400090B70020224B19680868B0E8F00F80F3E0
:100150000988BFF36F8F4FF0000080F311884EF0D5
:100160000D0E70470000000006480068006880F32C
:10017000088862B661B6BFF34F8FBFF36F8F00DFA1
:1001800000BF00BF08ED00E0EFF30980BFF36F8F01
:100190000F4B1A6820E9F00F106008B54FF05000BF
:1001A00080F31188BFF34F8FBFF36F8F0BF03EFECC
:1001B0004FF0000080F31188BDE808401968086816
:1001C000B0E8F00F80F30988BFF36F8F704700BF6E
:1001D00098000020EFF30580704700000648804734
:1001E00006480047FEE7FEE7FEE7FEE7FEE7FEE71C
:1001F000FEE7FEE7FEE7FEE7218B0008310100087D
:10020000202A04DB203A21FA02F00021704721FA6B
:1002100002F3D040C2F120029140084319467047D2
:10022000A0F14101192900D82030704700487047DB
:1002300018CB000840EA01039B0703D009E008C976
:10024000121F08C0042AFAD203E011F8013B00F89B
:10025000013B521EF9D27047D2B201E000F8012BE7
:10026000491EFBD270470022F6E710B513460A4636
:1002700004461946FFF7F0FF204610BD30B505468D
:100280002A460B4612F8010B13F8014B08B1A042A5
:10029000F8D01CB1002802D06D1CF1E7284630BD13
:1002A00010B5044604E00B7800F8013B03B1491C8B
:1002B000521EF8D2204610BD421C10F8011B002926
:1002C000FBD1801A704710B5002200E0521C835CFD
:1002D0008C5CA34201D1002BF8D1D8B2E1B2401A14
:1002E00010BD034611F8012B00F8012B002AF9D1AB
:1002F0001846704730B505460020034600E05B1CF9
:10030000934205D2EC5CC85C201A01D1002CF6D1D6
:1003100030BD00000FB400B58DB010A909900B904E
:1003200000914FF0FF300A9000200C900548069095
:10033000054807906A4609A80F9900F079FB0DB0AF
:100340005DF814FB4D0A00086B0A00082DE9FF4F09
:10035000087883B09946FF2805D0491C2D2804D081
:100360000024002008E000200BE00124F9E700EB66
:10037000800003EB4000491C0B78FF2BF7D104B140
:10038000404200230293147819461D462D2C01D0BB
:100390002B2C04D1521C2D2C13D000240294AA46DD
:1003A0001478FF2C0FD00A25A3FB057801FB0581EB
:1003B0004FF0000C03FB0C11521CE3194AEB010136
:1003C000EEE70124EAE7814453EA010002D019F57F
:1003D000C87F06DA03980021C0E9001107B0BDE824
:1003E000F08F0025AE4E2F46DFF8B882184600F099
:1003F000EFFDCDE90001B9F1000002DAC9F1000416
:1004000000E004460023A74A1AEB030B42EB045A10
:1004100012E0E00707D02A4633463846414600F04E
:10042000F6FC074688462A4633461046194600F031
:10043000EEFC05460E466410002CEAD1DDE9000111
:10044000B9F1000F5A46534606DA00F052FD3A461B
:10045000434600F04EFD05E000F0D9FC3A46434625
:1004600000F0D5FC029A0AB181F00041039AC2E97A
:100470000001B3E72DE9FF4F1F468DB0D7E90146D4
:100480004FF0FF382E2045464FF000090B90B96918
:100490006D1C0E988847396A824688470028F6D135
:1004A000BAF1FF3F0AD024F4D064002E11DDBAF176
:1004B0002B0F08D0BAF12D0F0BD102E0404611B03E
:1004C0008DE744F48064B9696D1C0E9888478246B4
:1004D000761E6946600501D52D2000E02B208DF8A1
:1004E000000001F1010B0DF1200809E0B9696D1C54
:1004F0000E98884782460F9844F40074761E056073
:10050000002E02DDBAF1300FF0D00B998A453ED1B2
:1005100044F0800406E00F99681CA9F1010944F435
:1005200000740860B9696D1C761E0E988847824673
:100530003028F0D02BE00B998A4505D1200603D452
:1005400044F08004761E18E0504608F029FF08B3F6
:100550000DF11301761E44F400748B4508D2AAF104
:1005600030000BF8010B200607D5A9F1010003E0CC
:10057000200602D409F101008146A00502D50F9999
:10058000681C0860B9696D1C0E9888478246002E69
:10059000D1DC53E0002E51DDBAF1650F02D0BAF183
:1005A000450F4BD1A00549D5B9696D1C24F44074A1
:1005B000761E0E9888478246002E0CDD2B2804D02C
:1005C000BAF12D0F07D144F48074B9696D1C0E98EF
:1005D00088478246761EE00501D52D2100E02B21BB
:1005E00008F8011BCDF82C8021E00DF12901761EC1
:1005F00044F4007488450CD2AAF1300010F0FF00DA
:1006000088F8000002D10B99884509D908F1010842
:1006100006E0E00501D5244801E042F20F70814672
:10062000B9696D1C0E98884782460F980560002EA8
:1006300004DD504608F0B4FE0028D6D1F9690E98C2
:100640008847FF208BF8000088F800000020069003
:1006500007904B466A4608A906A8FFF777FEA00553
:1006600002D46FF001002AE714F0240F0AD0E0074B
:1006700014D1DDE906123868031D3B600068C0E94B
:1006800000120BE0DDE9060100F0C6FC0146E007C0
:1006900004D13868021D3A600068016028460EE700
:1006A000000014400000F03FF1D8FFFF70B506468F
:1006B00008F0A0FD046805460A220021304600F03B
:1006C00033FA2C6070BDF0B480EA0102D40F42000E
:1006D000B2EB410F02D20246084611464A0042D010
:1006E000C30DDDB2C1F3C752AD1A202D35DAC1F307
:1006F000160141F4000204B15242C5F1200602FA8B
:1007000006F12A411044B3EBD05F23D0C4B1012DD0
:10071000A0EBC35009DCF0BC4FF0004202EAC35228
:10072000DBB200F5000000F040BA400000F180703C
:1007300000EBC350A0F1807040EAD170490009E09D
:10074000490841EAC071A0EBC35000F50000400821
:1007500000EBC350F0BC00F01FBA6142012202EB73
:100760004101001BF6E7F0BC704781F00041AAE7A9
:1007700080F00040A7E780EA010210B502F00043D4
:10078000400022D04A001FD0010E01EB1261C0F3DD
:100790005600C2F3560240F4000042F40002A0FBEF
:1007A000022000047F39140400D0401C50EA12409B
:1007B00001D44000491EC2B20C0604EBD010401C0C
:1007C0004008802A02D003E0002010BD20F0010084
:1007D000002900DA0020184310BD30B480EA01027D
:1007E00002F0004530F0004221F0004013D090B1FB
:1007F000C30DD40DC2F31601C0F31600E41A41F480
:10080000000140F400027D34914201D3641C00E0F9
:100810004900002C02DA30BC002070474FF4000081
:100820000023914201D3891A034340084FEA410152
:10083000F7D151B1914202D14FF0004105E002D20F
:100840004FF0010101E06FF0010103EBC4502844B7
:1008500030BC00F0A1B9C10F80EAE0700844CA07BB
:100860009623002100F0A1B996230022114600F042
:100870009CB900F0004220F00040C10DC0F316000A
:1008800040F400007F2901DA00207047962903DC3C
:10089000C1F19601C84001E096398840002AF4D0A1
:1008A0004042704720F00040C10DC0F3160040F4F4
:1008B00000007F2901DA00207047962903DCC1F18E
:1008C0009601C840704796398840704770B5C1F3AB
:1008D0000A5201F000450024C1F3130140F2FF3336
:1008E00041F480119A4201DA002070BD40F2334396
:1008F0009A42A2F2334203DC5242FFF781FC00E04D
:1009000090402C43F1D0404270BD000030B5041E31
:1009100071F1000404DB4FF00044404264EB01013C
:10092000141E73F1000405DB1C464FF000435242D5
:1009300063EB04038B4208BF824230BD30B5041E16
:1009400071F1000404DB4FF00044404264EB01010C
:10095000141E73F1000405DB1C464FF000435242A5
:1009600063EB0403994208BF904230BD002801DBCD
:10097000C0F10040002901DBC1F100418142704714
:10098000002801DBC0F10040002901DBC1F100417A
:100990008842704730B50B460146002020220124D2
:1009A00009E021FA02F59D4205D303FA02F5491B3D
:1009B00004FA02F52844151EA2F10102F1DC30BD53
:1009C0002DE9F05F0546002092469B468846064684
:1009D000814640241BE02846414647462246FFF711
:1009E0000FFC53465A46C01A914110D3114618467F
:1009F000224600F03FFB2D1A67EB01084F462246C6
:100A00000120002100F036FB17EB00094E41201EAB
:100A1000A4F10104DFDC484631462A464346BDE8DE
:100A2000F09F000002681144137801601846704777
:100A3000D1600449516104491162002111611146DC
:100A400000F048BB250A0008C1100008426842B106
:100A5000016811F8013B23B1521EC0E9001218468B
:100A600070470121C160881E704742685AB1C3684F
:100A7000016843B983688B4205D0491E521CC0E906
:100A80000012002070474FF0FF3070470FB4002372
:100A900000B589B00CA900910B996FF00042CB60B2
:100AA0001E4B06931E4B07930423CDE901321D4ACA
:100AB000089202466B460020FFF7DCFC09B05DF8A7
:100AC00014FB70B586B006464FF0FF300091CDE9BB
:100AD0000101002015460C4604903246694604A8E0
:100AE000FFF7D4FF02460498211825B108B1084643
:100AF00000E020462860049800280DD0002A02DD7E
:100B00000098884208D0081B0094CDE901043246C1
:100B1000694604A8FFF7BAFF06B070BD4D0A000889
:100B20006B0A0008C11000082DE9F04791460F46F6
:100B300080460446002614F8015B2DB100F0BCFA93
:100B40000068405DC007F6D12B2D02D02D2D18D0A6
:100B5000641E4A463946204600F052FC27B13968E7
:100B6000A14201D1C7F8008071054FF002040BD5F6
:100B70004042002803DD08F03DFB0460A007BDE80B
:100B8000F08746F48066E4E70028F8DA08F032FBE4
:100B900004606FF00040F2E70029A8BF7047401CD6
:100BA000490008BF20F00100704710B4B0FA80FC83
:100BB00000FA0CF050EA010404BF10BC704749B1C0
:100BC000CCF1200421FA04F411FA0CF118BF012130
:100BD00021430843A3EB0C01CB1D4FEA00614FEA10
:100BE000102042BF002010BC704700EBC3501044DF
:100BF0000029A4BF10BC7047401C490008BF20F06A
:100C0000010010BC704710B5141E73F1000408DA1F
:100C1000401C41F1000192185B411A4301D120F0C0
:100C2000010010BD2DE9F04D92469B4611B1B1FA7D
:100C300081F202E0B0FA80F22032904600F01AFA17
:100C400004460F4640EA0A0041EA0B0153465A4661
:100C5000084313D0114653EA010019D0C8F14002ED
:100C60005046FFF7CDFA05460E46504659464246D5
:100C700000F000FA084305D0012004E02046394680
:100C8000BDE8F08D0020054346EAE0762C4337436B
:100C90000A986305E40AA0EB08000022FD0A44EA72
:100CA00047540A3002D500200146E9E70105101932
:100CB0006941DDE9084500196941BDE8F04DA2E749
:100CC0002DE9FE4F804681EA0300C00F0C460090DC
:100CD00021F0004123F00045B8EB0200A94105D204
:100CE0004046214690461C460B46024623F00040F3
:100CF000104347D0270DC7F30A00C3F30A510290EF
:100D0000401A019040286BDAC3F3130040F4801BB3
:100D10000098924620B10023D2EB030A63EB0B0B41
:100D200001985946C0F14002504600F0A3F906462A
:100D30000D4650465946019A00F0ABF910EB0800F9
:100D40006141002487EA115284EAE7731A4340D0D4
:100D5000009A62B3019A012A4FEA075215DC001B80
:100D600061EB02014FF0004202EA0752CDE9004276
:100D7000001C41F5801132462B46FFF753FF03B0AC
:100D8000BDE8F08F40462146F9E7001B61EB020108
:100D9000001C41F5801300185B412018A2F50017D4
:100DA00047EB030140EAD570B6196D4111E06D08BB
:100DB0004FEA360645EAC0754FEA0752001B61EB61
:100DC0000201001C41F5801149084FEA300000196A
:100DD000514132462B4603B0BDE8F04FFFF713BF39
:100DE0000098012240000023D0EB020263EBE07385
:100DF000009821464FEAE074B8EB000061EB040173
:100E0000E9E783F000435BE781F0004158E72DE913
:100E1000FE4F81EA030404F0004421F000410094F5
:100E20004FF0000B23F0004350EA01045ED052EA79
:100E300003045BD0C3F30A54C1F30A552C44A4F253
:100E4000F3340194A0FB0254C1F3130141F4801167
:100E5000C3F3130343F4801301FB024400FB034E6E
:100E6000840A970A44EA815447EA8357A4FB076837
:100E700002958D0A05FB07854FEA932C04FB0C5461
:100E80002705029D4FEA065847EA1637B5EB0805D5
:100E90006EEB070C870E920E47EA811742EA831227
:100EA000A7FB0201B6EB0B0164EB00042B0D43EA38
:100EB0000C335E1844EB1C50DA465146E7FB020146
:100EC000C5F313044FEA0B3343EA14534FEA0432D9
:100ED000019C43EA0603A4F10C040294009CCDE9B2
:100EE00000B4FFF79FFE03B0BDE8F08F002001467D
:100EF000F9E72DE9F04D81EA030404F0004B21F0FD
:100F0000004514464FF0000A23F0004150EA050264
:100F100020D054EA01021DD0C5F30A570246C5F39A
:100F20001303C1F31300C1F30A5640F4801543F4D0
:100F30008013A7EB0608101BD64608F2FD3873EBAA
:100F4000050002D308F1010801E092185B41B8F1F5
:100F5000000F03DA00200146BDE8F08D00204FF4B9
:100F60008011064684460EE0171B73EB050705D378
:100F7000121B63EB050306434CEA010C49084FEAD8
:100F8000300092185B4150EA0107EDD152EA0300AC
:100F900012D082EA040083EA0501084305D0101B41
:100FA000AB4106D20122002306E000224FF00043AD
:100FB00002E06FF0010253101AEB06004CEB0851EF
:100FC00010EB0A0041EB0B01BDE8F04DFFF71BBE33
:100FD0000EB540F2334202920022CDE900221346C0
:100FE000FFF720FE03B000BDC1F30A52C1F31301A5
:100FF00040F2FF3341F480119A4202DA00200146A8
:10100000704740F233439A42A2F2334202DC52422A
:10101000FFF7F6B800F02EB801F0004330B421F02D
:10102000004150EA010206D00A0DA2F56072C1F338
:101030001301002A02DC30BC00207047440F44EA50
:10104000C104C100E01830BC00EBC250FFF7A4BDE2
:10105000064C074D06E0E06840F0010394E8070005
:1010600098471034AC42F6D3FFF766F824CE000858
:1010700044CE0008202A04DB203A00FA02F10020C6
:1010800070479140C2F1200320FA03F319439040C6
:101090007047202A06DBCB17203A41FA02F043EAD8
:1010A000E07306E041FA02F3D040C2F12002914021
:1010B000084319467047000000487047D4CB000829
:1010C00010B50446FFF7F8FF0068005D00F001006E
:1010D00010BD00002DE9F34F8BB04FF0000801F177
:1010E0000C000C464FF0010B46460DF1080A01902A
:1010F0006269012101989047051E2DD0252D2CD025
:10110000216A8847C0B16269012101989047216A2C
:1011100088470028F7D1411E62690198904700E096
:10112000761CA1690B988847216A88470028F7D167
:10113000E1690B988847DBE7A1690B988847074668
:10114000A84201D1761CD3E7E1690B9888477F1C40
:1011500002D1B8F1000F6FD046E1002762693D4629
:101160003946019890472A2804D1626901210198E3
:1011700090470125DFF88492626901210198904728
:10118000A0F130010A290AD24F45E5DC07EB8701BF
:1011900000EB4107303FDFD445F01005ECE7E906EE
:1011A00001D46FF000476C280AD04C2814D068286E
:1011B00015D06A280DD074281CD07A281AD01DE0CA
:1011C00062690121019890476C2802D045F004051E
:1011D00014E045F002050DE045F020050AE06269E3
:1011E000012101989047682802D045F0080505E0E4
:1011F00045F400656269012101989047C4E90157EF
:1012000065283DD019DC58287AD00CDC452837D029
:1012100004DC252826D0412831D131E046282FD0C2
:1012200047282CD12CE05B2877D0612828D0632870
:101230007CD0642823D15AE0D0E06F2848D008DC65
:1012400066281DD067281BD0692821D06E2816D1AA
:1012500027E0702845D0732868D0752847D07828B3
:101260000DD14DE0A1690B988847054625283FF42C
:1012700069AFE1690B9888476D1C3FF46AAFB3E032
:1012800023466A466FF001000B99FFF7F3F89EE0E2
:1012900045F040006060A80723464FF0000236D4B6
:1012A0003EE0E8077FF447AF2068011D2160006839
:1012B000290501D506701BE7290701D5068017E728
:1012C000A90703D5F117C0E9006111E706600FE730
:1012D00045F040006060A80723464FF0080216D48E
:1012E0001EE040F60E0125EA0100606016E045F0C0
:1012F00040006060A80723464FF00A0207D40FE0C1
:1013000045F040006060A80708D5234610226FF022
:1013100001000B99AFF3008059E007E0234610224B
:101320006FF001000B99AFF3008050E04FF000091F
:101330004F464B46632802D05B2806D040E0E806C3
:1013400001D40120A06001273AE0626901210198DF
:1013500090475E2805D14FF001096269494601981E
:101360009047216939B900210A46534643F82120A4
:10137000491C0829FADBB0B3216969B9C11700EB30
:10138000D16253110AEB830122F01F02821A01205D
:101390000B68904003430B606269012101989047FC
:1013A0005D28E8D1B9F1000F09D00020514651F86D
:1013B0002020D24341F82020401C0828F7DB02AB54
:1013C000224600976FF001000B99AFF300800028D0
:1013D0000CDA401C08D1BBF1000F05D04FF0FF30F4
:1013E0000DB0BDE8F08FFFE74046F9E7E90701D10E
:1013F00008F1010806444FF0000B79E6CCCCCC0C88
:101400002DE9F05F82460078002715468B460AF1E9
:101410000104B946302801D09DB113E014F8010B46
:101420000127782803D0582801D045B10AE00DB132
:10143000102D07D10027102514F8010B02E0082514
:1014400000E00A250026B0460EE005FB080005FB7B
:1014500006F1012701EB10461FFA80F8B6F5803F30
:1014600000D3B94614F8010B294600F018F80028FB
:10147000EBDABBF1000F05D00FB1641E00E054465B
:10148000CBF80040B9F1000F06D007F0B3FE0221FF
:101490000160C81EBDE8F09F48EA0640FAE73A2816
:1014A00000D2303820F02002412A01D3A2F13700C7
:1014B000884201D34FF0FF30704770B58C1810F898
:1014C000015B15F0070301D110F8013B2A1106D189
:1014D00010F8012B03E010F8016B01F8016B5B1EA3
:1014E000F9D12B0705D40023521E0DD401F8013B7E
:1014F000FAE710F8013BCB1A921C03E013F8015BEA
:1015000001F8015B521EF9D5A142D8D3002070BD6D
:101510002DE9F041244F0D4606460122114638467A
:1015200001F08FFC01220221384601F08AFC00F014
:1015300031FD1E480024047007F04DFD1B490322B5
:10154000491CB82007F0A0FD032009F0C7F80822C5
:101550001749B82005F0A2FF01221146384601F0D4
:1015600070FC01220221384601F06BFC0821104872
:1015700000F0CFF990B10E4C6079217900EB012099
:10158000FFF772F93060E078A17800EB01200A21C2
:10159000B0FBF1F0FFF768F9286001E034602C60DF
:1015A0004FF07E50BDE8F081000C01409813002000
:1015B000B8AC002070B514460D46064608E030462B
:1015C000711C8EB200F007F8641E05F8010BA4B27E
:1015D000002CF4D170BD10B50446002002F09EFF2F
:1015E000200AA02101EB4000C1B2002002F030FF30
:1015F000002003F017F8E1B2002002F029FF0020DC
:1016000003F010F8002002F089FFA121002002F071
:101610001FFF002003F006F80021084602F0A0FE9C
:101620000446002002F0BCFF204610BD70B51646EF
:101630000C46054606E02178284600F007F86D1CA8
:10164000ADB2641C761EB6B2F5D270BD70B504465C
:101650000D46002002F062FF200AA02101EB4000AD
:10166000C1B2002002F0F4FE002002F0DBFFE1B284
:10167000002002F0EDFE002002F0D4FF29460020F9
:1016800002F0E6FE002002F0CDFF002002F088FF0D
:10169000BDE870400A2009F021B8FEE708B5474CC4
:1016A0004FF0FF3529462B466A4600200AF0B0FF6E
:1016B0000128F7D10098C0B210285BD024DC0128A3
:1016C00032D002283CD0042848D00828EAD13CA0D7
:1016D00007F06CFD4FF4A0413CA007F067FD0AF055
:1016E000D3FB01463FA007F061FD00F0D1F8206870
:1016F0000028D7D0002303225FF008010AF0B0FED3
:101700000028CFD13BA043E0202844D040284BD034
:101710008028C7D13EA007F049FD00F0CDF8002396
:10172000032280212068E9E73DA007F03FFD00F09B
:10173000AFF820680028B5D00023032201210AE079
:101740003AA007F033FD00F0A3F820680028A9D0E4
:101750000023032202210AF083FEA3E736A007F04C
:1017600025FD00F095F8206800289BD00023032277
:101770000421F0E733A007F019FD00F09DF80023E5
:101780000322102120680AF06BFE00288AD131A0C4
:1017900007F00CFD86E736A007F008FD00F08CF896
:1017A000002303222021BDE735A007F0FFFC00F055
:1017B00083F8002303224021B4E700001400002036
:1017C000C8A1CFFBB0B4BCFC0D0A0000544F54417B
:1017D0004C5F484541505F53495A45203D202564A0
:1017E0000D0A0000CAA3CFC2486561703D20256480
:1017F0000D0A0000322073656E64206B65792076D7
:10180000616C75652066616C73650D0A00000000EF
:10181000C8A1CFFBB0B4BCFCB3A4B0B40D0A0000A7
:10182000B9A6C4DCB0B4BCFC0D0A0000CFF2C9CF2D
:10183000B0B4BCFC0D0A0000CFF2CFC2B0B4BCFC07
:101840000D0A0000D1A1D4F1B0B4BCFCB3A4B0B473
:101850000D0A0000312073656E64206B6579207677
:10186000616C75652066616C73650D0A000000008F
:10187000CFF2C9CFB0B4BCFCB3A4B0B40D0A000021
:10188000CFF2CFC2B0B4BCFCB3A4B0B40D0A000018
:1018900010B5084C01220821204601F0D2FA96200A
:1018A00008F01CFF20460022BDE81040082101F08E
:1018B000C8BA0000000C014010B5084C01220821F4
:1018C000204601F0BEFA4FF4967008F007FF20465C
:1018D0000022BDE81040082101F0B3BA000C01401D
:1018E00030B503464FF6FF704AF201040DE000BF29
:1018F00013F8012B50400022C5074FEA500000D0DA
:101900006040521CD2B2082AF6D3491EC9B2EFD2A7
:1019100030BD30B505460C46881EC1B22846FFF7DB
:10192000DFFF291911F8012CB2EB102F06D111F8A5
:10193000021CC0B2814201D1FF2030BD002030BD69
:1019400010B5322218499020FFF734FE164800F0F7
:101950009DF9154A0319501C00F02AF9C418901C6F
:1019600000F056FA044410480C3000F029F9044401
:101970000D48163000F0B2F804440B48203000F057
:101980001FF804440848283000F0D6F9204410F02D
:10199000FF0F07D005A007F009FC32220249902072
:1019A000FFF744FE002010BDC7AC002077726974B9
:1019B0006520626F6172645F696E666F0D0A000078
:1019C0002DE9FE430446006800906068019020897C
:1019D000ADF808000621684600F086FA401C02D0E7
:1019E0000020BDE8FE831E4F1E4E4FF0FF3800253D
:1019F0001DA007F0DBFB01222249234802F0C6FAB2
:101A000000234246194638680AF0D0FA012821D14D
:101A100006211E4800F068FA81461C48FEF74CFC7F
:101A20000C2812D8B9F1FF3F0FD0062217492046E3
:101A3000FEF736FC214616A007F0B8FB40211348FC
:101A4000FEF711FC35700120CBE740210F48FEF76F
:101A50000AFC357001220B490B4802F097FAC7E7E0
:101A60001C0000206C000020CAE4C8EBC9FAB2FADE
:101A7000C8D5C6DA5C725C6EBDE1CEB2A3BA0D0AFF
:101A8000000000006D000020B4140020BC5A0020AB
:101A900025730D0A000000001CB500208DF8000021
:101AA0008DF80400012269468A20FFF783FD012298
:101AB00001A98B20FFF77EFD9DF804009DF8001022
:101AC00040EA0120B0F5167F03D9002002F002FEA3
:101AD0001CBD014908801CBD2C1300202DE9FE43CC
:101AE000044600680090606801902089ADF8080005
:101AF0000921684600F0F8F9401C02D00020BDE83A
:101B0000FE831E4F1E4E4FF0FF3800251DA007F02C
:101B10004DFB01222149224802F038FA00234246B7
:101B2000194638680AF042FA012821D109211D48D6
:101B300000F0DAF981461B48FEF7BEFB0C2812D8EC
:101B4000B9F1FF3F0FD0092216492046FEF7A8FB46
:101B5000214615A007F02AFB40211248FEF783FB1F
:101B600035700120CBE740210E48FEF77CFB357035
:101B700001220A490A4802F009FAC7E71C000020BE
:101B80006C000020CAE4C8EBC9E8B1B849445C72F3
:101B90005C6EBDE1CEB2A3BA0D0A00006D0000205C
:101BA000B4140020BC5A002025730D0A0000000068
:101BB0000178012901D00121017000207047000047
:101BC0002DE9FE430168009141680191804600893A
:101BD000ADF808001EA16846FEF750FB10B10020CA
:101BE000BDE8FE831B4E1C4F1C4C4FF0FF390025F7
:101BF0001BA007F0DBFA01222249234802F0C6F9B4
:101C000000234A46194630680AF0D0F901280CD161
:101C10001148FEF751FB0A2802D2387856280AD01C
:101C200040210D48FEF71FFB25700122154916487B
:101C300002F0ACF9DCE7227807494046921EFEF735
:101C40002FFB40210448FEF70EFB25700120C7E75B
:101C5000560000001C000020BC5A00206C00002030
:101C6000CAE4C8EBD3B2BCFEB0E6B1BE5C725C6E37
:101C7000BDE1CEB2B8F1CABD2856312E7829A3BA3B
:101C80000D0A00006D000020B41400207FB58025EF
:101C9000002001240095CDE901040A4E6946304632
:101CA00000F0D6FF8021304601F0C6F80220CDE9D1
:101CB0000240CDE900546946304600F0C9FF04B047
:101CC000002070BD001001401FB50122694682202E
:101CD000FFF770FC012201A98320FFF76BFC9DF840
:101CE00004009DF80010134C40EA012042F20671F6
:101CF00060800A38884202D30A2002F027FD0122C0
:101D000002A98420FFF756FC012203A98520FFF7D2
:101D100051FC9DF80C009DF8081040EA012000B22B
:101D200042F20F71A080884202DD002002F038FDEF
:101D30001FBD0000101300202DE9FE43044600687B
:101D40000090606801902089ADF80800082168467D
:101D500000F0CAF8401C02D00020BDE8FE831E4FF0
:101D60001E4E4FF0FF3800251DA007F01FFA01227C
:101D70002249234802F00AF90023424619463868EE
:101D80000AF014F9012821D108211E4800F0ACF80E
:101D900081461C48FEF790FA0C2812D8B9F1FF3F93
:101DA0000FD0082217492046FEF77AFA214616A0DE
:101DB00007F0FCF940211348FEF755FA3570012071
:101DC000CBE740210F48FEF74EFA357001220B4950
:101DD0000B4802F0DBF8C7E71C0000206C00002075
:101DE000CAE4C8EBC1F7CBAEBAC538CEBB5C725CF7
:101DF0006EBDE1CEB2A3BA0D0A0000006D00002056
:101E0000B4140020BC5A002025730D0A0000000005
:101E10002DE9FE43016800914168019180460089E7
:101E2000ADF8080020A16846FEF728FA10B100209E
:101E3000BDE8FE831D4E1E4F1E4C4FF0FF3900259E
:101E40001DA007F0B3F901222449254802F09EF8AD
:101E500000234A46194630680AF0A8F801280CD138
:101E60001348FEF729FA0A2802D2387856280AD0F1
:101E700040210F48FEF7F7F925700122174918484D
:101E800002F084F8DCE7227809494046921EFEF70A
:101E900007FA074913A007F089F940210448FEF723
:101EA000E2F925700120C3E7560000001C00002065
:101EB000BC5A00206C000020CAE4C8EBC8EDBCFE90
:101EC000B0E6B1BE5C725C6EBDE1CEB2B8F1CABD27
:101ED0002856312E7829A3BA0D0A00006D00002083
:101EE000B4140020257300000246002008E0135CB3
:101EF000303B092B02D94FF0FF307047401C40B2F5
:101F00008842F4DB7047000070B598B000246D463D
:101F100004EB440605EB860120010C22FFF74AFB87
:101F200015F82600641CA04204D0002002F04EFCEC
:101F300018B070BDE4B2082CEAD30A4D002400BFEB
:101F400004EB440005EB800120010C22FFF732FB7B
:101F5000641CE4B2082CF3D3602202490248FEF765
:101F600069F9E5E7F8AB002058AC002008B501227C
:101F700069468720FFF71EFB9DF80000C11E6229FD
:101F800003D3032002F072FC08BD0149487008BD6C
:101F9000101300200020034902460A54401C0F2859
:101FA000FBDB7047B8AC002030B587B0244D254C22
:101FB00016E025A007F0FAF800231A46194628680B
:101FC0000AF0EEF809F09AFC1422274901A8FEF75E
:101FD00031F9002101A808F097FB206009F0AEFC60
:101FE00022A123A000F02EFB0028E2D007F0BEFFC4
:101FF0000146234805F08EFE42F210736A464FF008
:10200000FF3100200AF004FB04461EA12048FEF721
:102010005AF9C5B24FF47A7008F060FB1DA007F0C2
:10202000C5F805F0E7FB4CB1012C05D10098032859
:1020300002D1002D00D1012007B030BD0020FBE708
:102040008813002094130020436F6E6E6563745FE5
:102050004F6E654E65742043495053454E4420727F
:10206000657365740D0A000004CB00083E00000093
:1020700041542B43495053454E440D0A0000000083
:1020800090AF00200D0A53454E44204F4B0D0A00DF
:10209000C8130020436F6E6E6563745F4F6E654EAC
:1020A0006574206F6B0D0A002DE9F0418046002712
:1020B0004FF480613648FEF7D6F8354C0126A4F17E
:1020C000940090F8780020704046FEF7F5F8A4F1EF
:1020D0001C05083000F07F01C009002802D000BFB5
:1020E00041F0800105EB070207F101075170FFB2D3
:1020F000F0D14FF0000009E005EB000100F1010014
:102100004978A15506F10106F6B2C0B2B842F3D340
:102110004046FEF7D1F8A882E988080AA055761C47
:10212000F0B22154401CC6B2194814380746FEF7D5
:10213000C3F80246A0193946FEF77CF83846FEF788
:10214000BBF8134A3044143AC0B2927A2254401C6D
:10215000A98AC0B20A0A2254401CC0B22154401CB1
:10216000C6B24046FEF7A8F80246A0194146FEF75F
:1021700061F84046FEF7A0F83044C0B21A2121545D
:10218000401CC4B2A86907F02DFD2046BDE8F081CF
:1021900090AF0020014800F0BDBB00007815002082
:1021A000014800F0B7BB00003415002030B590F8AE
:1021B00040500124AC40C56B6C60046863604368A8
:1021C000102B036803D099600068C26030BD9A602C
:1021D0000068C16030BD704770B50078424C434D17
:1021E00086B0072829D2DFE800F004142A3B4C5DB2
:1021F0006E003F4E306800281FD114223D496846CA
:10220000FEF718F80021684608F07EFA30600320D7
:102210000FE0394E306800280FD1364914221431AE
:102220006846FEF707F80021684608F06DFA30604E
:1022300004202070286809F099FD06B070BD2F4E6B
:1022400030680028F9D12B49142228316846FDF75F
:10225000F1FF0021684608F057FA30600520E8E7F2
:10226000274E30680028E8D1224914223C316846C4
:10227000FDF7E0FF0021684608F046FA30600620CE
:10228000D7E7204E30680028D7D11A4914225031A0
:102290006846FDF7CFFF0021684608F035FA306048
:1022A0000720C6E7184E30680028C6D1114914220D
:1022B00064316846FDF7BEFF0021684608F024FA45
:1022C00030600820B5E7114E30680028B5D10949C3
:1022D000142278316846FDF7ADFF0021684608F00A
:1022E00013FA30600920A4E7DC000020E40000209D
:1022F00028130020D8C900084413002040130020F0
:1023000038130020681300205813002060130020A9
:1023100070B51B4D4FF40071284600F08DFD04464A
:10232000A915284600F088FD1649097801EB4102FD
:10233000154901EB820131F8062C1449B1F900105E
:102340008A4203DA012C01D1012804D08A4208DD37
:10235000012C04D005E0BDE8704004F005BF012861
:1023600008D08A420AD10CB1002807D1BDE87040DC
:1023700004F02CBFBDE8704004F0C6BE70BD000084
:102380000010014010130020F8AB002014130020AF
:102390002DE9F84F06460878DDF828801D461446DA
:1023A0000F4650B9207861780844A178C0EB00103E
:1023B00001EB8000306001203870207861784C4A51
:1023C0000844A178C0EB001001EB8000128831684E
:1023D000DFF82091114488425CD3DFF81CA14FF450
:1023E0000071504600F028FD83464FF4807150463E
:1023F00000F022FDBBF1010F43D1404A40490128C2
:102400003FD11078934600EB400201EB82008A46F0
:1024100010F80A0CFEF728FA00903B48394900688A
:10242000FEF7DBF90099FEF7ABFA0CD23749B9F9A0
:1024300000000988884206DAA8F800000120287008
:1024400004F062FE1DE09BF8000000EB40010AEB87
:10245000810010F8090CFEF707FA82462A4829493C
:102460000068FEF7BAF95146FEF780FA09D2B9F9C9
:102470000000002805DDA8F800000220287004F004
:1024800073FE207861780844A178C0EB001001EB5E
:102490008000306029780020012917D0022925D139
:1024A000217862781144A278C1EB011102EB81011D
:1024B0003160B8F80010B9F900200A39914215DBF3
:1024C00038702870BDE8F84F04F080BE217862783B
:1024D0001144A278C1EB011102EB81013160B8F81F
:1024E0000010B9F900200A319142E9DDBDE8F88F0A
:1024F0002C130020141300200010014010130020A2
:10250000F8AB0020000020417013002012130020BF
:10251000002200F001B8000030B50E4B0546012046
:102520005C7A012C15D8587A00241C54587A03EB95
:10253000800045605D7A03F108002A54587A421CF5
:102540005A72303008703A2048702F208870CC7052
:10255000002030BDFC5A002010B50C46042105A017
:1025600005F0D8FB21460548FDF788FE002800D07D
:10257000012010BD41540D0A00000000BC5900208C
:1025800010B5062102A005F0C5FB002010BD00001B
:10259000415445300D0A000010B50C460C2107A02F
:1025A00005F0B8FB4FF47A7008F098F82146074818
:1025B000FDF764FE002800D0012010BD41542B43DC
:1025C000474154543D310D0A00000000BC59002021
:1025D00010B50C461A2105A005F09CFB21460A48BF
:1025E000FDF74CFE002800D0012010BD41542B43C4
:1025F0004744434F4E543D312C224950222C224314
:102600004D4C47220D0A0000BC59002010B50C4665
:10261000152105A005F07EFB21460948FDF72EFE99
:10262000002800D0012010BD41542B434950435392
:1026300047503D312C22434D4C47220D0A000000EB
:10264000BC59002008B50C2109A005F063FB42F23B
:1026500010736A464FF0FF31002009F0D9FF0028BF
:1026600005D0012803D10098022800D1012008BD1F
:1026700041542B43495053454E440D0A000000007D
:1026800070B50D462A2110A005F044FB4FF47A7076
:1026900008F024F841F288340EE016A11748FDF73F
:1026A000EDFD20B916A11548FDF7E8FD08B10020A1
:1026B00070BD204608F012F829461048FDF7DEFDEF
:1026C0000028EAD0012070BD41542B434950535497
:1026D0004152543D22544350222C223138332E3261
:1026E00033302E34302E3339222C22363030322201
:1026F0000D0A00005044502000000000BC5900208A
:102700004552524F5200000010B50C460E2105A054
:1027100005F000FB21460748FDF7B0FD002800D07A
:10272000012010BD41542B4349505354415455533B
:102730000D0A0000BC59002010B5082102A005F0C8
:10274000E9FA002010BD000041542B4353510D0AFB
:102750000000000010B5094C09A0B4F9041006F0FF
:1027600025FD0020A080E08002F01AF8B4F90410E2
:10277000BDE8104002A006F019BD000010130020B3
:10278000475F4E6F775F526F757465203D202564FB
:102790000D0A000010B504A0FFF7CEFF4FF4FA7049
:1027A00007F09CFFE0B210BD41542B4353510D0A7A
:1027B0000000000001680A6822F00E020A60016849
:1027C0000A6822F001020A6090F84020C36B0121E0
:1027D00001FA02F25A6080F82110002180F82010DE
:1027E000084670472DE9F05F90F821100024022977
:1027F00003D004218163012485E001680A6822F086
:102800000E020A6001680A6822F001020A603F4E67
:102810003E4FB215DFF8F4C0DFF8F090DFF8ECA01F
:10282000DFF8E8B0DFF8E4E00168783F1301150253
:10283000ACF1640CA9F15009AAF13C0AABF1280BE8
:10284000AEF1140E4FF48018B14227D9B9420ED020
:10285000614512D049451DD0514518D0594518D071
:10286000714501D1424615E0294EB14201D1012204
:1028700010E0274E1436B14201D110220AE0244E56
:102880002836B14206D0224A3C32914201D11A4642
:1028900000E02A461E49091F0A602BE0B94213D006
:1028A000614517D0494522D051451DD059451DD00D
:1028B000714501D142461AE0B14202D14FF0807217
:1028C00015E0134EB14201D1012210E0104E143632
:1028D000B14201D110220AE00D4E2836B14206D095
:1028E0000B4A3C32914201D11A4600E02A46074980
:1028F00080394A60012180F82110002180F82010E1
:10290000416B01B188472046BDE8F09F800002403E
:10291000080402402DE9F05FC16B0A6801680B688A
:10292000046C4FF0040808FA04F8844D844E854F77
:10293000DFF814C2DFF81492DFF814A2DFF814B243
:10294000DFF814E218EA020F65D05FEA437862D537
:102950000A68920603D40A6822F004020A60DFF8CB
:10296000F0814FF48062016808F114081301140229
:10297000414524D9A9420DD0B1420FD0B9421AD055
:10298000614515D0494515D0514501D1120312E0DA
:10299000594501D104220EE0714501D140220AE0DF
:1029A0006D4D1435A94206D06B4A2832914201D1AF
:1029B0001A4600E022466749091F0A6029E0A94239
:1029C00013D0B14215D0B94220D061451BD0494542
:1029D0001BD0514502D14FF4800217E0414502D18E
:1029E0004FF0806212E0594501D104220EE071459A
:1029F00001D140220AE0584D1435A94206D0564A6A
:102A00002832914201D11A4600E022464B4908394A
:102A10004A60C16A71E04FF0020808FA04F818EA47
:102A2000020F70D05FEA83786DD50A68920606D4EB
:102A30000A6822F00A020A60012180F82110DFF8FA
:102A400010814FF40072016808F114081301140298
:102A5000414524D9A9420DD0B1420FD0B9421AD074
:102A6000614515D0494515D0514501D1120312E0F9
:102A7000594501D102220EE0714501D120220AE020
:102A8000354D1435A94206D0334A2832914201D13E
:102A90001A4600E022462F49091F0A6029E0A94290
:102AA00013D0B14215D0B94220D061451BD0494561
:102AB0001BD0514502D14FF4001217E0414502D11D
:102AC0004FF0007212E0594501D102220EE071452B
:102AD00001D120220AE0204D1435A94206D01E4A19
:102AE0002832914201D11A4600E0224613490839A2
:102AF0004A60002180F82010816A00291CD0BDE8BE
:102B0000F05F0847FFE70825A540154214D01A07D3
:102B100012D50A6822F00E020A6090F84020C36BBA
:102B2000012101FA02F25A60816380F8211000212C
:102B300080F82010016BE0E7BDE8F09F080002403C
:102B40001C00024030000240440002405800024095
:102B50006C000240080402401C04024030B560B121
:102B60001C4A03681421934209D21B4A1A44B2FB3F
:102B7000F1F18900016419490AE0012030BD154ACC
:102B800052421A44B2FBF1F189000164114908393B
:102B9000C163022180F821101A6843F6F0718A435C
:102BA000F0E901142143D0E902452C432143046993
:102BB0002143446921438469214311431960002161
:102BC00041628162C1620163416301224277017700
:102BD000084630BD08040240F8FFFDBF0000024077
:102BE00070B5044690F82000002501280CD0012083
:102BF00084F8200094F821600020012E06D084F88B
:102C000020000225284670BD022070BD022684F8EF
:102C10002160A0632068066826F001060660204651
:102C2000FFF7C4FAE06A00282068016802D041F08A
:102C30000E0106E021F0040101602068016841F006
:102C40000A0101602068016841F001010160D9E7D3
:102C50002DE9F84FDFF8B8A100220AF1040B144661
:102C600001274FF00F090BF1040E00BF0B6807FAA4
:102C700004F52B40AB4274D1DFF898C14E68A6EB47
:102C80000C0866452BD00DDC032E34D005DC36B3A2
:102C9000012E19D0022E2FD11BE0112E16D0122E8C
:102CA0002AD119E0B8F5881F19D006DCB8F5803FA5
:102CB00015D0B8F5801F1FD111E0B8F5001F0ED058
:102CC000B8F5041F18D10AE0CA6815E0CA68121DD9
:102CD00012E0CA6808320FE0CA680C320CE08A6859
:102CE0002AB1012A4FF0080203D0456104E0042212
:102CF00002E0056100E00022FF2B01D8064601E05A
:102D000000F104064FEA840501D9A5F12005D6F8A3
:102D100000C009FA05F82CEA080C02FA05F54CEA9D
:102D2000050CC6F800C04D68ED006AD53A4DAE6995
:102D300046F00106AE61AD6924F0030605F0010519
:102D40000095364D06EB050CDCF80850A6074FEA57
:102D5000167809FA08F6B543314EB04202D1002682
:102D60001AE04EE02F4EB04201D1012614E02E4E63
:102D7000B04201D102260FE02C4EB04201D1032611
:102D80000AE02B4EB04201D1042605E0294EB042A4
:102D900001D1052600E0062606FA08F62E43CCF8F7
:102DA00008604D68DAF80060ED03554601D51E4312
:102DB00000E09E432E604D68AD0305D5DBF8006052
:102DC0001E43CBF8006004E0DBF800509D43CBF8D5
:102DD00000504D68DEF80060ED02754601D51E43D7
:102DE00000E09E432E604D68AD0205D5084D0C35C0
:102DF0002E681E432E6004E0054E0C3635689D4358
:102E00003560641C102CFFF431AFBDE8F88F000072
:102E100000040140000011100010024000000140B9
:102E200000080140000C0140001001400014014066
:102E300000180140001C01408068084000D00120BB
:102E400070470AB1016170470904FBE701488068D7
:102E50007047000060000020024881680278114439
:102E60008160704760000020074810B5016841F09C
:102E700010010160032000F09DF80F2000F006F81B
:102E800000F024F8002010BD0020024070B50D4D68
:102E900004464FF47A712878B1FBF0F00A490968CA
:102EA000B1FBF0F000F096FE48B9102C07D20022DA
:102EB0002146501E00F05EF800206C6070BD0120BD
:102EC00070BD00006000002070000020214808B59F
:102ED000816941F001018161816901F00101009185
:102EE000C16941F08051C161C06900F0805000901B
:102EF000032000F05FF8002211466FF00B0000F095
:102F000039F8002211466FF00A0000F033F8002271
:102F100011466FF0090000F02DF800221146501FF5
:102F200000F028F800221146101F00F023F80022BC
:102F30000F21901E00F01EF800220F21501E00F0FD
:102F400019F80548416821F0E06141F000714160E5
:102F500008BD0000001002400000014000F01F0208
:102F6000012191404009800000F1E020C0F80011EB
:102F700070470000F0B40E4B1B680C46C3F30223ED
:102F8000C3F10705042D00D90425191D072901D215
:102F9000002300E0DB1E012606FA05F1491E214050
:102FA00099409E40761E16403143F0BC04F05BB958
:102FB0000CED00E0064900F0070208684FF6FF0339
:102FC000184040EA0220034A10430860704700009E
:102FD0000CED00E00000FA0501490120086270478D
:102FE00000000E4210B52CA401461DCC86B08DE821
:102FF0001D002DA02D4C00680490002004292FD026
:103000000BDC01292FD0022928D100F08BF961684F
:10301000C1F38131491C49001EE0082920D0102944
:103020001CD161682268D20118D5C1F38342C9035B
:103030001DF8020009D5616804AAC1F34041515C42
:103040001B4AB2FBF1F1484301E01A494843616869
:10305000490203D440000321B0FBF1F006B010BDDB
:1030600000F070F9FAE7226AC2F30121012903D1C5
:10307000920701D5C803F1E7022905D1626A9207D8
:1030800002D549F64040E9E70329E7D121688903E1
:10309000E4D54FF22440E1E70203040506070809DE
:1030A0000A0B0C0D0E0F1010010200000010024060
:1030B00000127A0000093D002DE9F843054600782A
:1030C000354CC00754D0E0690026C00008D4E06940
:1030D00040F08050E061E069012600F080500090EF
:1030E0002E480168C90512D40168804641F48071F8
:1030F0000160FFF7ABFE074605E000BFFFF7A6FE45
:10310000C01B642823D8D8F80000C005F6D5206A73
:1031100010F4407021D0A98801F4407181421CD084
:10312000206A1F49012220F440700A6000220A60D0
:103130002062C00711D0FFF789FE074641F28838A8
:1031400008E000BFFFF782FEC11B414502D9032002
:10315000BDE8F883206A8007F4D5206A696820F406
:103160004070084320621EB1E06920F08050E061A9
:103170002878800705D56068A96820F44040084396
:1031800060602878C00605D56068696920F4800011
:10319000084360600020DBE7001002400070004040
:1031A000400442422DE9F047DFF83C8105460E46D7
:1031B000D8F8000000F00700B0420CD2D8F8001098
:1031C00021F007013143C8F80010D8F8000000F0E2
:1031D0000700B04263D12878444C800705D5606869
:1031E000A96820F0F000084360602878C00745D047
:1031F0006868012816D02168022816D0890700299E
:103200004DDA616821F0030101436160FFF71EFEA2
:103210006968074641F2883001290FD002298146AA
:1032200019D027E021688903E9E78901E7E700BFB2
:10323000FFF70CFEC11B494501D918E081466068C3
:10324000C0F381000128F3D118E000BFFFF7FEFDB5
:10325000C11B49450BD86068C0F381000228F5D135
:103260000CE000BFFFF7F2FDC11B494502D9032066
:10327000BDE8F087606810F00C0FF3D1D8F80010AB
:10328000404601F00701B1420BD9016821F0070166
:1032900031430160006800F00700B04201D0012016
:1032A000E6E72878400705D56068E96820F4E06023
:1032B000084360602878000706D56068296920F413
:1032C000605040EAC100606000F03CF86168084A64
:1032D000C1F30311515CC840064908600F20FFF795
:1032E000D5FD0020C4E7000000200240001002408D
:1032F00020C90008700000200148006870470000E5
:10330000700000200448054900684968044AC1F378
:103310000221515CC840704770000020001002403C
:1033200030C900080448054900684968044AC1F3E7
:10333000C221515CC840704770000020001002405C
:1033400030C9000812A185B00FC98DE80F0014A084
:10335000144A006804905168134801F00C03042BD0
:1033600010D0082B0ED1C1F38343C9031DF803000D
:103370000AD5516804AAC1F34041515C0A4A50433E
:10338000B0FBF1F005B0704708494843FAE7000088
:1033900002030405060708090A0B0C0D0E0F101096
:1033A000010200000010024000127A0000093D00F6
:1033B0002DE9F84F04460078B94DC00748D0686839
:1033C000C0F38100012807D06868C0F3810002289B
:1033D00009D16868C00306D52868800338D56068BD
:1033E00000286FD034E06068B0F5803F0BD010B19A
:1033F000B0F5A02F11D0286820F48030286028680C
:1034000020F4802002E0286840F480302860606862
:1034100088B1FFF71BFD064609E0286840F48020CC
:103420002860F0E7FFF712FD801B642875D8286834
:103430008003F7D50CE0FFF709FD064605E000BF65
:10344000FFF704FD801B6428F0D828688003F7D4B8
:103450002078944E80074FF001094FF000083BD5CB
:10346000686810F00C0F07D06868C0F3810002286C
:1034700009D16868C00306D42868800714D520697C
:1034800001281FD110E02069B0B1C6F80090FFF705
:10349000DDFC074605E000BFFFF7D8FCC01B022893
:1034A000C4D828688007F7D52868616920F0F8003B
:1034B00040EAC10028600FE0C6F80080FFF7C6FCB4
:1034C000074606E0E9E000BFFFF7C0FCC01B02288A
:1034D00023D828688007F7D4207800072CD57248B5
:1034E000A169D9B1C0F80090FFF7B0FC074604E02D
:1034F000FFF7ACFCC01B02280FD8686A8007F7D51D
:103500006A484FF4FA510068B0FBF1F0009000BF38
:103510000098411E0091FAD20EE080E0C0F80080D1
:10352000FFF794FC074604E0FFF790FCC01B02285D
:1035300075D8686A8007F7D42078400760D5E869B5
:103540000027C00008D4E86940F08050E861E869CD
:10355000012700F08050009055480168C90513D438
:103560000168834641F480710160FFF76FFC824679
:1035700006E000BFFFF76AFCA0EB0A0064284ED803
:10358000DBF80000C005F5D5E06801280AD008B1D5
:10359000052813D0286A20F001002862286A20F04C
:1035A000040002E0286A40F001002862E06841F26D
:1035B000883B98B1FFF74AFC82460BE0286A40F04E
:1035C00004002862EEE700BFFFF740FCA0EB0A0111
:1035D00059455AD8286A8007F6D50CE0FFF736FC23
:1035E000824605E0FFF732FCA0EB0A0159454CD8B2
:1035F000286A8007F6D41FB1E86920F08050E8619E
:10360000E06988B36968C1F38101022945D00228C5
:10361000C6F8608004D0FFF719FC044638E034E0B7
:10362000FFF714FC074604E0FFF710FCC01B02285C
:103630002BD828688001F7D4206AB0F5803F05D1E7
:103640006868A16820F4003008436860D4E9080184
:103650000843696821F4741108436860C6F86090F3
:10366000FFF7F4FB044606E015E000BFFFF7EEFBB2
:10367000001B022809D828688001F7D50BE000BF9D
:10368000FFF7E4FB001B022802D90320BDE8F88FF6
:1036900028688001F4D40020F8E70120F6E7000054
:1036A00000100240000042428004424270000020AC
:1036B000007000402DE9F04791460C465FEA000893
:1036C0004AD084B3D8F800004068400744D440464C
:1036D00003F080FE4FF461620546B0FBF2F1B0FBEF
:1036E000F2F302FB13503C23B0FBF3F0B5FBF2F610
:1036F000607002FB1650B0FBF3F203FB1200A070E7
:10370000182931D31820B1FBF0F7B1FBF0F200FB20
:1037100012102070404603F056FE411C04D0A8420F
:1037200002D9461B02E017E04FF0FF36A7EB071067
:1037300000EB4000C0EB001005EBC01529464046E9
:1037400003F097FE40B9701C01D0711900E03146BA
:10375000404603F07AFE10B10120BDE8F0873946FB
:10376000404603F0A4FD00E02170B9F1000F0BD03A
:10377000207803F091FD2070607803F08DFD60707B
:10378000A07803F089FDA0700020E6E770B5040082
:1037900003D0607C002610B105E0012070BD2674C6
:1037A000204600F043F802206074204600F010F933
:1037B000042578BB204603F0D1FD58BB2068416842
:1037C00021F007014160A06820B11748016821F08D
:1037D000010101601448001F0168A26821F46071B2
:1037E000114301606068411C04D10120FFF7FAFB1E
:1037F00080B1401E21688A6822F00F0242EA10421E
:103800008A602168CA6860F30F02CA60204603F02C
:10381000BFFD08B16574C0E7E67301206073A07353
:103820006074002070BD0000306C004008B5006876
:10383000084988420DD1FFF7CFFB0748C16941F025
:103840000061C161C069054900F00060009001207D
:10385000086008BD00280040001002403C044242BD
:103860002DE9F0410D4604003BD0C5B3207C012872
:103870003AD04FF0010884F8108002206074E87894
:1038800072B303F000FDE073687803F0FCFC607332
:10389000A87803F0F8FCA073C2B2617BE07B03F070
:1038A000A9FD20732870204603F094FD4FF4616158
:1038B000B0FBF1F1002518292DD91822B1FBF2F146
:1038C000A1EB011101EB4101C1EB011100EBC116AC
:1038D0003146204603F0CDFD0427C8B90BE000E0D7
:1038E00004E00120BDE8F0810220FBE7E073687886
:1038F0006073A878CFE7204603F065FD411C0AD02D
:10390000B04208D206490144204603F09EFD10B1A2
:1039100067742574E5E784F8118025740020E1E7D9
:10392000805101002DE9F0410D46040024D01DB363
:10393000207C012823D04FF0010884F81080022059
:1039400060742878EAB103F09EFC4FF4616100FBDB
:1039500001F6687803F097FCC0EB001006EB8006D8
:10396000A87803F090FC35182946204603F081FD25
:103970000026042710BB0FE00120BDE8F0810220E3
:10398000FBE74FF4616148436978C1EB011100EB3B
:103990008100A9784518E7E72068416821F0050112
:1039A0004160204603F00FFD411C0AD0A84208D216
:1039B00006490144204603F048FD10B1677426749F
:1039C000DAE784F8118026740020D6E780510100E0
:1039D00070B504000AD02068416821F008014160F8
:1039E000FFF734FA05464FF47A7608E0012070BDFF
:1039F000FFF72CFA401BB04201D9032070BD2068AC
:103A000040680007F4D5002070BD704738B5044603
:103A10000068426881684B0605D4CB0703D0530683
:103A200001D5216C04E08B0707D5130605D5616C21
:103A300001B02046BDE83040084711F0600F3FD08C
:103A400093063DD54B060AD594F85130032B34D05C
:103A5000636D43F004036365C3688368009389065C
:103A600009D5616D41F001016165816800910168CE
:103A700021F040010160606D002821D0206841687C
:103A800021F0E0014160012084F85100900718D036
:103A90002068416821F0030141600C4DE06C18B1D1
:103AA0004563E06CFEF79EFEA06C002808D04563DD
:103AB000A06CBDE83840FEF795BEC16880680090F4
:103AC00038BD2046FFF7A1FF38BD0000AD780008E3
:103AD00070B5040005D00025A56294F8510010B11E
:103AE00004E0012070BD204600F034F8022084F884
:103AF00051002068016821F040010160D4E9010112
:103B00000843D4E903121143084361690843218B38
:103B100001F400710843E1690843216A0843A16A7E
:103B2000084321680860A069042101EA1040616A25
:103B30000843216848602168E06A08612068C1691B
:103B400021F40061C1616565012084F85100002005
:103B500070BD000010B50068154986B0884224D1B8
:103B60001448816941F4805181618069124C00F4EC
:103B700080500490A0200090022001900320039028
:103B800069462046FFF764F800214020CDE9000196
:103B9000029169462046FFF75BF8002205212320A9
:103BA000FFF7E8F92320FFF7D9F906B010BD0000B0
:103BB0000030014000100240000801404FF0E021B9
:103BC0000428086903D020F004000861704740F021
:103BD0000400FAE710B5401EB0F1807F01D3012048
:103BE00010BD4FF0E02460610F21601703F03BFB34
:103BF0000020A06107202061002010BD10B5044600
:103C00000068416994F83920C1F3C011212A0BD111
:103C100051B1416921F080014161206B08B1FEF78B
:103C2000C9FD204605F044F82068416994F83A201F
:103C3000C1F38011222A0BD151B1416921F0400119
:103C40004161606B08B1FEF7B5FD204605F022F832
:103C5000002010BD7047000070B50268044610686F
:103C6000D168536910F00F0F50D003F0010501F433
:103C7000907635435DD0C20705D0CA0503D5E26B07
:103C800042F00102E263420705D5DA0703D0E26B96
:103C900042F00202E263820705D5DA0703D0E26B45
:103CA00042F00402E263020705D5DA0703D0E26BB3
:103CB00042F00802E263E26B002A33D0800604D5AA
:103CC000880602D5204604F0FCFF20684069E16BBD
:103CD000C0F38010090700D428B3204604F0DAFFAF
:103CE0002068416949061AD5416921F040014161C6
:103CF000606BA0B11B494163606BFEF773FD002848
:103D000010D0606B416BBDE870400847830610D54A
:103D10008B060ED52046BDE8704004F0D2BF204689
:103D2000FFF798FF70BD2046FFF794FF0020E06387
:103D300070BD030606D50B0604D52046BDE87040CD
:103D400005F0C2B84006F3D54806F1D5D168204643
:103D500021F04001D160202184F8391000F00AFAE6
:103D600070BD0000BD8B000870B5040004D094F84D
:103D70003900002510B106E0012070BD84F83850EC
:103D8000204600F023F8242084F839002068C16818
:103D900021F40051C160204604F0DEFF2068016973
:103DA00021F4904101612068416921F02A014161BB
:103DB0002068C16841F40051C160E563202084F8A7
:103DC000390084F83A00002070BD0000F0B50646C6
:103DD0003A4F03683A48022103223A4D002485B045
:103DE000BB4219D1836943F48043836180690392A4
:103DF00000F4804004900802CDE90001694628469D
:103E0000FEF726FF2815CDE90004694628460294EE
:103E1000FEF71EFF05B0F0BD2B4FBB42FAD1C369C0
:103E200043F40033C361C069039200F4003004908E
:103E30000420CDE9000169462846FEF709FF082065
:103E4000CDE90004694628460294FEF701FF204DA3
:103E50001E48802701C5102091C51D4845F810490E
:103E60006C61AC61EC61FEF779FE20B140F20711A4
:103E700018A005F08FF935636E6214481C4D143894
:103E8000C5E90004C5E902472C614FF440506C615C
:103E9000C5E906402846FEF761FE20B140F2171141
:103EA0000CA005F077F975630022052126206E62CB
:103EB000FFF760F82620FFF751F8ABE70038014024
:103EC0000010024000080140004400408000024011
:103ED000341500202E2E2F5372632F73746D3332DE
:103EE000663178785F68616C5F6D73702E63000077
:103EF00078150020F8B5044690F83A0020283CD107
:103F0000C1B3BAB394F83800012836D0012084F840
:103F10003800A162A2850025E563222084F83A00DA
:103F2000636B17489862636B1648D862636B1648D8
:103F30001863606B134645630846666B216802464A
:103F40003046091DFEF74CFE20680168416800916B
:103F500084F83850C16841F48071C16020684169BB
:103F600041F0010141612068416941F04001416136
:103F70000020F8BDFFE70120FBE70220F9E7000081
:103F8000178C0008538C0008CD8B000890F83A304D
:103F9000202B22D1F9B1F2B190F83830012B1CD08E
:103FA00081628285C2850021C163222280F83A2085
:103FB00080F838100168CA6842F48072CA600168EB
:103FC0004A6942F001024A610068C16841F020017B
:103FD000C160002070470120704702207047000038
:103FE00008B500680F4988421BD10F480F49027875
:103FF00043788B54521CD2B20270881810F8011CFE
:104000000A2908D110F8020C0D2804D10848694685
:10401000006808F075F904490122491C0548FFF7BA
:10402000B5FF08BD003801406C000020BC5A0020DC
:104030001C000020B414002070472DE9F84304460A
:1040400090F839001F4616460D46202850D1A5B1DC
:104050009EB194F8380001284AD0012084F8380035
:104060004FF00008C4F83C80212084F83900FEF7A6
:10407000EDFEA6848146E68426E00120BDE8F883B3
:10408000E08C401EE084A0684B46B0F5805F4FF0A6
:1040900000024FF080012046009703D004F045FF56
:1040A000E8B90DE004F041FFC8B928882168C0F3E1
:1040B00008004860206908B16D1C05E0AD1C03E0F4
:1040C000216815F8010B4860E08C0028D8D14B46D8
:1040D000002240212046009704F027FF08B103206A
:1040E000CCE7202084F8390084F838800020C5E728
:1040F0000220C3E770B5044690F83900202830D17B
:1041000069B362B394F8380001282AD0012084F8FA
:1041100038002162A284E2840025E563212084F82E
:104120003900236B10489862236B1048D862236BC8
:104130000F481863206B134645632668206B321DB9
:10414000FEF74EFD21686FF04000086084F838509B
:104150002068416941F080014161002070BD01206B
:1041600070BD022070BD00005D8C00088B8C0008C3
:10417000CD8B00087047704701A005F017F8FBE7EA
:10418000686172646661756C740D0A0070B51F4CCD
:1041900005004FF000021DD002212046FEF751FE1F
:1041A000284603F061FB002201212046FEF749FE6C
:1041B0000A2005F0C7FD012202212046FEF741FE3C
:1041C0000A2005F0BFFD002202212046BDE8704014
:1041D000FEF737BE4FF4004631462046FEF731FE6B
:1041E000284603F041FB002240210948FEF729FE42
:1041F000022005F0A7FD012231462046FEF721FEF0
:10420000022005F09FFD00223146DEE7000C014050
:10421000001001402DE9F04101002B48DFF8AC808F
:1042200086B04FF001044FF0020520D001291BD1C8
:10423000816941F0080181618069694600F00800E8
:1042400004900320CDE900044046CDE90245FEF785
:10425000FFFC012202214046FEF7F3FD0122114638
:104260004FEA0800FEF7EDFD06B0BDE8F081816978
:1042700041F004018161816901F0040104918169C7
:1042800041F0080181618069002700F00800029771
:10429000CDE903504FF40046CDE90064694640463D
:1042A000FEF7D6FC402003958DE89100694608484A
:1042B000FEF7CEFC002231464046FEF7C2FD00224A
:1042C00040210448CEE7000000100240000C0140ED
:1042D000000801400010014070B51F4C05004FF070
:1042E00000021DD002212046FEF7ABFD284603F058
:1042F000BBFA012211462046FEF7A3FD0A2005F075
:1043000021FD012202212046FEF79BFD0A2005F037
:1043100019FD002202212046BDE87040FEF791BD44
:104320004FF4004631462046FEF78BFD284603F049
:104330009BFA012240210948FEF783FD022005F087
:1043400001FD012231462046FEF77BFD022005F0EB
:10435000F9FC00223146DEE7000C0140001001406C
:104360002DE9F047384D88465FEA00094FF0000418
:1043700034D003F05DFA01220824002611462846B5
:10438000FEF75FFD002202212846FEF75AFD0A20B3
:1043900005F0D8FC7006060E641EE4B2012202216C
:1043A0002846FEF74EFD0A2005F0CCFC01212846E8
:1043B000FEF742FD012840D006F0FE06002CE1D1B8
:1043C000002202212846FEF73CFDB8F1000F4846C6
:1043D00036D0FFF7DBFE3046BDE8F08703F028FA61
:1043E000DFF868A000264FF400470022394628462F
:1043F000FEF727FD022005F0A5FC012239462846DC
:10440000FEF71FFD6006040E40215046FEF714FD26
:1044100008B1641CE4B2012005F094FC761CF6B2ED
:10442000082EE2D3B8F1000F484603D0FFF7AEFEE6
:104430002046D1E7FFF750FFFAE746F00106BDE757
:10444000FFF74AFFC7E70000000C014000100140E1
:104450002DE9F0412F4D0C4660B103F005FA002222
:1044600002212E462846FEF7ECFC0025200631D519
:10447000012230E003F0F8F94FF4004700223946FA
:104480002846FEF7DEFCDFF890800026200601D5E6
:10449000012200E0002240214046FEF7D2FC6006E7
:1044A000040E022005F04EFC012239462846FEF794
:1044B000C8FC022005F046FC002239462846FEF7DB
:1044C000C0FC022005F03EFC761CF6B2082EDDD3BF
:1044D000BDE8F081002201213046FEF7B2FC600603
:1044E000040E082005F02EFC012202213046FEF7C2
:1044F000A8FC082005F026FC002202213046FEF729
:10450000A0FC082005F01EFC6D1CEDB2082DADD3FB
:10451000DEE70000000C01400010014070B51E4CA9
:10452000E8B103F0A1F9012211462046FEF789FC0B
:10453000012202212046FEF784FC082005F002FC3F
:10454000002201212046FEF77CFC082005F0FAFB42
:10455000002202212046BDE87040FEF772BC03F045
:1045600083F90E4D012240212846FEF76AFC012204
:10457000D60331462046FEF764FC042005F0E2FB3A
:10458000002240212846FEF75CFC042005F0DAFBFF
:1045900000223146DEE70000000C0140001001401F
:1045A00070B51E4CC0B103F05FF900220121204616
:1045B000FEF747FC082005F0C5FB0122022120463A
:1045C000FEF73FFC082005F0BDFB2046BDE870402B
:1045D00001221146FEF735BC03F046F94FF40045C1
:1045E000002229462046FEF72CFC0D4E00224021D9
:1045F0003046FEF726FC042005F0A4FB01222946E4
:104600002046FEF71EFC012240213046FEF719FC31
:10461000BDE87040042005F095BB0000000C01408F
:10462000001001402DE9F041284D06004FF0000434
:1046300012D003F0FDF8012211462846FEF701FCD6
:104640000A2005F07FFB012202212846FEF7F9FB34
:104650000A2005F077FB2CE003F0EAF81C4F01225A
:1046600040213846FEF7EDFB012005F06BFB4FF4CF
:104670000048012241462846FEF7E3FB012005F0F1
:1046800061FB03E0641CE4B2FA2C0CD840213846EC
:10469000FEF7D2FB0028F5D10022414611E0641C50
:1046A000E4B2FA2C05D93046FFF77AFF0120BDE8C5
:1046B000F08101212846FEF7BFFB0028EFD1002240
:1046C00002212846FEF7BDFB0020F0E7000C014068
:1046D000001001401CB50446000A8DF800008DF85A
:1046E0000440012269468A20FCF7A0FF012201A9AB
:1046F0008B20FCF79BFF014804801CBD2C1300207D
:1047000008B5012269468020FCF754FF9DF900009E
:10471000323065280CD305208DF80000012269464F
:104720008020FCF783FF012269468020FCF742FFCE
:104730009DF90000FCF78FF80249FCF74EF802499A
:10474000086008BD000020416C1300207CB5124DAC
:10475000010A012268808DF800108DF80400694676
:104760008220FCF763FF012201A98320FCF75EFF92
:104770000A4E002404EB440006EB80016888CA88D6
:10478000824204D9C88020010C22FCF74FFF641C30
:10479000E4B2082CEED37CBD10130020F8AB00204F
:1047A0001CB5094901228880010A8DF800108DF896
:1047B000040069468420FCF739FF012201A9852005
:1047C000FCF734FF1CBD0000101300202DE9F04160
:1047D000002601271A4D1DE000EB4001441C05F89E
:1047E000214005EB810117220A723B224A728A722C
:1047F0000E7119228A701422CA70CE804F7020B9AF
:104800002F7104232B726E72AE7200010C22FCF722
:104810000DFFE0B20828DFD30A4D002404EB44006A
:1048200005EB800120010C22FCF7C4FE641CE4B2FD
:10483000082CF3D3BDE8F0410C2103A004F0B6BC72
:1048400058AC0020F8AB0020777269746520616C69
:104850006C20537472617465677920737563636546
:104860007373256421210D0A0000000001B50122A7
:1048700069468720FCF7DAFE02499DF8000048707F
:1048800008BD00001013002000F040B82DE9F041F1
:104890000E460746B024204604F0B0FB102004F07A
:1048A000ADFB002004F0AAFB0025384604F02CFCE8
:1048B000304604F029FC6D1CEDB2802DF5D3641C4C
:1048C000E4B2B82CE7D3BDE8F08100000E4810B583
:1048D00000784FF000030A284FF02D0208D0442141
:1048E000B32001F021FB00232D225421B32007E047
:1048F0006421B52001F018FB00232D227421B5207E
:10490000BDE8104001F010BBDC00002070B50C4683
:10491000054600230E221421B72001F005FB0023D9
:104920000F222421B72001F0FFFA002310223421A6
:10493000B72001F0F9FA002311224421B72001F039
:10494000F3FA00233A225421B72001F02BFB214631
:10495000284600F0BDF800232A225221B52001F09C
:10496000E3FA002302221421B32001F0DDFABDE8AE
:104970007040002303222421B32001F0D5BA0000A7
:104980002DE9F041444C454E4FF00108217819B90A
:104990003188618084F80080002509287AD2DFE818
:1049A00000F0050C14793E7979795B00BDE8F0419F
:1049B0003949491C481CFFF767BF6078032802D2B9
:1049C000401C607041E065703FE060784FF4167104
:1049D00030B1012809D002280CD0032835D10CE0D1
:1049E0006088643003E060802FE060880A3088428D
:1049F000F9D92AE06088401CF9E72749491C481C7E
:104A000000F066F860883080FFF764FE01F0D0F9AE
:104A100040F2DC5005F062FEFFF758FF15E06078C9
:104A200020B1012807D002280FD109E0608864284E
:104A30000BD46438D7E760880A2806D40A38D2E74E
:104A40006088012801D4401ECDE7BDE8F04112493D
:104A5000491C481C00F03CB8114F3878072819D180
:104A600010A004F0A3FB00210846FFF70FFF002071
:104A700000F0F2FB30886080257002203870124808
:104A80006570006807F0EEF8104861684160656085
:104A900080F80080BDE8F081641300202C13002012
:104AA000DC0000206E6F775F70616765203D3D2000
:104AB00044656C61795F496E7370656374696F6E8C
:104AC0005F706167650D0A00E4000020240000208B
:104AD00038B50C460546302203216846FBF7BCFB7F
:104AE0002A881FA1684604F071FB207868B3002370
:104AF0009DF800203A21B52001F054FA20780128D1
:104B000025D000239DF801204221B52001F04AFA6A
:104B1000207802281DD000239DF802204A21B520CC
:104B200001F040FA2078032815D000230222142136
:104B3000B32001F0F9F9207803280ED000230322D6
:104B40002421B32001F0F0F938BD0123D0E701237F
:104B5000D8E70123E0E70123E8E70123EFE70000BE
:104B6000253033640000000010B50078042826D0FA
:104B70000024234635220421B72001F013FA2346EE
:104B80002E220C21B72001F00DFA23460E2214210B
:104B9000B72001F0C9F923460F222421B72001F0E4
:104BA000C3F9234610223421B72001F0BDF9234672
:104BB00011224421BDE81040B72001F0B5B901240D
:104BC000D7E710B50078032826D0002423463422E6
:104BD0000421B12001F0E6F923462E220C21B12058
:104BE00001F0E0F923460A221421B12001F09CF9DA
:104BF00023460B222421B12001F096F923460C22F2
:104C00003421B12001F090F923460D224421BDE862
:104C10001040B12001F088B90124D7E770B50C46E7
:104C2000054600230A221421B72001F07DF9002354
:104C30000B222421B72001F077F900230C22342124
:104C4000B72001F071F900230D224421B72001F0B3
:104C50006BF900233A225421B72001F0A3F9214631
:104C6000284600F0BDF800232F225421B52001F082
:104C70005BF9002302221421B32001F055F9BDE8AD
:104C80007040002303222421B32001F04DB900001D
:104C90002DE9F047424C8046DFF808916078424F9A
:104CA000012638B949463868FBF765FDFBF7E1FD99
:104CB000207066703A480025B8F1090F80786CD2F0
:104CC000DFE808F0050C176B3C6B6B6B4600BDE82A
:104CD000F0473349891C881E01F0B7B838B1A57078
:104CE000BDE8F0472E49891C881E00F079B8A670EF
:104CF000F6E7E8B1012850D12949891C881E00F047
:104D00006FF894F90000FBF7A6FD4946FBF765FD37
:104D10003860012222498020FCF788FC01F048F825
:104D200040F2DC5005F0DAFCBDE8F047FFF7CEBDFD
:104D300094F90000322830DA401C07E000282CD11A
:104D400094F9000010F1320F27DD401E2070C7E7F4
:104D5000DFF8588098F8000006281ED114A004F04F
:104D600025FA00210846FFF791FD002000F074FAB3
:104D700049463868FBF7FFFCFBF77BFD2070657048
:104D8000022188F800101448A570006806F06AFF38
:104D900012486168416065600670BDE8F0870000F8
:104DA00034130020000020416C130020DC000020A0
:104DB0006E6F775F70616765203D3D2048554D49B6
:104DC0005F436F6D70656E736174696F6E5F706164
:104DD00067650D0A00000000E400002024000020A8
:104DE0007CB50C460546302205216846FBF734FAAF
:104DF00095F90020002A28DB39A1684604F0E6F97D
:104E00002078E0B15FF000039DF800202A21B52052
:104E100001F0C8F82078A0B100232E223221B5205D
:104E200001F0C0F8207870B15FF000039DF8012018
:104E30003A21B52001F0B6F8002320222AE0012310
:104E4000E2E70123E9E70123F0E727A1684604F040
:104E5000BDF92078A8B300239DF800202A21B520B1
:104E600001F0A0F8207868B35FF000039DF80120FE
:104E70003221B52001F096F8207840B300232E228D
:104E80003A21B52001F08EF8207810B35FF00003CE
:104E90009DF802204221B52001F084F820780128F5
:104EA00019D0002302221421B32001F03DF820780C
:104EB000012812D0002303222421B32001F034F86A
:104EC0007CBD00E001E00123C6E70123CEE701231A
:104ED000D5E70123DCE70123E4E70123EBE700004A
:104EE00025303264000000002530336400000000EB
:104EF00010B50078022826D000242346332204214E
:104F0000B32001F04FF823462E220C21B32001F0EC
:104F100049F8234608221421B32001F005F823465E
:104F200009222421B32000F0FFFF2346042234216C
:104F3000B32000F0F9FF234605224421BDE81040CC
:104F4000B32000F0F1BF0124D7E730B40A787AB17A
:104F5000012A15D0022A20D0032A2BD102880A2345
:104F6000B2FBF3F403FB1423092B20D2521C12E0F2
:104F7000028842F228339A4219D202F57A720AE084
:104F800002884FF47A73B2FBF3F403FB1423B3F5F6
:104F9000617F0CD26432028009E002886423B2FB94
:104FA000F3F403FB14235A2B01D20A32F3E730BC8B
:104FB00000F0C2B830BC704770B50C4605460023FF
:104FC00008221421B72000F0AFFF0023092224217A
:104FD000B72000F0A9FF002304223421B72000F0FD
:104FE000A3FF002305224421B72000F09DFF0023EA
:104FF0003A225421B72000F0D5FF2146284600F080
:105000009BF800232E225421B52000F08DFF0023B1
:1050100002221421B32000F087FFBDE87040002376
:1050200003222421B32000F07FBF00002DE9F041CE
:10503000344C354F4FF00108217819B93988618017
:1050400084F80080002509285AD2DFE800F0050C1A
:105050001A59345959593B00BDE8F0412949491CB6
:10506000481C00F05FBF6078042802D2401C6070CA
:1050700000E06570BDE8F0412249491C481C00F081
:105080005BB8607804280FD11E49491C481C00F009
:1050900053F86088FFF75AFB00F08AFE40F2DC50BC
:1050A00005F01CFBFFF712FCBDE8F0411549491C57
:1050B000481CFFF74ABFBDE8F0411249491C481C93
:1050C00000F096B8114E3078052819D110A004F0E0
:1050D0006DF800210846FFF7D9FB002000F0BCF86E
:1050E0003888608025700220307011486570006833
:1050F00006F0B8FD0F4861684160656080F8008087
:10510000BDE8F0813C13002012130020DC000020D9
:105110006E6F775F70616765203D3D204D61785F00
:10512000526F7574655F706167650D0A000000005D
:10513000E4000020240000203EB50C460546302245
:105140000A216846FBF788F82A8827A1684604F0F8
:105150003DF82078B0B300239DF800202A21B52027
:1051600000F020FF207801282FD000239DF8012097
:105170003221B52000F016FF2078022827D0002326
:105180009DF802203A21B52000F00CFF207803287A
:105190001FD000239DF803204221B52000F002FF1C
:1051A0002078042817D000280BD1002302221421D4
:1051B000B32000F0B9FE002303222421B32000F025
:1051C000B3FE3EBDFFE70123C6E70123CEE701237F
:1051D000D6E70123DEE7012302221421B32000F0E9
:1051E000A3FE0123E8E7000025303464000000003E
:1051F00030B40A784FF47A7372B1012A12D0022ABD
:105200001AD0032A25D102880A23B2FBF3F403FB48
:105210001423DBB1521E0DE002889A4216D3A2F588
:105220007A7207E00288B2FBF3F403FB1423632BCA
:105230000CD9643A028009E002886423B2FBF3F4DB
:1052400003FB1423092B01D90A3AF3E730BCFFF71B
:1052500073BF30BC70470000254910B50A78092893
:1052600044D2DFE800F0050D144318434343200007
:105270001F4ABDE81040921C511E481E00F032BE6D
:105280001B49BDE81040891C881EFCF7A5BF002AF9
:105290002CD0012102E0072A28D20221BDE81040CB
:1052A000134800F031B891F90200401C1ED10024CF
:1052B0000C704C7021462046FFF7E8FA0D48007844
:1052C00000F06AFF0C48007800F03EFF012000F07B
:1052D000F1FE00F01BFF0948006806F0C3FC084817
:1052E0000121017007490A6842600C6010BD00008E
:1052F0002E1300201013002080130020E000002057
:1053000024000020E40000202DE9F041044690F83C
:1053100000C0062005220423032502260127BCF134
:10532000080F7DD2DFE80CF004081827354D5F76B2
:1053300002297ED1277005E002290BD0012978D1FE
:1053400000202070204600F05BF92046BDE8F041C7
:1053500000F0D6B8267004E002290AD0012968D1ED
:105360002770204600F0CCF82046BDE8F041FFF75A
:10537000BFBD257018E0022903D0012959D126703C
:1053800012E023702046FFF7EFFB204600F008FAFA
:1053900038E0022910D001294BD12570204600F0B9
:1053A0002FF9204600F0ACF82046FFF7A1FD20467B
:1053B000BDE8F041FFF705BC22702046FFF7D4FBA3
:1053C00019E002290AD0012933D12370204600F0C8
:1053D000E7F92046BDE8F041FFF7C6BB2070204644
:1053E00000F0DEF920E002290AD0012921D1227043
:1053F000204600F0B7FB2046BDE8F04100F0D0B9F0
:1054000007202070204600F0ADFB2046BDE8F041AB
:1054100000F0EEBC02290CD001290AD1207000E076
:1054200007E0204600F0E4FC2046BDE8F04100F033
:1054300099BBBDE8F08110B5002326221421B720C6
:1054400000F072FD002327222421B72000F06CFD1C
:10545000002304223421B72000F066FD002305223A
:105460004421B72000F060FD00233A225421B720E8
:1054700000F098FD00F014F800232E225421B520EE
:1054800000F052FD01231B221421B32000F04CFD3B
:1054900001231C222421BDE81040B32000F044BDAC
:1054A0000EB530220A216846FAF7D6FE114812A13D
:1054B000007842B2684603F089FE9DF80020002380
:1054C0002A21B52000F06EFD9DF801200023322135
:1054D000B52000F067FD9DF8022000233A21B52099
:1054E00000F060FD9DF8032000234221B52000F06C
:1054F00059FD0EBD14130020253034640000000057
:1055000010B50078012826D0002423463222042139
:10551000B52000F047FD23462E220C21B52000F0D7
:1055200041FD234604221421B52000F0FDFC234652
:1055300005222421B52000F0F7FC23460622342161
:10554000B52000F0F1FC234607224421BDE81040BD
:10555000B52000F0E9BC0124D7E7000010B5092808
:1055600034D2DFE800F00533093333333333170027
:10557000BDE81040FFF75FBFFDF7ECF8FFF790FFC5
:1055800000F016FC40F2DC5005F0A8F8BDE8104031
:10559000FFF79CB90E4C2078042817D10DA003F01A
:1055A00005FE00210846FFF771F90020FFF754FEC1
:1055B000022020700F48006806F054FB0E480F4987
:1055C00002684A60002202600120087010BD0000DD
:1055D000DC0000206E6F775F70616765203D3D20C5
:1055E000526F7574655F52657365745F706167654E
:1055F0000D0A0000E40000204413002024000020D5
:1056000010B5007830B30024234631220421B7209E
:1056100000F0C8FC23462E220C21B72000F0C2FC6B
:10562000234600221421B72000F07EFC23460122ED
:105630002421B72000F078FC234602223421B72031
:1056400000F072FC234603224421BDE81040B7203D
:1056500000F06ABC0124D7E72DE9F041044690F838
:1056600000C0062005220423032502260127BCF1E1
:10567000080F7DD2DFE80CF0040B1E2D425A6C851A
:10568000022975D12770204601F030FB1AE002296B
:105690000BD001296CD100202070204601F02CFB9A
:1056A0002046BDE8F04101F021BB2670204601F004
:1056B00023FB16E002290AD001296FD1277020466A
:1056C00001F020FB2046BDE8F04101F015BB25703C
:1056D0001FE002290AD0012960D12670204601F07E
:1056E00017FB2046BDE8F04101F00CBB23702046BB
:1056F00001F014FB204601F017FB38E0022910D01E
:1057000001294BD12570204601F0F0FA204601F026
:10571000F3FA204601F0F6FA2046BDE8F04101F028
:10572000F7BA2270204601F0F9FA19E002290AD0EE
:10573000012933D12370204601F0F6FA2046BDE856
:10574000F04101F0EBBA2070204601F0EDFA20E0C4
:1057500002290AD0012921D12270204601F0EAFA5B
:105760002046BDE8F04101F0DFBA0720207000E0DC
:1057700014E0204601F0DEFA2046BDE8F04101F0D9
:10578000DFBA02290AD0012908D12070204601F091
:10579000D7FA2046BDE8F04101F0CCBABDE8F0816F
:1057A00010B50078052826D000242346362204218F
:1057B000B52000F0F7FB23462E220C21B52000F087
:1057C000F1FB23460F221421B52000F0ADFB234648
:1057D00012222421B52000F0A7FB234613223421F6
:1057E000B52000F0A1FB234614224421BDE810405F
:1057F000B52000F099BB0124D7E770B50C460546EB
:1058000000230F221421B72000F08EFB0023122268
:105810002421B72000F088FB002313223421B72075
:1058200000F082FB002314224421B72000F07CFB0F
:1058300000233A225421B72000F0B4FB2146284629
:1058400000F0B0F8002302221421B32000F06CFB1A
:10585000BDE87040002303222421B32000F064BB84
:105860002DE9F0414A4C07460126607828B900220C
:10587000A11C4848FDF71EFF667045480025801CA6
:105880004FF00208092F7DD2DFE807F0050C207FDA
:10589000487F7F7F6400BDE8F0413D49891C881E38
:1058A00001F0DCBA94F9000050B1012806D00228BA
:1058B00002D0032847D106E0267044E0257042E07C
:1058C000032020703FE084F800803CE094F9001051
:1058D00081B1012909D0022902D0032933D10EE078
:1058E000017818292FD2491C22E041783B292AD27D
:1058F000491C22E081783B2925D2491C22E0244919
:105900000022891C2348FEF70DF800F051FA40F2FE
:10591000DC5004F0E3FEFEF7D9FF14E094F9001028
:1059200069B1012906D002290DD1017859B1491E6A
:10593000017008E0417831B1491E417003E081787F
:1059400009B1491E8170BDE8F0411149891C881ECA
:1059500000F028B8104F3878082816D100210846E2
:10596000FEF794FF0020FFF777FC657087F8008052
:105970000A4884F80080006806F074F90848A168B5
:10598000416000E001E0A5600670BDE8F081000024
:105990005013002048140020DC000020E400002008
:1059A000240000203EB50D460446302203216846FF
:1059B000FAF752FC3022032101A8FAF74DFC3022FD
:1059C000032102A8FAF748FC95F9002063A1684674
:1059D00003F0FCFB95F9012060A101A803F0F6FBA0
:1059E00095F902205DA102A803F0F0FB94F90000F4
:1059F000022824D001283CD0002876D0032837D1B3
:105A00009DF8002000232A21B52000F0CBFA9DF854
:105A1000012000233221B52000F0C4FA3A220023ED
:105A20001146B52000F0BEFA9DF804200023422163
:105A3000B52000F0B7FA9DF80520002337E09DF867
:105A4000002001232A21B52000F0ACFA9DF80120A6
:105A50000123DFE702221421B32000F065FA207849
:105A6000032878D0002303222421B32000F05CFA1D
:105A70003EBD9DF8002000232A21B52000F092FAB7
:105A80009DF8012000233221B52000F08BFA3A2244
:105A900000231146B52000F085FA9DF8042001236B
:105AA0004221B52000F07EFA9DF8052001234A210D
:105AB000B52000F077FA00233A225221B52000F0F9
:105AC00071FA9DF8082000235A21B52000F06AFAE7
:105AD0009DF8092000236221B52000F063FA2078A8
