:020000040800F2
:10000000406C0020DD010008D5610008E9300008DF
:10001000756000084F0C00086D75000800000000B6
:100020000000000000000000000000004501000882
:10003000751500080000000089010008E97000083B
:10004000F7010008F7010008F7010008F7010008B0
:10005000F7010008F7010008F7010008F7010008A0
:10006000F7010008F7010008F7010008F701000890
:10007000F7010008F7010008F7010008F701000880
:100080005D15000869150008F7010008F701000870
:10009000F7010008F7010008F7010008F701000860
:1000A000F7010008F7010008F7010008F701000850
:1000B000F7010008F7010008F7010008F701000840
:1000C000F7010008F7010008F70100084165000882
:1000D000F70100082975000835750008F7010008C8
:1000E000F7010008F7010008F7010008F701000810
:1000F000F7010008F7010008F7010008F701000800
:10010000F7010008F7010008F7010008F7010008EF
:10011000F7010008F7010008F7010008F7010008DF
:10012000F7010008F7010008F7010008F7010008CF
:10013000DFF80CD000F068FC004800473981000867
:10014000406C0020224B19680868B0E8F00F80F37B
:100150000988BFF36F8F4FF0000080F311884EF0D5
:100160000D0E70470000000006480068006880F32C
:10017000088862B661B6BFF34F8FBFF36F8F00DFA1
:1001800000BF00BF08ED00E0EFF30980BFF36F8F01
:100190000F4B1A6820E9F00F106008B54FF05000BF
:1001A00080F31188BFF34F8FBFF36F8F08F0C6FD48
:1001B0004FF0000080F31188BDE808401968086816
:1001C000B0E8F00F80F30988BFF36F8F704700BF6E
:1001D00080000020EFF3058070470000064880474C
:1001E00006480047FEE7FEE7FEE7FEE7FEE7FEE71C
:1001F000FEE7FEE7FEE7FEE7917100083101000827
:10020000202A04DB203A21FA02F00021704721FA6B
:1002100002F3D040C2F120029140084319467047D2
:1002200040EA01039B0703D009E008C9121F08C078
:10023000042AFAD203E011F8013B00F8013B521EF8
:10024000F9D27047D2B201E000F8012B491EFBD26F
:1002500070470022F6E710B513460A4604461946D1
:10026000FFF7F0FF204610BD30B505462A460B4685
:1002700012F8010B13F8014B08B1A042F8D01CB1E1
:10028000002802D06D1CF1E7284630BD10B50446A9
:1002900004E00B7800F8013B03B1491C521EF8D270
:1002A000204610BD421C10F8011B0029FBD1801A0A
:1002B0007047F0B480EA0102D40F4200B2EB410F64
:1002C00002D20246084611464A0042D0C30DDDB2B2
:1002D000C1F3C752AD1A202D35DAC1F3160141F42E
:1002E000000204B15242C5F1200602FA06F12A4189
:1002F0001044B3EBD05F23D0C4B1012DA0EBC350A9
:1003000009DCF0BC4FF0004202EAC352DBB200F558
:10031000000000F04DB9400000F1807000EBC350C8
:10032000A0F1807040EAD170490009E0490841EA33
:10033000C071A0EBC35000F50000400800EBC350B3
:10034000F0BC00F02CB96142012202EB4101001B1C
:10035000F6E7F0BC704781F00041AAE780F000406A
:10036000A7E780EA010210B502F00043400022D066
:100370004A001FD0010E01EB1261C0F35600C2F318
:10038000560240F4000042F40002A0FB02200004E8
:100390007F39140400D0401C50EA124001D44000C0
:1003A000491EC2B20C0604EBD010401C4008802A43
:1003B00002D003E0002010BD20F00100002900DA87
:1003C0000020184310BD30B480EA010202F000455D
:1003D00030F0004221F0004013D090B1C30DD40D95
:1003E000C2F31601C0F31600E41A41F4000140F410
:1003F00000027D34914201D3641C00E04900002CCE
:1004000002DA30BC002070474FF400000023914214
:1004100001D3891A034340084FEA4101F7D151B192
:10042000914202D14FF0004105E002D24FF00101AC
:1004300001E06FF0010103EBC450284430BC00F030
:10044000AEB8C10F80EAE0700844CA0796230021C5
:1004500000F0AEB896230022114600F0A9B800F0D3
:10046000004220F00040C10DC0F3160040F400002F
:100470007F2901DA00207047962903DCC1F196013B
:10048000C84001E096398840002AF4D040427047C5
:1004900020F00040C10DC0F3160040F400007F2999
:1004A00001DA00207047962903DCC1F19601C840AB
:1004B000704796398840704730B5041E71F10004CA
:1004C00004DB4FF00044404264EB0101141E73F161
:1004D000000405DB1C464FF00043524263EB04036B
:1004E000994208BF904230BD002801DBC0F10040B6
:1004F000002901DBC1F1004181427047002801DB86
:10050000C0F10040002901DBC1F100418842704781
:1005100030B50B46014600202022012409E021FAD3
:1005200002F59D4205D303FA02F5491B04FA02F5D0
:100530002844151EA2F10102F1DC30BD2DE9F05F67
:100540000546002092469B46884606468146402442
:100550001BE02846414647462246FFF751FE5346D8
:100560005A46C01A914110D311461846224600F04F
:100570005DFA2D1A67EB01084F4622460120002143
:1005800000F054FA17EB00094E41201EA4F10104BB
:10059000DFDC484631462A464346BDE8F09F002945
:1005A000A8BF7047401C490008BF20F001007047F9
:1005B00010B4B0FA80FC00FA0CF050EA010404BF59
:1005C00010BC704749B1CCF1200421FA04F411FAAF
:1005D0000CF118BF012121430843A3EB0C01CB1DF3
:1005E0004FEA00614FEA102042BF002010BC704764
:1005F00000EBC35010440029A4BF10BC7047401C3E
:10060000490008BF20F0010010BC704710B5141E4F
:1006100073F1000408DA401C41F1000192185B41BB
:100620001A4301D120F0010010BD2DE9F04D924692
:100630009B4611B1B1FA81F202E0B0FA80F22032A9
:10064000904600F0F3F904460F4640EA0A0041EAFA
:100650000B0153465A46084313D0114653EA010092
:1006600019D0C8F140025046FFF7CAFD05460E46B4
:1006700050465946424600F0D9F9084305D00120BA
:1006800004E020463946BDE8F08D0020054346EAE7
:10069000E0762C4337430A986305E40AA0EB080090
:1006A0000022FD0A44EA47540A3002D500200146E0
:1006B000E9E7010510196941DDE9084500196941BB
:1006C000BDE8F04DA2E72DE9FE4F804681EA030028
:1006D000C00F0C46009021F0004123F00045B8EB1C
:1006E0000200A94105D24046214690461C460B46D1
:1006F000024623F00040104347D0270DC7F30A00FD
:10070000C3F30A510290401A019040286BDAC3F3F8
:10071000130040F4801B0098924620B10023D2EBD6
:10072000030A63EB0B0B01985946C0F14002504697
:1007300000F07CF906460D4650465946019A00F0F5
:1007400084F910EB08006141002487EA115284EA21
:10075000E7731A4340D0009A62B3019A012A4FEA24
:10076000075215DC001B61EB02014FF0004202EA68
:100770000752CDE90042001C41F5801132462B465C
:10078000FFF753FF03B0BDE8F08F40462146F9E77D
:10079000001B61EB0201001C41F5801300185B4156
:1007A0002018A2F5001747EB030140EAD570B619EF
:1007B0006D4111E06D084FEA360645EAC0754FEA13
:1007C0000752001B61EB0201001C41F58011490832
:1007D0004FEA30000019514132462B4603B0BDE8C4
:1007E000F04FFFF713BF0098012240000023D0EB29
:1007F000020263EBE073009821464FEAE074B8EB25
:10080000000061EB0401E9E783F000435BE781F05E
:10081000004158E72DE9FE4F81EA030404F000444B
:1008200021F0004100944FF0000B23F0004350EA08
:1008300001045ED052EA03045BD0C3F30A54C1F34F
:100840000A552C44A4F2F3340194A0FB0254C1F3E2
:10085000130141F48011C3F3130343F4801301FB2C
:10086000024400FB034E840A970A44EA815447EA93
:100870008357A4FB076802958D0A05FB07854FEA9D
:10088000932C04FB0C542705029D4FEA065847EAB7
:100890001637B5EB08056EEB070C870E920E47EA8C
:1008A000811742EA8312A7FB0201B6EB0B0164EB4E
:1008B00000042B0D43EA0C335E1844EB1C50DA465F
:1008C0005146E7FB0201C5F313044FEA0B3343EA39
:1008D00014534FEA0432019C43EA0603A4F10C04CA
:1008E0000294009CCDE900B4FFF79FFE03B0BDE881
:1008F000F08F00200146F9E72DE9F04D81EA03046D
:1009000004F0004B21F0004514464FF0000A23F09C
:10091000004150EA050220D054EA01021DD0C5F37F
:100920000A570246C5F31303C1F31300C1F30A5675
:1009300040F4801543F48013A7EB0608101BD6463D
:1009400008F2FD3873EB050002D308F1010801E05D
:1009500092185B41B8F1000F03DA00200146BDE8B0
:10096000F08D00204FF48011064684460EE0171BE0
:1009700073EB050705D3121B63EB050306434CEA33
:10098000010C49084FEA300092185B4150EA010718
:10099000EDD152EA030012D082EA040083EA050195
:1009A000084305D0101BAB4106D20122002306E00C
:1009B00000224FF0004302E06FF0010253101AEBE7
:1009C00006004CEB085110EB0A0041EB0B01BDE8AF
:1009D000F04DFFF71BBEC1F30A52C1F3130140F201
:1009E000FF3341F480119A4202DA00200146704739
:1009F00040F233439A42A2F2334202DC5242FFF702
:100A0000FFBB00F013B80000064C074D06E0E0689D
:100A100040F0010394E8070098471034AC42F6D345
:100A2000FFF78AFB3499000854990008202A04DB58
:100A3000203A00FA02F1002070479140C2F12003F1
:100A400020FA03F3194390407047202A06DBCB17A6
:100A5000203A41FA02F043EAE07306E041FA02F379
:100A6000D040C2F12002914008431946704770B54A
:100A70008C1810F8015B15F0070301D110F8013B49
:100A80002A1106D110F8012B03E010F8016B01F8D0
:100A9000016B5B1EF9D12B0705D40023521E0DD428
:100AA00001F8013BFAE710F8013BCB1A921C03E076
:100AB00013F8015B01F8015B521EF9D5A142D8D3AE
:100AC000002070BD2DE9F041244F0D46064601225D
:100AD0001146384601F027FA01220221384601F07A
:100AE00022FA00F031FD1E480024047006F03FFD9C
:100AF0001B490322491CB82006F092FD032007F091
:100B000065FB08221749B82005F080FC0122114638
:100B1000384601F008FA01220221384601F003FAB2
:100B20000821104800F0CFF990B10E4C607921797E
:100B300000EB0120FFF78EFC3060E078A17800EB3D
:100B400001200A21B0FBF1F0FFF784FC286001E0EE
:100B500034602C604FF07E50BDE8F081000C014005
:100B600080130020F867002070B514460D46064635
:100B700008E03046711C8EB200F007F8641E05F8DC
:100B8000010BA4B2002CF4D170BD10B504460020B6
:100B900002F07CFC200AA02101EB4000C1B2002041
:100BA00002F00EFC002002F0F5FCE1B2002002F0A1
:100BB00007FC002002F0EEFC002002F067FCA121FF
:100BC000002002F0FDFB002002F0E4FC00210846BA
:100BD00002F07EFB0446002002F09AFC204610BD85
:100BE00070B516460C46054606E02178284600F00A
:100BF00007F86D1CADB2641C761EB6B2F5D270BD9E
:100C000070B504460D46002002F040FC200AA021E9
:100C100001EB4000C1B2002002F0D2FB002002F044
:100C2000B9FCE1B2002002F0CBFB002002F0B2FCE4
:100C30002946002002F0C4FB002002F0ABFC00209B
:100C400002F066FCBDE870400A2007F0BFBAFEE77C
:100C500008B5474C4FF0FF3529462B466A46002021
:100C600008F09CFB0128F7D10098C0B210285BD097
:100C700024DC012832D002283CD0042848D008289F
:100C8000EAD13CA006F05EFD4FF4A0413CA006F086
:100C900059FD08F081F801463FA006F053FD00F031
:100CA000D1F820680028D7D0002303225FF0080184
:100CB00008F09CFA0028CFD13BA043E0202844D084
:100CC00040284BD08028C7D13EA006F03BFD00F065
:100CD000CDF80023032280212068E9E73DA006F03B
:100CE00031FD00F0AFF820680028B5D000230322C2
:100CF00001210AE03AA006F025FD00F0A3F82068E3
:100D00000028A9D000230322022108F06FFAA3E7EC
:100D100036A006F017FD00F095F8206800289BD05B
:100D2000002303220421F0E733A006F00BFD00F0BE
:100D30009DF8002303221021206808F057FA0028AC
:100D40008AD131A006F0FEFC86E736A006F0FAFC58
:100D500000F08CF8002303222021BDE735A006F027
:100D6000F1FC00F083F8002303224021B4E70000E7
:100D700014000020C8A1CFFBB0B4BCFC0D0A0000D9
:100D8000544F54414C5F484541505F53495A4520A8
:100D90003D2025640D0A0000CAA3CFC248656170DA
:100DA0003D2025640D0A0000322073656E64206BBF
:100DB00065792076616C75652066616C73650D0AD6
:100DC00000000000C8A1CFFBB0B4BCFCB3A4B0B419
:100DD0000D0A0000B9A6C4DCB0B4BCFC0D0A0000CA
:100DE000CFF2C9CFB0B4BCFC0D0A0000CFF2CFC225
:100DF000B0B4BCFC0D0A0000D1A1D4F1B0B4BCFC6D
:100E0000B3A4B0B40D0A0000312073656E64206B8A
:100E100065792076616C75652066616C73650D0A75
:100E200000000000CFF2C9CFB0B4BCFCB3A4B0B492
:100E30000D0A0000CFF2CFC2B0B4BCFCB3A4B0B472
:100E40000D0A000010B5084C01220821204601F0CF
:100E50006AF8962007F0BAF920460022BDE8104053
:100E6000082101F060B80000000C014010B5084CEA
:100E700001220821204601F056F84FF4967007F041
:100E8000A5F920460022BDE81040082101F04BB82A
:100E9000000C014030B503464FF6FF704AF20104E2
:100EA0000DE000BF13F8012B50400022C5074FEAA8
:100EB000500000D06040521CD2B2082AF6D3491E1E
:100EC000C9B2EFD230BD30B505460C46881EC1B25E
:100ED0002846FFF7DFFF291911F8012CB2EB102F7C
:100EE00006D111F8021CC0B2814201D1FF2030BDF1
:100EF000002030BD10B5322218499020FFF734FE93
:100F0000164800F09DF9154A0319501C00F02AF903
:100F1000C418901C00F056FA044410480C3000F03D
:100F200029F904440D48163000F0B2F804440B4887
:100F3000203000F01FF804440848283000F0D6F9AB
:100F4000204410F0FF0F07D005A006F0FBFB322273
:100F500002499020FFF744FE002010BD07680020E2
:100F6000777269746520626F6172645F696E666F23
:100F70000D0A00002DE9FE430446006800906068F9
:100F800001902089ADF808000621684600F086FA35
:100F9000401C02D00020BDE8FE831E4F1E4E4FF0C5
:100FA000FF3800251DA006F0CDFB01222249234871
:100FB00001F0E6FF002342461946386807F06CFF4F
:100FC000012821D106211E4800F068FA81461C48FC
:100FD000FFF768F90C2812D8B9F1FF3F0FD00622AD
:100FE00017492046FFF752F9214616A006F0AAFB42
:100FF00040211348FFF72DF935700120CBE7402140
:101000000F48FFF726F9357001220B490B4801F014
:10101000B7FFC7E71C00002054000020CAE4C8EB5B
:10102000C9FAB2FAC8D5C6DA5C725C6EBDE1CEB25E
:10103000A3BA0D0A0000000055000020F4130020A0
:10104000FC15002025730D0A000000001CB50020CF
:101050008DF800008DF80400012269468A20FFF710
:1010600083FD012201A98B20FFF77EFD9DF804007E
:101070009DF8001040EA0120B0F5167F03D900204A
:1010800002F0E0FA1CBD014908801CBD14130020C9
:101090002DE9FE43044600680090606801902089B5
:1010A000ADF808000921684600F0F8F9401C02D0AC
:1010B0000020BDE8FE831E4F1E4E4FF0FF38002576
:1010C0001DA006F03FFB01222149224801F058FFF4
:1010D000002342461946386807F0DEFE012821D178
:1010E00009211D4800F0DAF981461B48FFF7DAF8BC
:1010F0000C2812D8B9F1FF3F0FD00922164920461B
:10110000FFF7C4F8214615A006F01CFB4021124849
:10111000FFF79FF835700120CBE740210E48FFF71D
:1011200098F8357001220A490A4801F029FFC7E7FB
:101130001C00002054000020CAE4C8EBC9E8B1B884
:1011400049445C725C6EBDE1CEB2A3BA0D0A0000E8
:1011500055000020F4130020FC15002025730D0A13
:10116000000000000178012901D001210170002058
:10117000704700002DE9FE4301680091416801912C
:1011800080460089ADF808001EA16846FFF76CF89C
:1011900010B10020BDE8FE831B4E1C4F1C4C4FF0CD
:1011A000FF3900251BA006F0CDFA01222249234871
:1011B00001F0E6FE00234A461946306807F06CFE4F
:1011C00001280CD11148FFF76DF80A2802D23878AF
:1011D00056280AD040210D48FFF73BF82570012220
:1011E0001549164801F0CCFEDCE722780749404655
:1011F000921EFFF74BF840210448FFF72AF82570AC
:101200000120C7E7560000001C000020FC1500204C
:1012100054000020CAE4C8EBD3B2BCFEB0E6B1BEB5
:101220005C725C6EBDE1CEB2B8F1CABD2856312EFB
:101230007829A3BA0D0A000055000020F4130020FD
:101240007FB58025002001240095CDE901040A4ED8
:101250006946304600F06EFD8021304600F05EFEAB
:101260000220CDE90240CDE900546946304600F045
:1012700061FD04B0002070BD001001401FB50122C7
:1012800069468220FFF770FC012201A98320FFF745
:101290006BFC9DF804009DF80010134C40EA0120FF
:1012A00042F2067160800A38884202D30A2002F0B6
:1012B00005FA012202A98420FFF756FC012203A9A6
:1012C0008520FFF751FC9DF80C009DF8081040EABE
:1012D000012000B242F20F71A080884202DD00209E
:1012E00002F016FA1FBD0000F81200202DE9FE439F
:1012F000044600680090606801902089ADF80800FD
:101300000821684600F0CAF8401C02D00020BDE861
:10131000FE831E4F1E4E4FF0FF3800251DA006F025
:1013200011FA01222249234801F02AFE00234246F5
:101330001946386807F0B0FD012821D108211E4860
:1013400000F0ACF881461C48FEF7ACFF0C2812D820
:10135000B9F1FF3F0FD0082217492046FEF796FF4C
:10136000214616A006F0EEF940211348FEF771FF62
:1013700035700120CBE740210F48FEF76AFF35703A
:1013800001220B490B4801F0FBFDC7E71C000020C0
:1013900054000020CAE4C8EBC1F7CBAEBAC538CEC2
:1013A000BB5C725C6EBDE1CEB2A3BA0D0A00000058
:1013B00055000020F4130020FC15002025730D0AB1
:1013C000000000002DE9FE43016800914168019191
:1013D00080460089ADF8080020A16846FEF744FF6A
:1013E00010B10020BDE8FE831D4E1E4F1E4C4FF075
:1013F000FF3900251DA006F0A5F901222449254842
:1014000001F0BEFD00234A461946306807F044FD4E
:1014100001280CD11348FEF745FF0A2802D238787C
:1014200056280AD040210F48FEF713FF25700122ED
:101430001749184801F0A4FDDCE722780949404625
:10144000921EFEF723FF074913A006F07BF9402107
:101450000448FEF7FEFE25700120C3E75600000099
:101460001C000020FC15002054000020CAE4C8EB3A
:10147000C8EDBCFEB0E6B1BE5C725C6EBDE1CEB242
:10148000B8F1CABD2856312E7829A3BA0D0A00003A
:1014900055000020F41300202573000002460020B0
:1014A00008E0135C303B092B02D94FF0FF30704746
:1014B000401C40B28842F4DB7047000070B598B021
:1014C00000246D4604EB440605EB860120010C2246
:1014D000FFF74AFB15F82600641CA04204D0002048
:1014E00002F02CF918B070BDE4B2082CEAD30A4D12
:1014F000002400BF04EB440005EB800120010C2216
:10150000FFF732FB641CE4B2082CF3D360220249DB
:101510000248FEF785FEE5E738670020986700205F
:1015200008B5012269468720FFF71EFB9DF80000E1
:10153000C11E622903D3032002F050F908BD0149FE
:10154000487008BDF81200200020034902460A54E2
:10155000401C0F28FBDB7047F8670020014800F0B3
:1015600083BA0000B8140020014800F07DBA0000E2
:10157000741400207047000070B50078424C434D51
:1015800086B0072829D2DFE800F004142A3B4C5D1E
:101590006E003F4E306800281FD114223D49684636
:1015A000FEF73EFE0021684606F026FE306003206E
:1015B0000FE0394E306800280FD13649142214311B
:1015C0006846FEF72DFE0021684606F015FE3060E5
:1015D00004202070286807F051FB06B070BD2F4E24
:1015E00030680028F9D12B49142228316846FEF7CB
:1015F00017FE0021684606F0FFFD30600520E8E791
:10160000274E30680028E8D1224914223C31684630
:10161000FEF706FE0021684606F0EEFD306006206B
:10162000D7E7204E30680028D7D11A49142250310C
:101630006846FEF7F5FD0021684606F0DDFD3060E6
:101640000720C6E7184E30680028C6D11149142279
:1016500064316846FEF7E4FD0021684606F0CCFDE3
:1016600030600820B5E7114E30680028B5D109492F
:10167000142278316846FEF7D3FD0021684606F053
:10168000BBFD30600920A4E7C4000020CC0000208E
:1016900010130020B89600082C13002028130020F7
:1016A0002013002050130020401300204813002076
:1016B00070B51B4D4FF40071284600F02FFC044616
:1016C000A915284600F02AFC1649097801EB4102C9
:1016D000154901EB820131F8062C1449B1F90010CB
:1016E0008A4203DA012C01D1012804D08A4208DDA4
:1016F000012C04D005E0BDE8704004F0EDBC0128E9
:1017000008D08A420AD10CB1002807D1BDE8704048
:1017100004F014BDBDE8704004F0AEBC70BD000024
:1017200000100140F812002038670020FC12002051
:101730002DE9F84F06460878DDF828801D46144646
:101740000F4650B9207861780844A178C0EB0010AA
:1017500001EB8000306001203870207861784C4ABD
:101760000844A178C0EB001001EB800012883168BA
:10177000DFF82091114488425CD3DFF81CA14FF4BC
:101780000071504600F0CAFB83464FF4807150460A
:1017900000F0C4FBBBF1010F43D1404A404901288E
:1017A0003FD11078934600EB400201EB82008A465D
:1017B00010F80A0CFEF74EFE00903B4839490068CD
:1017C000FEF701FE0099FEF799FE0CD23749B9F9F0
:1017D00000000988884206DAA8F800000120287075
:1017E00004F04AFC1DE09BF8000000EB40010AEB0E
:1017F000810010F8090CFEF72DFE82462A4829497F
:101800000068FEF7E0FD5146FEF76EFE09D2B9F919
:101810000000002805DDA8F800000220287004F070
:101820005BFC207861780844A178C0EB001001EBE4
:101830008000306029780020012917D0022925D1A5
:10184000217862781144A278C1EB011102EB810189
:101850003160B8F80010B9F900200A39914215DB5F
:1018600038702870BDE8F84F04F068BC21786278C1
:101870001144A278C1EB011102EB81013160B8F88B
:101880000010B9F900200A319142E9DDBDE8F88F76
:1018900014130020FC12002000100140F812002058
:1018A000386700200000204158130020FA12002061
:1018B000002200F001B8000030B50E4B05460120B3
:1018C0005C7A012C15D8587A00241C54587A03EB02
:1018D000800045605D7A03F108002A54587A421C62
:1018E0005A72303008703A2048702F208870CC70BF
:1018F000002030BD3C16002010B5094C09A0B4F9F9
:10190000041005F01FFF0020A080E08001F000FF20
:10191000B4F90410BDE8104002A005F013BF0000A8
:10192000F8120020475F4E6F775F526F7574652025
:101930003D2025640D0A00002DE9F05F90F821108C
:101940000024022903D004218163012485E0016879
:101950000A6822F00E020A6001680A6822F0010299
:101960000A603F4E3E4FB215DFF8F4C0DFF8F0904A
:10197000DFF8ECA0DFF8E8B0DFF8E4E00168783FDA
:1019800013011502ACF1640CA9F15009AAF13C0A4B
:10199000ABF1280BAEF1140E4FF48018B14227D9E9
:1019A000B9420ED0614512D049451DD0514518D0DD
:1019B000594518D0714501D1424615E0294EB14232
:1019C00001D1012210E0274E1436B14201D110227C
:1019D0000AE0244E2836B14206D0224A3C329142D7
:1019E00001D11A4600E02A461E49091F0A602BE071
:1019F000B94213D0614517D0494522D051451DD079
:101A000059451DD0714501D142461AE0B14202D17B
:101A10004FF0807215E0134EB14201D1012210E067
:101A2000104E1436B14201D110220AE00D4E283674
:101A3000B14206D00B4A3C32914201D11A4600E035
:101A40002A46074980394A60012180F82110002187
:101A500080F82010416B01B188472046BDE8F09F17
:101A600080000240080402402DE9F05FC16B0A6863
:101A700001680B68046C4FF0040808FA04F8844D00
:101A8000844E854FDFF814C2DFF81492DFF814A2F9
:101A9000DFF814B2DFF814E218EA020F65D05FEA4B
:101AA000437862D50A68920603D40A6822F00402D9
:101AB0000A60DFF8F0814FF48062016808F11408D1
:101AC00013011402414524D9A9420DD0B1420FD0CF
:101AD000B9421AD0614515D0494515D0514501D1BB
:101AE000120312E0594501D104220EE0714501D1E3
:101AF00040220AE06D4D1435A94206D06B4A2832C7
:101B0000914201D11A4600E022466749091F0A6046
:101B100029E0A94213D0B14215D0B94220D0614585
:101B20001BD049451BD0514502D14FF4800217E02C
:101B3000414502D14FF0806212E0594501D10422A3
:101B40000EE0714501D140220AE0584D1435A942FA
:101B500006D0564A2832914201D11A4600E0224668
:101B60004B4908394A60C16A71E04FF0020808FA2F
:101B700004F818EA020F70D05FEA83786DD50A681E
:101B8000920606D40A6822F00A020A60012180F84F
:101B90002110DFF810814FF40072016808F1140879
:101BA00013011402414524D9A9420DD0B1420FD0EE
:101BB000B9421AD0614515D0494515D0514501D1DA
:101BC000120312E0594501D102220EE0714501D104
:101BD00020220AE0354D1435A94206D0334A283276
:101BE000914201D11A4600E022462F49091F0A609E
:101BF00029E0A94213D0B14215D0B94220D06145A5
:101C00001BD049451BD0514502D14FF4001217E0BB
:101C1000414502D14FF0007212E0594501D1022234
:101C20000EE0714501D120220AE0204D1435A94271
:101C300006D01E4A2832914201D11A4600E02246BF
:101C4000134908394A60002180F82010816A002970
:101C50001CD0BDE8F05F0847FFE70825A540154206
:101C600014D01A0712D50A6822F00E020A6090F802
:101C70004020C36B012101FA02F25A60816380F8AF
:101C80002110002180F82010016BE0E7BDE8F09FF3
:101C9000080002401C0002403000024044000240A4
:101CA000580002406C000240080402401C0402403C
:101CB00030B560B11C4A03681421934209D21B4A13
:101CC0001A44B2FBF1F18900016419490AE00120CC
:101CD00030BD154A52421A44B2FBF1F18900016449
:101CE00011490839C163022180F821101A6843F6AE
:101CF000F0718A43F0E901142143D0E902452C43F5
:101D000021430469214344692143846921431143E8
:101D10001960002141628162C16201634163012255
:101D200042770177084630BD08040240F8FFFDBF46
:101D3000000002402DE9F84FDFF8B8A100220AF1B7
:101D4000040B144601274FF00F090BF1040E00BFDE
:101D50000B6807FA04F52B40AB4274D1DFF898C149
:101D60004E68A6EB0C0866452BD00DDC032E34D054
:101D700005DC36B3012E19D0022E2FD11BE0112E17
:101D800016D0122E2AD119E0B8F5881F19D006DC1A
:101D9000B8F5803F15D0B8F5801F1FD111E0B8F518
:101DA000001F0ED0B8F5041F18D10AE0CA6815E06C
:101DB000CA68121D12E0CA6808320FE0CA680C3205
:101DC0000CE08A682AB1012A4FF0080203D045616D
:101DD00004E0042202E0056100E00022FF2B01D8AC
:101DE000064601E000F104064FEA840501D9A5F199
:101DF0002005D6F800C009FA05F82CEA080C02FA0A
:101E000005F54CEA050CC6F800C04D68ED006AD532
:101E10003A4DAE6946F00106AE61AD6924F00306A5
:101E200005F001050095364D06EB050CDCF8085071
:101E3000A6074FEA167809FA08F6B543314EB042C4
:101E400002D100261AE04EE02F4EB04201D1012609
:101E500014E02E4EB04201D102260FE02C4EB042CB
:101E600001D103260AE02B4EB04201D1042605E041
:101E7000294EB04201D1052600E0062606FA08F6F2
:101E80002E43CCF808604D68DAF80060ED03554643
:101E900001D51E4300E09E432E604D68AD0305D57D
:101EA000DBF800601E43CBF8006004E0DBF8005074
:101EB0009D43CBF800504D68DEF80060ED0275469A
:101EC00001D51E4300E09E432E604D68AD0205D54E
:101ED000084D0C352E681E432E6004E0054E0C366E
:101EE00035689D433560641C102CFFF431AFBDE8AC
:101EF000F88F0000000401400000111000100240A3
:101F00000000014000080140000C014000100140A9
:101F10000014014000180140001C01408068084086
:101F200000D0012070470AB1016170470904FBE746
:101F3000014880687047000048000020024881681E
:101F4000027811448160704748000020074810B5AE
:101F5000016841F010010160032000F09DF80F209E
:101F600000F006F800F024F8002010BD0020024028
:101F700070B50D4D04464FF47A712878B1FBF0F03E
:101F80000A490968B1FBF0F000F096FE48B9102C40
:101F900007D200222146501E00F05EF800206C603F
:101FA00070BD012070BD00004800002058000020D6
:101FB000214808B5816941F001018161816901F021
:101FC00001010091C16941F08051C161C06900F017
:101FD00080500090032000F05FF8002211466FF05F
:101FE0000B0000F039F8002211466FF00A0000F0F3
:101FF00033F8002211466FF0090000F02DF800229E
:102000001146501F00F028F800221146101F00F062
:1020100023F800220F21901E00F01EF800220F214D
:10202000501E00F019F80548416821F0E06141F0C8
:102030000071416008BD0000001002400000014036
:1020400000F01F02012191404009800000F1E020D2
:10205000C0F8001170470000F0B40E4B1B680C462E
:10206000C3F30223C3F10705042D00D90425191D6C
:10207000072901D2002300E0DB1E012606FA05F144
:10208000491E214099409E40761E16403143F0BCC7
:1020900004F0A1B80CED00E0064900F00702086862
:1020A0004FF6FF03184040EA0220034A104308603D
:1020B000704700000CED00E00000FA050149012026
:1020C0000862704700000E4210B52CA401461DCCDA
:1020D00086B08DE81D002DA02D4C006804900020D6
:1020E00004292FD00BDC01292FD0022928D100F0A0
:1020F0008BF96168C1F38131491C49001EE0082950
:1021000020D010291CD161682268D20118D5C1F3F2
:102110008342C9031DF8020009D5616804AAC1F30E
:102120004041515C1B4AB2FBF1F1484301E01A49BE
:1021300048436168490203D440000321B0FBF1F039
:1021400006B010BD00F070F9FAE7226AC2F301216F
:10215000012903D1920701D5C803F1E7022905D16E
:10216000626A920702D549F64040E9E70329E7D1C0
:1021700021688903E4D54FF22440E1E70203040516
:10218000060708090A0B0C0D0E0F101001020000C3
:102190000010024000127A0000093D002DE9F843CA
:1021A00005460078354CC00754D0E0690026C000D1
:1021B00008D4E06940F08050E061E069012600F059
:1021C000805000902E480168C90512D401688046ED
:1021D00041F480710160FFF7ABFE074605E000BFE8
:1021E000FFF7A6FEC01B642823D8D8F80000C0055E
:1021F000F6D5206A10F4407021D0A98801F440710E
:1022000081421CD0206A1F49012220F440700A60DC
:1022100000220A602062C00711D0FFF789FE07463E
:1022200041F2883808E000BFFFF782FEC11B41453C
:1022300002D90320BDE8F883206A8007F4D5206A1C
:10224000696820F44070084320621EB1E06920F004
:102250008050E0612878800705D56068A96820F47F
:102260004040084360602878C00605D56068696909
:1022700020F48000084360600020DBE7001002408B
:1022800000700040400442422DE9F047DFF83C81F5
:1022900005460E46D8F8000000F00700B0420CD208
:1022A000D8F8001021F007013143C8F80010D8F821
:1022B000000000F00700B04263D12878444C80074A
:1022C00005D56068A96820F0F000084360602878B0
:1022D000C00745D06868012816D02168022816D0AA
:1022E000890700294DDA616821F00301014361602B
:1022F000FFF71EFE6968074641F2883001290FD0BA
:102300000229814619D027E021688903E9E789017C
:10231000E7E700BFFFF70CFEC11B494501D918E0F4
:1023200081466068C0F381000128F3D118E000BF46
:10233000FFF7FEFDC11B49450BD86068C0F3810063
:102340000228F5D10CE000BFFFF7F2FDC11B4945A3
:1023500002D90320BDE8F087606810F00C0FF3D1BC
:10236000D8F80010404601F00701B1420BD90168CE
:1023700021F0070131430160006800F00700B0421E
:1023800001D00120E6E72878400705D56068E968B4
:1023900020F4E060084360602878000706D5606894
:1023A000296920F4605040EAC100606000F03CF808
:1023B0006168084AC1F30311515CC84006490860CE
:1023C0000F20FFF7D5FD0020C4E7000000200240E9
:1023D00000100240009600085800002001480068E4
:1023E000704700005800002004480549006849680B
:1023F000044AC1F30221515CC840704758000020D4
:102400000010024010960008044805490068496819
:10241000044AC1F3C221515CC840704758000020F3
:10242000001002401096000812A185B00FC98DE877
:102430000F0014A0144A006804905168134801F07A
:102440000C03042B10D0082B0ED1C1F38343C90316
:102450001DF803000AD5516804AAC1F34041515C3C
:102460000A4A5043B0FBF1F005B0704708494843B1
:10247000FAE7000002030405060708090A0B0C0D21
:102480000E0F1010010200000010024000127A002E
:1024900000093D002DE9F84F04460078B94DC0070A
:1024A00048D06868C0F38100012807D06868C0F38D
:1024B0008100022809D16868C00306D52868800316
:1024C00038D5606800286FD034E06068B0F5803F90
:1024D0000BD010B1B0F5A02F11D0286820F48030B7
:1024E0002860286820F4802002E0286840F48030CA
:1024F0002860606888B1FFF71BFD064609E0286880
:1025000040F480202860F0E7FFF712FD801B64286C
:1025100075D828688003F7D50CE0FFF709FD06465B
:1025200005E000BFFFF704FD801B6428F0D8286891
:102530008003F7D42078944E80074FF001094FF0C4
:1025400000083BD5686810F00C0F07D06868C0F32E
:102550008100022809D16868C00306D42868800772
:1025600014D5206901281FD110E02069B0B1C6F848
:102570000090FFF7DDFC074605E000BFFFF7D8FC41
:10258000C01B0228C4D828688007F7D5286861696D
:1025900020F0F80040EAC10028600FE0C6F8008093
:1025A000FFF7C6FC074606E0E9E000BFFFF7C0FC06
:1025B000C01B022823D828688007F7D4207800079A
:1025C0002CD57248A169D9B1C0F80090FFF7B0FCD2
:1025D000074604E0FFF7ACFCC01B02280FD8686A6E
:1025E0008007F7D56A484FF4FA510068B0FBF1F064
:1025F000009000BF0098411E0091FAD20EE080E0EA
:10260000C0F80080FFF794FC074604E0FFF790FC59
:10261000C01B022875D8686A8007F7D42078400765
:1026200060D5E8690027C00008D4E86940F0805010
:10263000E861E869012700F0805000905548016882
:10264000C90513D40168834641F480710160FFF726
:102650006FFC824606E000BFFFF76AFCA0EB0A00B1
:1026600064284ED8DBF80000C005F5D5E0680128E5
:102670000AD008B1052813D0286A20F0010028628A
:10268000286A20F0040002E0286A40F00100286275
:10269000E06841F2883B98B1FFF74AFC82460BE0C4
:1026A000286A40F004002862EEE700BFFFF740FC14
:1026B000A0EB0A0159455AD8286A8007F6D50CE0E4
:1026C000FFF736FC824605E0FFF732FCA0EB0A017B
:1026D00059454CD8286A8007F6D41FB1E86920F024
:1026E0008050E861E06988B36968C1F3810102291B
:1026F00045D00228C6F8608004D0FFF719FC0446D4
:1027000038E034E0FFF714FC074604E0FFF710FC64
:10271000C01B02282BD828688001F7D4206AB0F5A6
:10272000803F05D16868A16820F4003008436860E4
:10273000D4E908010843696821F47411084368600A
:10274000C6F86090FFF7F4FB044606E015E000BF12
:10275000FFF7EEFB001B022809D828688001F7D597
:102760000BE000BFFFF7E4FB001B022802D90320A7
:10277000BDE8F88F28688001F4D40020F8E7012034
:10278000F6E700000010024000004242800442428E
:1027900058000020007000402DE9F04791460C469B
:1027A0005FEA00084AD084B3D8F8000040684007C8
:1027B00044D4404603F0C6FD4FF461620546B0FBC9
:1027C000F2F1B0FBF2F302FB13503C23B0FBF3F049
:1027D000B5FBF2F6607002FB1650B0FBF3F203FBA0
:1027E0001200A070182931D31820B1FBF0F7B1FB0B
:1027F000F0F200FB12102070404603F09CFD411CDB
:1028000004D0A84202D9461B02E017E04FF0FF3681
:10281000A7EB071000EB4000C0EB001005EBC01564
:102820002946404603F0DDFD40B9701C01D0711906
:1028300000E03146404603F0C0FD10B10120BDE884
:10284000F0873946404603F0EAFC00E02170B9F118
:10285000000F0BD0207803F0D7FC2070607803F0D5
:10286000D3FC6070A07803F0CFFCA0700020E6E7F6
:1028700070B5040003D0607C002610B105E0012093
:1028800070BD2674204600F043F802206074204694
:1028900000F010F9042578BB204603F017FD58BB63
:1028A0002068416821F007014160A06820B1174805
:1028B000016821F0010101601448001F0168A2684D
:1028C00021F46071114301606068411C04D1012052
:1028D000FFF7FAFB80B1401E21688A6822F00F02E0
:1028E00042EA10428A602168CA6860F30F02CA6037
:1028F000204603F005FD08B16574C0E7E6730120CA
:102900006073A0736074002070BD0000306C0040E4
:1029100008B50068084988420DD1FFF7CFFB07488A
:10292000C16941F00061C161C069054900F0006002
:1029300000900120086008BD0028004000100240FF
:102940003C0442422DE9F0410D4604003BD0C5B3A2
:10295000207C01283AD04FF0010884F81080022032
:102960006074E87872B303F046FCE073687803F0B3
:1029700042FC6073A87803F03EFCA073C2B2617B96
:10298000E07B03F0EFFC20732870204603F0DAFCB4
:102990004FF46161B0FBF1F1002518292DD91822FF
:1029A000B1FBF2F1A1EB011101EB4101C1EB01110E
:1029B00000EBC1163146204603F013FD0427C8B9C9
:1029C0000BE000E004E00120BDE8F0810220FBE71D
:1029D000E07368786073A878CFE7204603F0ABFC1B
:1029E000411C0AD0B04208D206490144204603F0F7
:1029F000E4FC10B167742574E5E784F81180257450
:102A00000020E1E7805101002DE9F0410D4604006E
:102A100024D01DB3207C012823D04FF0010884F876
:102A20001080022060742878EAB103F0E4FB4FF4D0
:102A3000616100FB01F6687803F0DDFBC0EB00107C
:102A400006EB8006A87803F0D6FB35182946204609
:102A500003F0C7FC0026042710BB0FE00120BDE8EF
:102A6000F0810220FBE74FF4616148436978C1EBD4
:102A7000011100EB8100A9784518E7E7206841685B
:102A800021F005014160204603F055FC411C0AD0AD
:102A9000A84208D206490144204603F08EFC10B13A
:102AA00067742674DAE784F8118026740020D6E76C
:102AB0008051010070B504000AD02068416821F0FF
:102AC00008014160FFF734FA05464FF47A7608E0D2
:102AD000012070BDFFF72CFA401BB04201D9032042
:102AE00070BD206840680007F4D5002070BD7047B5
:102AF00038B504460068426881684B0605D4CB07A8
:102B000003D0530601D5216C04E08B0707D51306CB
:102B100005D5616C01B02046BDE83040084711F092
:102B2000600F3FD093063DD54B060AD594F851303F
:102B3000032B34D0636D43F004036365C36883687B
:102B40000093890609D5616D41F0010161658168D5
:102B50000091016821F040010160606D002821D0E2
:102B60002068416821F0E0014160012084F85100B3
:102B7000900718D02068416821F0030141600C4D96
:102B8000E06C18B14563E06CFEF7D6FEA06C00283F
:102B900008D04563A06CBDE83840FEF7CDBEC168E3
:102BA0008068009038BD2046FFF7A1FF38BD0000C7
:102BB0004D65000870B5040005D00025A56294F8A5
:102BC000510010B104E0012070BD204600F034F83F
:102BD000022084F851002068016821F04001016062
:102BE000D4E901010843D4E90312114308436169A0
:102BF0000843218B01F400710843E1690843216A0D
:102C00000843A16A084321680860A069042101EA19
:102C10001040616A0843216848602168E06A0861E1
:102C20002068C16921F40061C1616565012084F8F3
:102C30005100002070BD000010B50068154986B035
:102C4000884224D11448816941F4805181618069AE
:102C5000124C00F480500490A020009002200190BB
:102C60000320039069462046FFF764F800214020C6
:102C7000CDE90001029169462046FFF75BF800228A
:102C800005212320FFF7E8F92320FFF7D9F906B043
:102C900010BD00000030014000100240000801405B
:102CA0004FF0E0210428086903D020F004000861F7
:102CB000704740F00400FAE710B5401EB0F1807F85
:102CC00001D3012010BD4FF0E02460610F21601797
:102CD00003F081FA0020A06107202061002010BDD0
:102CE0007047000070B5026804461068D1685369E7
:102CF00010F00F0F50D003F0010501F4907635432A
:102D00005DD0C20705D0CA0503D5E26B42F00102CF
:102D1000E263420705D5DA0703D0E26B42F0020214
:102D2000E263820705D5DA0703D0E26B42F00402C2
:102D3000E263020705D5DA0703D0E26B42F008022E
:102D4000E263E26B002A33D0800604D5880602D500
:102D5000204604F081FA20684069E16BC0F38010DE
:102D6000090700D428B3204604F068FA20684169B6
:102D700049061AD5416921F040014161606BA0B15B
:102D80001B494163606BFEF7D7FD002810D0606BD4
:102D9000416BBDE870400847830610D58B060ED501
:102DA0002046BDE8704004F057BA2046FFF798FF70
:102DB00070BD2046FFF794FF0020E06370BD03065E
:102DC00006D50B0604D52046BDE8704004F048BB8C
:102DD0004006F3D54806F1D5D168204621F04001E0
:102DE000D160202184F8391000F07DF970BD000019
:102DF0002D72000870B5040004D094F83900002545
:102E000010B106E0012070BD84F83850204600F073
:102E100023F8242084F839002068C16821F4005187
:102E2000C160204604F064FA2068016921F49041F1
:102E300001612068416921F02A0141612068C1686F
:102E400041F40051C160E563202084F8390084F822
:102E50003A00002070BD0000F0B506463A4F036806
:102E60003A48022103223A4D002485B0BB4219D1D1
:102E7000836943F4804383618069039200F4804056
:102E800004900802CDE9000169462846FEF752FF8A
:102E90002815CDE90004694628460294FEF74AFF4A
:102EA00005B0F0BD2B4FBB42FAD1C36943F40033E8
:102EB000C361C069039200F4003004900420CDE99E
:102EC000000169462846FEF735FF0820CDE90004D9
:102ED000694628460294FEF72DFF204D1E488027A4
:102EE00001C5102091C51D4845F810496C61AC61C1
:102EF000EC61FEF7DDFE20B140F2071118A004F0EE
:102F000015FC35636E6214481C4D1438C5E9000485
:102F1000C5E902472C614FF440506C61C5E9064099
:102F20002846FEF7C5FE20B140F217110CA004F0B0
:102F3000FDFB75630022052126206E62FFF78CF8E9
:102F40002620FFF77DF8ABE7003801400010024073
:102F5000000801400044004080000240741400203A
:102F60002E2E2F5372632F73746D3332663178783F
:102F70005F68616C5F6D73702E630000B814002091
:102F800090F83A30202B22D1F9B1F2B190F83830D4
:102F9000012B1CD081628285C2850021C16322225F
:102FA00080F83A2080F838100168CA6842F48072CC
:102FB000CA6001684A6942F001024A610068C1685A
:102FC00041F02001C16000207047012070470220BD
:102FD0007047000008B500680F4988421BD10F48B0
:102FE0000F49027843788B54521CD2B20270881871
:102FF00010F8011C0A2908D110F8020C0D2804D180
:1030000008486946006806F041F804490122491C55
:103010000548FFF7B5FF08BD003801405400002007
:10302000FC1500201C000020F41300202DE9F843BB
:10303000044690F839001F4616460D46202850D108
:10304000A5B19EB194F8380001284AD0012084F837
:1030500038004FF00008C4F83C80212084F8390083
:10306000FEF766FFA6848146E68426E00120BDE8DF
:10307000F883E08C401EE084A0684B46B0F5805F8A
:103080004FF000024FF080012046009703D004F07B
:1030900018FAE8B90DE004F014FAC8B928882168D4
:1030A000C0F308004860206908B16D1C05E0AD1C44
:1030B00003E0216815F8010B4860E08C0028D8D1A6
:1030C0004B46002240212046009704F0FAF908B14F
:1030D0000320CCE7202084F8390084F838800020D1
:1030E000C5E70220C3E7704701A004F02BFBFBE714
:1030F000686172646661756C740D0A0070B51F4C6E
:1031000005004FF000021DD002212046FEF70BFF04
:10311000284603F0F9F9002201212046FEF703FFBB
:103120000A2004F0A1FF012202212046FEF7FBFE47
:103130000A2004F099FF002202212046BDE87040D9
:10314000FEF7F1BE4FF4004631462046FEF7EBFE97
:10315000284603F0D9F9002240210948FEF7E3FE92
:10316000022004F081FF012231462046FEF7DBFEFB
:10317000022004F079FF00223146DEE7000C014016
:10318000001001402DE9F04101002B48DFF8AC8030
:1031900086B04FF001044FF0020520D001291BD169
:1031A000816941F0080181618069694600F0080089
:1031B00004900320CDE900044046CDE90245FEF726
:1031C000B9FD012202214046FEF7ADFE0122114663
:1031D0004FEA0800FEF7A7FE06B0BDE8F08181695E
:1031E00041F004018161816901F004010491816968
:1031F00041F0080181618069002700F00800029712
:10320000CDE903504FF40046CDE9006469464046DD
:10321000FEF790FD402003958DE89100694608482F
:10322000FEF788FD002231464046FEF77CFE002274
:1032300040210448CEE7000000100240000C01408D
:10324000000801400010014070B51F4C05004FF010
:1032500000021DD002212046FEF765FE284603F03D
:1032600053F9012211462046FEF75DFE0A2004F0C4
:10327000FBFE012202212046FEF755FE0A2004F043
:10328000F3FE002202212046BDE87040FEF74BBE4F
:103290004FF4004631462046FEF745FE284603F02F
:1032A00033F9012240210948FEF73DFE022004F0D7
:1032B000DBFE012231462046FEF735FE022004F0F7
:1032C000D3FE00223146DEE7000C01400010014031
:1032D0002DE9F047384D88465FEA00094FF00004B9
:1032E00034D003F0F5F801220824002611462846C0
:1032F000FEF719FE002202212846FEF714FE0A20DE
:1033000004F0B2FE7006060E641EE4B20122022131
:103310002846FEF708FE0A2004F0A6FE01212846F2
:10332000FEF7FCFD012840D006F0FE06002CE1D19E
:10333000002202212846FEF7F6FDB8F1000F4846AC
:1033400036D0FFF7DBFE3046BDE8F08703F0C0F86B
:10335000DFF868A000264FF40047002239462846CF
:10336000FEF7E1FD022004F07FFE012239462846E7
:10337000FEF7D9FD6006040E40215046FEF7CEFD53
:1033800008B1641CE4B2012004F06EFE761CF6B2B3
:10339000082EE2D3B8F1000F484603D0FFF7AEFE87
:1033A0002046D1E7FFF750FFFAE746F00106BDE7F8
:1033B000FFF74AFFC7E70000000C01400010014082
:1033C0002DE9F0412F4D0C4660B103F09DF800222D
:1033D00002212E462846FEF7A6FD0025200631D5FF
:1033E000012230E003F090F84FF400470022394604
:1033F0002846FEF798FDDFF890800026200601D5CC
:10340000012200E0002240214046FEF78CFD6006CC
:10341000040E022004F028FE012239462846FEF759
:1034200082FD022004F020FE002239462846FEF7E5
:103430007AFD022004F018FE761CF6B2082EDDD3C9
:10344000BDE8F081002201213046FEF76CFD6006E8
:10345000040E082004F008FE012202213046FEF787
:1034600062FD082004F000FE002202213046FEF733
:103470005AFD082004F0F8FD6D1CEDB2082DADD307
:10348000DEE70000000C01400010014070B51E4C4A
:10349000E8B103F039F8012211462046FEF743FD5A
:1034A000012202212046FEF73EFD082004F0DCFD4B
:1034B000002201212046FEF736FD082004F0D4FD4D
:1034C000002202212046BDE87040FEF72CBD03F02B
:1034D0001BF80E4D012240212846FEF724FD012253
:1034E000D60331462046FEF71EFD042004F0BCFD45
:1034F000002240212846FEF716FD042004F0B4FD0A
:1035000000223146DEE70000000C014000100140BF
:1035100070B51E4CC0B102F0F7FF00220121204619
:10352000FEF701FD082004F09FFD01220221204644
:10353000FEF7F9FC082004F097FD2046BDE8704036
:1035400001221146FEF7EFBC02F0DEFF4FF400450A
:10355000002229462046FEF7E6FC0D4E00224021BF
:103560003046FEF7E0FC042004F07EFD01222946EF
:103570002046FEF7D8FC012240213046FEF7D3FC5E
:10358000BDE87040042004F06FBD0000000C014055
:10359000001001402DE9F041284D06004FF00004D5
:1035A00012D002F095FF012211462846FEF7BBFC1F
:1035B0000A2004F059FD012202212846FEF7B3FC3F
:1035C0000A2004F051FD2CE002F082FF1C4F012282
:1035D00040213846FEF7A7FC012004F045FD4FF4DA
:1035E0000048012241462846FEF79DFC012004F0D8
:1035F0003BFD03E0641CE4B2FA2C0CD840213846B1
:10360000FEF78CFC0028F5D10022414611E0641C35
:10361000E4B2FA2C05D93046FFF77AFF0120BDE865
:10362000F08101212846FEF779FC0028EFD1002225
:1036300002212846FEF777FC0020F0E7000C01404D
:10364000001001401CB50446000A8DF800008DF8FA
:103650000440012269468A20FDF7C2FA012201A92D
:103660008B20FDF7BDFA014804801CBD1413002017
:1036700008B5012269468020FDF776FA9DF9000021
:10368000323065280CD305208DF8000001226946F0
:103690008020FDF7A5FA012269468020FDF764FA33
:1036A0009DF90000FCF7CDFE0249FCF78CFE0249B3
:1036B000086008BD00002041541300207CB5124D65
:1036C000010A012268808DF800108DF80400694617
:1036D0008220FDF785FA012201A98320FDF780FAF7
:1036E0000A4E002404EB440006EB80016888CA8877
:1036F000824204D9C88020010C22FDF771FA641CB3
:10370000E4B2082CEED37CBDF8120020386700200C
:103710001CB5094901228880010A8DF800108DF836
:10372000040069468420FDF75BFA012201A9852087
:10373000FDF756FA1CBD0000F81200202DE9F041FB
:10374000002601271A4D1DE000EB4001441C05F83E
:10375000214005EB810117220A723B224A728A72CC
:103760000E7119228A701422CA70CE804F7020B94F
:103770002F7104232B726E72AE7200010C22FDF7C2
:103780002FFAE0B20828DFD30A4D002404EB4400EE
:1037900005EB800120010C22FDF7E6F9641CE4B280
:1037A000082CF3D3BDE8F0410C2103A003F0CABFFD
:1037B0009867002038670020777269746520616C13
:1037C0006C205374726174656779207375636365E7
:1037D0007373256421210D0A0000000001B5012248
:1037E00069468720FDF7FCF902499DF80000487002
:1037F00008BD0000F812002000F040B82DE9F041AB
:103800000E460746B024204603F0C4FE102003F005
:10381000C1FE002003F0BEFE0025384603F040FF45
:10382000304603F03DFF6D1CEDB2802DF5D3641CD6
:10383000E4B2B82CE7D3BDE8F08100000E4810B523
:1038400000784FF000030A284FF02D0208D04421E1
:10385000B32001F021FB00232D225421B32007E0E7
:103860006421B52001F018FB00232D227421B5201E
:10387000BDE8104001F010BBC400002070B50C463C
:10388000054600230E221421B72001F005FB00237A
:103890000F222421B72001F0FFFA00231022342147
:1038A000B72001F0F9FA002311224421B72001F0DA
:1038B000F3FA00233A225421B72001F02BFB2146D2
:1038C000284600F0BDF800232A225221B52001F03D
:1038D000E3FA002302221421B32001F0DDFABDE84F
:1038E0007040002303222421B32001F0D5BA000048
:1038F0002DE9F041444C454E4FF00108217819B9AB
:103900003188618084F80080002509287AD2DFE8B8
:1039100000F0050C14793E7979795B00BDE8F0413F
:103920003949491C481CFFF767BF6078032802D259
:10393000401C607041E065703FE060784FF41671A4
:1039400030B1012809D002280CD0032835D10CE071
:103950006088643003E060802FE060880A3088422D
:10396000F9D92AE06088401CF9E72749491C481C1E
:1039700000F066F860883080FFF764FE01F0D0F94F
:1039800040F2DC5004F022FCFFF758FF15E06078AD
:1039900020B1012807D002280FD109E060886428EF
:1039A0000BD46438D7E760880A2806D40A38D2E7EF
:1039B0006088012801D4401ECDE7BDE8F0411249DE
:1039C000491C481C00F03CB8114F3878072819D121
:1039D00010A003F0B7FE00210846FFF70FFF0020FC
:1039E00000F0F2FB308860802570022038701248A9
:1039F0006570006805F0BEF8104861684160656058
:103A000080F80080BDE8F0814C13002014130020E2
:103A1000C40000206E6F775F70616765203D3D20B8
:103A200044656C61795F496E7370656374696F6E2C
:103A30005F706167650D0A00CC0000202000002047
:103A400038B50C460546302203216846FCF7FAFBE0
:103A50002A881FA1684603F085FE207868B30023FA
:103A60009DF800203A21B52001F054FA2078012871
:103A700025D000239DF801204221B52001F04AFA0B
:103A8000207802281DD000239DF802204A21B5206D
:103A900001F040FA2078032815D0002302221421D7
:103AA000B32001F0F9F9207803280ED00023032277
:103AB0002421B32001F0F0F938BD0123D0E7012320
:103AC000D8E70123E0E70123E8E70123EFE700005F
:103AD000253033640000000010B50078042826D09B
:103AE0000024234635220421B72001F013FA23468F
:103AF0002E220C21B72001F00DFA23460E221421AC
:103B0000B72001F0C9F923460F222421B72001F084
:103B1000C3F9234610223421B72001F0BDF9234612
:103B200011224421BDE81040B72001F0B5B90124AD
:103B3000D7E710B50078032826D000242346342286
:103B40000421B12001F0E6F923462E220C21B120F8
:103B500001F0E0F923460A221421B12001F09CF97A
:103B600023460B222421B12001F096F923460C2292
:103B70003421B12001F090F923460D224421BDE803
:103B80001040B12001F088B90124D7E770B50C4688
:103B9000054600230A221421B72001F07DF90023F5
:103BA0000B222421B72001F077F900230C223421C5
:103BB000B72001F071F900230D224421B72001F054
:103BC0006BF900233A225421B72001F0A3F92146D2
:103BD000284600F0BDF800232F225421B52001F023
:103BE0005BF9002302221421B32001F055F9BDE84E
:103BF0007040002303222421B32001F04DB90000BE
:103C00002DE9F047424C8046DFF808916078424F3A
:103C1000012638B949463868FCF7A3FBFCF71FFCBE
:103C2000207066703A480025B8F1090F80786CD290
:103C3000DFE808F0050C176B3C6B6B6B4600BDE8CA
:103C4000F0473349891C881E01F0B7B838B1A57018
:103C5000BDE8F0472E49891C881E00F079B8A6708F
:103C6000F6E7E8B1012850D12949891C881E00F0E7
:103C70006FF894F90000FCF7E4FB4946FCF7A3FB5E
:103C80003860012222498020FCF7AAFF01F048F8A1
:103C900040F2DC5004F09AFABDE8F047FFF7CEBDE1
:103CA00094F90000322830DA401C07E000282CD1BB
:103CB00094F9000010F1320F27DD401E2070C7E795
:103CC000DFF8588098F8000006281ED114A003F0F1
:103CD00039FD00210846FFF791FD002000F074FA3D
:103CE00049463868FCF73DFBFCF7B9FB207065706E
:103CF000022188F800101448A570006804F03AFF0B
:103D000012486168416065600670BDE8F087000098
:103D10001C1300200000204154130020C400002088
:103D20006E6F775F70616765203D3D2048554D4956
:103D30005F436F6D70656E736174696F6E5F706104
:103D400067650D0A00000000CC0000202000002064
:103D50007CB50C460546302205216846FCF772FA10
:103D600095F90020002A28DB39A1684603F0FAFC07
:103D70002078E0B15FF000039DF800202A21B520F3
:103D800001F0C8F82078A0B100232E223221B520FE
:103D900001F0C0F8207870B15FF000039DF80120B9
:103DA0003A21B52001F0B6F8002320222AE00123B1
:103DB000E2E70123E9E70123F0E727A1684603F0E2
:103DC000D1FC2078A8B300239DF800202A21B5203B
:103DD00001F0A0F8207868B35FF000039DF801209F
:103DE0003221B52001F096F8207840B300232E222E
:103DF0003A21B52001F08EF8207810B35FF000036F
:103E00009DF802204221B52001F084F82078012895
:103E100019D0002302221421B32001F03DF82078AC
:103E2000012812D0002303222421B32001F034F80A
:103E30007CBD00E001E00123C6E70123CEE70123BA
:103E4000D5E70123DCE70123E4E70123EBE70000EA
:103E5000253032640000000025303364000000008B
:103E600010B50078022826D00024234633220421EE
:103E7000B32001F04FF823462E220C21B32001F08D
:103E800049F8234608221421B32001F005F82346FF
:103E900009222421B32000F0FFFF2346042234210D
:103EA000B32000F0F9FF234605224421BDE810406D
:103EB000B32000F0F1BF0124D7E730B40A787AB11B
:103EC000012A15D0022A20D0032A2BD102880A23E6
:103ED000B2FBF3F403FB1423092B20D2521C12E093
:103EE000028842F228339A4219D202F57A720AE025
:103EF00002884FF47A73B2FBF3F403FB1423B3F597
:103F0000617F0CD26432028009E002886423B2FB34
:103F1000F3F403FB14235A2B01D20A32F3E730BC2B
:103F200000F0C2B830BC704770B50C46054600239F
:103F300008221421B72000F0AFFF0023092224211A
:103F4000B72000F0A9FF002304223421B72000F09D
:103F5000A3FF002305224421B72000F09DFF00238A
:103F60003A225421B72000F0D5FF2146284600F020
:103F70009BF800232E225421B52000F08DFF002352
:103F800002221421B32000F087FFBDE87040002317
:103F900003222421B32000F07FBF00002DE9F0416F
:103FA000344C354F4FF00108217819B939886180B8
:103FB00084F80080002509285AD2DFE800F0050CBB
:103FC0001A59345959593B00BDE8F0412949491C57
:103FD000481C00F05FBF6078042802D2401C60706B
:103FE00000E06570BDE8F0412249491C481C00F022
:103FF0005BB8607804280FD11E49491C481C00F0AA
:1040000053F86088FFF75AFB00F08AFE40F2DC505C
:1040100004F0DCF8FFF712FCBDE8F0411549491C3B
:10402000481CFFF74ABFBDE8F0411249491C481C33
:1040300000F096B8114E3078052819D110A003F081
:1040400081FB00210846FFF7D9FB002000F0BCF8F7
:1040500038886080257002203070114865700068D3
:1040600004F088FD0F4861684160656080F8008059
:10407000BDE8F08124130020FA120020C4000020C3
:104080006E6F775F70616765203D3D204D61785FA1
:10409000526F7574655F706167650D0A00000000FE
:1040A000CC000020200000203EB50C460546302202
:1040B0000A216846FCF7C6F82A8827A1684603F05B
:1040C00051FB2078B0B300239DF800202A21B520B1
:1040D00000F020FF207801282FD000239DF8012038
:1040E0003221B52000F016FF2078022827D00023C7
:1040F0009DF802203A21B52000F00CFF207803281B
:104100001FD000239DF803204221B52000F002FFBC
:104110002078042817D000280BD100230222142174
:10412000B32000F0B9FE002303222421B32000F0C5
:10413000B3FE3EBDFFE70123C6E70123CEE701231F
:10414000D6E70123DEE7012302221421B32000F089
:10415000A3FE0123E8E700002530346400000000DE
:1041600030B40A784FF47A7372B1012A12D0022A5D
:104170001AD0032A25D102880A23B2FBF3F403FBE9
:104180001423DBB1521E0DE002889A4216D3A2F529
:104190007A7207E00288B2FBF3F403FB1423632B6B
:1041A0000CD9643A028009E002886423B2FBF3F47C
:1041B00003FB1423092B01D90A3AF3E730BCFFF7BC
:1041C00073BF30BC70470000254910B50A78092834
:1041D00044D2DFE800F0050D1443184343432000A8
:1041E0001F4ABDE81040921C511E481E00F032BE0E
:1041F0001B49BDE81040891C881EFDF7BDB9002A87
:104200002CD0012102E0072A28D20221BDE810406B
:10421000134800F031B891F90200401C1ED100246F
:104220000C704C7021462046FFF7E8FA0D480078E4
:1042300000F06AFF0C48007800F03EFF012000F01B
:10424000F1FE00F01BFF0948006804F093FC0848E9
:104250000121017007490A6842600C6010BD00002E
:1042600016130020F812002068130020C800002058
:1042700020000020CC0000202DE9F041044690F8F9
:1042800000C0062005220423032502260127BCF1D5
:10429000080F7DD2DFE80CF004081827354D5F7653
:1042A00002297ED1277005E002290BD0012978D19F
:1042B00000202070204600F05BF92046BDE8F04168
:1042C00000F0D6B8267004E002290AD0012968D18E
:1042D0002770204600F0CCF82046BDE8F041FFF7FB
:1042E000BFBD257018E0022903D0012959D12670DD
:1042F00012E023702046FFF7EFFB204600F008FA9B
:1043000038E0022910D001294BD12570204600F059
:104310002FF9204600F0ACF82046FFF7A1FD20461B
:10432000BDE8F041FFF705BC22702046FFF7D4FB43
:1043300019E002290AD0012933D12370204600F068
:10434000E7F92046BDE8F041FFF7C6BB20702046E4
:1043500000F0DEF920E002290AD0012921D12270E3
:10436000204600F0B7FB2046BDE8F04100F0D0B990
:1043700007202070204600F0ADFB2046BDE8F0414C
:1043800000F0EEBC02290CD001290AD1207000E017
:1043900007E0204600F0E4FC2046BDE8F04100F0D4
:1043A00099BBBDE8F08110B5002326221421B72067
:1043B00000F072FD002327222421B72000F06CFDBD
:1043C000002304223421B72000F066FD00230522DB
:1043D0004421B72000F060FD00233A225421B72089
:1043E00000F098FD00F014F800232E225421B5208F
:1043F00000F052FD01231B221421B32000F04CFDDC
:1044000001231C222421BDE81040B32000F044BD4C
:104410000EB530220A216846FBF714FF114812A19D
:10442000007842B2684603F09DF99DF80020002311
:104430002A21B52000F06EFD9DF8012000233221D5
:10444000B52000F067FD9DF8022000233A21B52039
:1044500000F060FD9DF8032000234221B52000F00C
:1044600059FD0EBDFC120020253034640000000010
:1044700010B50078012826D00024234632220421DA
:10448000B52000F047FD23462E220C21B52000F078
:1044900041FD234604221421B52000F0FDFC2346F3
:1044A00005222421B52000F0F7FC23460622342102
:1044B000B52000F0F1FC234607224421BDE810405E
:1044C000B52000F0E9BC0124D7E7000010B50928A9
:1044D00034D2DFE800F005330933333333331700C8
:1044E000BDE81040FFF75FBFFDF706FAFFF790FF4A
:1044F00000F016FC40F2DC5003F068FEBDE810400E
:10450000FFF79CB90E4C2078042817D10DA003F0BA
:1045100019F900210846FFF771F90020FFF754FE52
:10452000022020700F48006804F024FB0E480F4959
:1045300002684A60002202600120087010BD00007D
:10454000C40000206E6F775F70616765203D3D207D
:10455000526F7574655F52657365745F70616765EE
:104560000D0A0000CC0000202C13002020000020A9
:1045700010B5007830B30024234631220421B7203F
:1045800000F0C8FC23462E220C21B72000F0C2FC0C
:10459000234600221421B72000F07EFC234601228E
:1045A0002421B72000F078FC234602223421B720D2
:1045B00000F072FC234603224421BDE81040B720DE
:1045C00000F06ABC0124D7E72DE9F041044690F8D9
:1045D00000C0062005220423032502260127BCF182
:1045E000080F7DD2DFE80CF0040B1E2D425A6C85BB
:1045F000022975D12770204601F030FB1AE002290C
:104600000BD001296CD100202070204601F02CFB3A
:104610002046BDE8F04101F021BB2670204601F0A4
:1046200023FB16E002290AD001296FD1277020460A
:1046300001F020FB2046BDE8F04101F015BB2570DC
:104640001FE002290AD0012960D12670204601F01E
:1046500017FB2046BDE8F04101F00CBB237020465B
:1046600001F014FB204601F017FB38E0022910D0BE
:1046700001294BD12570204601F0F0FA204601F0C7
:10468000F3FA204601F0F6FA2046BDE8F04101F0C9
:10469000F7BA2270204601F0F9FA19E002290AD08F
:1046A000012933D12370204601F0F6FA2046BDE8F7
:1046B000F04101F0EBBA2070204601F0EDFA20E065
:1046C00002290AD0012921D12270204601F0EAFAFC
:1046D0002046BDE8F04101F0DFBA0720207000E07D
:1046E00014E0204601F0DEFA2046BDE8F04101F07A
:1046F000DFBA02290AD0012908D12070204601F032
:10470000D7FA2046BDE8F04101F0CCBABDE8F0810F
:1047100010B50078052826D000242346362204212F
:10472000B52000F0F7FB23462E220C21B52000F027
:10473000F1FB23460F221421B52000F0ADFB2346E8
:1047400012222421B52000F0A7FB23461322342196
:10475000B52000F0A1FB234614224421BDE81040FF
:10476000B52000F099BB0124D7E770B50C4605468B
:1047700000230F221421B72000F08EFB0023122209
:104780002421B72000F088FB002313223421B72016
:1047900000F082FB002314224421B72000F07CFBB0
:1047A00000233A225421B72000F0B4FB21462846CA
:1047B00000F0B0F8002302221421B32000F06CFBBB
:1047C000BDE87040002303222421B32000F064BB25
:1047D0002DE9F0414A4C07460126607828B90022AD
:1047E000A11C4848FDF7D8FF667045480025801C8D
:1047F0004FF00208092F7DD2DFE807F0050C207F7B
:10480000487F7F7F6400BDE8F0413D49891C881ED8
:1048100001F0DCBA94F9000050B1012806D002285A
:1048200002D0032847D106E0267044E0257042E01C
:10483000032020703FE084F800803CE094F90010F1
:1048400081B1012909D0022902D0032933D10EE018
:10485000017818292FD2491C22E041783B292AD21D
:10486000491C22E081783B2925D2491C22E02449B9
:104870000022891C2348FEF7C7F800F051FA40F2E5
:10488000DC5003F0A3FCFEF7D9FF14E094F900100C
:1048900069B1012906D002290DD1017859B1491E0B
:1048A000017008E0417831B1491E417003E0817820
:1048B00009B1491E8170BDE8F0411149891C881E6B
:1048C00000F028B8104F3878082816D10021084683
:1048D000FEF794FF0020FFF777FC657087F80080F3
:1048E0000A4884F80080006804F044F90848A16888
:1048F000416000E001E0A5600670BDE8F0810000C5
:104900003813002088130020C4000020CC000020B1
:10491000200000203EB50D460446302203216846A3
:10492000FBF790FC3022032101A8FBF78BFC30221F
:10493000032102A8FBF786FC95F9002063A16846D5
:1049400002F010FF95F9012060A101A802F00AFF12
:1049500095F902205DA102A802F004FF94F900007D
:10496000022824D001283CD0002876D0032837D153
:104970009DF8002000232A21B52000F0CBFA9DF8F5
:10498000012000233221B52000F0C4FA3A2200238E
:104990001146B52000F0BEFA9DF804200023422104
:1049A000B52000F0B7FA9DF80520002337E09DF808
:1049B000002001232A21B52000F0ACFA9DF8012047
:1049C0000123DFE702221421B32000F065FA2078EA
:1049D000032878D0002303222421B32000F05CFABE
:1049E0003EBD9DF8002000232A21B52000F092FA58
:1049F0009DF8012000233221B52000F08BFA3A22E5
:104A000000231146B52000F085FA9DF8042001230B
:104A10004221B52000F07EFA9DF8052001234A21AD
:104A2000B52000F077FA00233A225221B52000F099
:104A300071FA9DF8082000235A21B52000F06AFA87
:104A40009DF8092000236221B52000F063FA207848
:104A5000032836D00023B5E7FFE79DF800200023A8
:104A60002A21B52000F056FA9DF8012000233221BA
:104A7000B52000F04FFA3A2200231146B52000F08D
:104A800049FA9DF8042000234221B52000F042FAA3
:104A90009DF8052000234A21B52000F03BFA0023B1
:104AA0003A225221B52000F035FA9DF80820012362
:104AB0005A21B52000F02EFA9DF809200123C2E703
:104AC00001E001237EE7012385E700002530326401
:104AD0000000000010B50078062826D000242346E8
:104AE00037220421B32000F015FA23462E220C2190
:104AF000B32000F00FFA234604221421B32000F063
:104B0000CBF9234605222421B32000F0C5F9234622
:104B100015223421B32000F0BFF923461622442188
:104B2000BDE81040B32000F0B7B90124D7E770B555
:104B30000C460546002304221421B72000F0ACF9EE
:104B4000002305222421B72000F0A6F90023152216
:104B50003421B72000F0A0F9002316224421B72009
:104B600000F09AF900233A225421B72000F0D2F93C
:104B700021462846BDE8704000F08CB82DE9F04190
:104B8000374C384E617819B9317821700121617044
:104B900033490025092891F902105FD2DFE800F0BF
:104BA000050B1A5E335E5E5E4000BDE8F0412C49A5
:104BB000881C01F00DB9012902DA491CA17000E03E
:104BC000A5702749881C00F065F82078BDE8F04101
:104BD000FEF704BE91B1012940D12149881C00F0A3
:104BE00059F82078FEF7FAFD00F09AF840F2DC5010
:104BF00003F0ECFABDE8F041FEF720BE2078322841
:104C00002CD2401C05E0002928D12078032825D982
:104C1000401E2070BDE8F0411149881C00F03AB8F0
:104C2000114F3878092819D110A002F08BFD00210E
:104C30000846FEF7E3FD0020FFF7C6FA3078207043
:104C4000A5706570022038701148006803F092FF6B
:104C500060686560BDE8F04103F0E5BABDE8F08149
:104C600044130020F9120020C40000206E6F775F0B
:104C700070616765203D3D205374726F6B696E678C
:104C80005F4379636C655F706167650D0A000000C2
:104C9000CC00002038B50D4604463022032168467A
:104CA000FBF7D0FA2A781CA1684602F05BFD207859
:104CB00048B300239DF800202A21B52000F02AF9EE
:104CC000207810B35FF000039DF801203221B52059
:104CD00000F020F900232A223A21B52000F0DCF868
:104CE0002078012813D0002302221421B32000F0E1
:104CF000D3F8207801280CD0002303222421B320EC
:104D000000F0CAF838BD0123D4E70123DCE7012312
:104D1000EAE70123F1E700002530326400000000DB
:104D20000E4810B500784FF000030A284FF02B0210
:104D300008D04421B32000F0AFF800232C225421E6
:104D4000B32007E06421B52000F0A6F800232C2250
:104D50007421B520BDE8104000F09EB8C4000020CA
:104D600010B50078072826D00024234638220421D5
:104D7000B12000F0CFF823462E220C21B12000F004
:104D8000C9F8234617221421B12000F085F82346E4
:104D900018222421B12000F07FF823461922342163
:104DA000B12000F079F823461A224421BDE81040D2
:104DB000B12000F071B80124D7E7FEF7E7BE00008C
:104DC00070B50122224D140321462846FDF7ABF8A9
:104DD000DC2003F0FBF9002221462846FDF7A3F86A
:104DE0004FF4D27003F0F2F9012221462846FDF774
:104DF0009AF8DC2003F0EAF9E32002F0CBFBA320D1
:104E000002F0C8FBA12002F0C5FBC02002F0C2FBEB
:104E10002F2002F0BFFB232002F0BCFB812002F018
:104E2000B9FB272002F0B6FBF82002F0B3FB082004
:104E300002F0B0FBB02002F0ADFB102002F0AAFBA4
:104E4000002002F0A7FBBDE87040AF2002F0A2BB3B
:104E50000010014010B504460078042820460CD20A
:104E6000FFF786FB2046FFF703FB2046FEF7F8FF1F
:104E70002046BDE81040FEF75CBEFEF72DFE204642
:104E8000FFF746FC2046FFF725FE2046BDE8104010
:104E9000FFF766BFFFF748B82DE9F04705461C4805
:104EA0001F468A4600EB421403F0B0FCA846A5F169
:104EB000010925E002F06EFB102141EA1A1002F010
:104EC00069FB0AF00F0002F065FB0026002517B110
:104ED000012F03D008E014F8010B03E014F8010BD4
:104EE000C043C0B202F0DCFB6D1CEDB2082DEED366
:104EF000761CF6B2022EE9D3A8F1010000F0FF08FB
:104F00004046C845D6DABDE8F04703F09FBC000034
:104F1000400300202DE9F047044619481F4600EBE6
:104F200002158946A5F5007503F070FCA4F101088F
:104F30001FE0204602F02EFB102141EA191002F07A
:104F400029FB09F00F0002F025FB002617B1012F05
:104F500003D008E015F8010B03E015F8010BC0437E
:104F6000C0B202F09DFB761CF6B2082EEED3641E92
:104F7000E4B24445DDDABDE8F04703F067BC000069
:104F8000400D00202DE9FC5FFBF782FA80B264211E
:104F9000B0FBF1F28DF80020B0FBF1F201FB120240
:104FA0000A21B2FBF1F28DF80120B0FBF1F201FB16
:104FB00012008DF80210DFF868B08DF803000024AD
:104FC000EA4600BF1AF804104FF0B5080BEB811742
:104FD00004F11009404602F0DDFA09F0FF0002F08A
:104FE000D9FA082002F0D6FA0026002517F8010B9E
:104FF00002F056FB6D1CEDB2082DF7D3761CF6B20D
:10500000022EF2D3A8F1010000F0FF08B8F1B20FB0
:10501000E0D2641CE4B2042CD4D3BDE8FC9F0000B1
:10502000E009002070B520B1012812D0022821D15A
:1050300012E0114D4FF400712846FCF76FFF044653
:10504000A9152846FCF76AFF1CB128B100231D22D0
:1050500004E000231F2201E0002320226021B7206A
:10506000FFF71AFFBDE87040002321227021B7200E
:10507000FFF712BF70BD0000001001407047000034
:1050800008B5FBF705FAC2B209A1684602F06AFB4F
:105090009DF8002000236221B320FFF73BFF9DF81D
:1050A000012000236A21B320FFF734FF08BD000070
:1050B00025303264000000000A21B0FBF1F02DE938
:1050C000F0411049B72401EB0017204602F062FAC4
:1050D000102002F05FFA042002F05CFA002600259E
:1050E00017F8010B02F0DCFA6D1CEDB2082DF7D3B6
:1050F000761C16F0FF06F2D0641EE4B2B62CE4D2A1
:10510000BDE8F0810003002010B504004FF000035B
:105110000ED000222021B720FFF7BEFE002301227F
:105120003021B720FFF7B8FE3034E2B200230CE0A4
:1051300033222021B720FFF7AFFE00233422302195
:10514000B720FFF7A9FE002320224021BDE8104030
:10515000B720FFF7DFBE00002DE9F047154F4FF0F5
:105160000008B62408F11009204602F013FA09F0ED
:10517000FF0002F00FFA082002F00CFA00260025CA
:1051800017F8010B02F08CFA6D1CEDB2082DF7D365
:10519000761CF6B2022EF2D3641EE4B2B22CE3D235
:1051A00008F1010000F0FF08B8F1060FD9D9BDE8F9
:1051B000F0870000D00000202DE9F041134FB1200E
:1051C00002F0E8F9112002F0E5F9002002F0E2F91E
:1051D000B524204602F0DEF9142002F0DBF90A20A3
:1051E00002F0D8F90026002517F8010B02F058FA52
:1051F0006D1CEDB20C2DF7D3761CF6B2022EF2D355
:10520000641EE4B2B22CE4D2BDE8F081E00C0020D0
:1052100010B5002352227421B320FFF77BFE002338
:1052200048227C21BDE81040B320FFF773BE000088
:105230000EB530220A216846FBF704F8114812A186
:10524000007842B2684602F08DFA9DF800200023F3
:105250000421B120FFF75EFE9DF8012000230C2100
:10526000B120FFF757FE9DF8022000231421B12042
:10527000FFF750FE9DF8032000231C21B120FFF70B
:1052800049FE0EBDFC1200202530346400000000F1
:105290000EB5302203216846FAF7D4FF30220321ED
:1052A00001A8FAF7CFFF002202A91948FDF774FA06
:1052B0009DF9082017A1684602F054FA9DF90920CB
:1052C00014A101A802F04EFA9DF8002000235C21F1
:1052D000B120FFF71FFE9DF8012000236421B120BB
:1052E000FFF718FE00233A226C21B120FFF712FECF
:1052F0009DF8042000237421B120FFF70BFE9DF8D8
:10530000052000237C21B120FFF704FE0EBD000024
:1053100088130020253032640000000070B5057845
:10532000012200245B484FF47A730A2D0FD2DFE884
:1053300005F005111E3F606B7A8997A2097801EB91
:10534000410100EB81000179012901D0027170BD9A
:10535000047170BD097801EB410100EB81004178D7
:10536000012901D0427070BD0221417070BD0978E1
:10537000C9B101EB410100EB8100027A437A511E71
:10538000C1EB011403EB840310F8045C10F8034C28
:10539000C5EB05159BB204EB8504042AE6D99C42B3
:1053A000E4D2017270BD017A0429FBD9491EF8E7E5
:1053B0000978C1B101EB410100EB81010A7A487A19
:1053C000C2EB021200EB820311F8044C11F8032C1B
:1053D000C4EB041402EB84020028E3D09A42E1D229
:1053E000401E487270BD417A0029FBD0491E4172AF
:1053F00070BD097801EB410100EB8101C88898423A
:10540000F6D3A0F57A700CE0097801EB410100EBCE
:105410008101C888B0FBF3F203FB1202632AE7D9CB
:105420006438C88070BD0978642201EB410100EB4B
:105430008101C888B0FBF2F302FB1302092AF1D9FB
:105440000A38EEE70A780A2402EB420200EB8203F4
:10545000DA88B2FBF4F504FB15240CB1521EDA8095
:10546000097801EB410100EB8101C8780028D9D00F
:10547000401EC87070BD097801EB410100EB81014D
:1054800088780328F6D9CA78D21C9042F2D9401EF7
:10549000887070BD9867002070B50D4604460023E3
:1054A0001A460421B720FFF7F7FC0023012214213C
:1054B000B720FFF7F1FC287800233130C2B2242155
:1054C000B720FFF727FD2878224900EB400001EBC9
:1054D000800000790128207822D078B3002325228B
:1054E0003421B720FFF7D8FC207840B300233122C5
:1054F0004421B720FFF7D0FC20780A2826D00023CB
:1055000002226421B720FFF7C7FC20780A281FD0A9
:105510000023BDE8704003227421B720FFF7BCBC14
:1055200050B1002324223421B720FFF7B5FC2078A6
:1055300030B100233022DBE70123F3E702E003E090
:105540000123F7E70123CAE70123D0E70123D7E7C7
:105550000123DEE79867002070B50D46044600235E
:1055600032220421B520FFF797FC142200231146B4
:10557000B520FFF791FC00233A222421B520FFF744
:10558000C9FC2878184900EB400001EB8000407806
:105590000128207812D0012822D000230A223421A9
:1055A000B520FFF779FC207801281BD000230B22BF
:1055B000BDE870404421B520FFF76EBC01280BD038
:1055C000002322223421B520FFF766FC2078012831
:1055D00004D000232322EBE70123F2E70123F9E7BC
:1055E0000123DBE70123E2E7986700207CB504464E
:1055F00008782F4E00EB400006EB80000D46027A43
:105600002CA1684602F0AEF828782AA100EB4000F1
:1056100006EB8000427A01A802F0A4F800230F22D2
:105620000421B320FFF738FC002312221421B320F9
:10563000FFF732FC00233A222421B320FFF76AFC53
:10564000207802282BD000239DF800203421B3209D
:10565000FFF760FC2078022823D000239DF801206A
:105660003C21B320FFF756FC00233A224421B3200B
:10567000FFF750FC2078032815D000239DF8042064
:105680004C21B320FFF746FC207803280DD00023DF
:105690009DF805205421B320FFF73CFC7CBD01237D
:1056A000D2E70123DAE70123E8E70123F0E700006E
:1056B0009867002025303264000000007FB5044662
:1056C0000878684D00EB400005EB80000E464178FD
:1056D000012964D0022961D1C27863A102A802F035
:1056E00041F8307860A100EB400005EB8000827843
:1056F00003A802F037F800230A220421B120FFF7A3
:10570000CBFB00230B221421B120FFF7C5FB0023A4
:105710003A222421B120FFF7FDFB207808287CD015
:105720005FF000039DF808203421B120FFF7F2FB61
:105730002078082872D000239DF809203C21B12050
:10574000FFF7E8FB00232F224421B120FFF7A4FB41
:1057500000232D225421B120FFF7DCFB00232D2252
:105760005C21B120FFF7D6FB2078092876D00023F2
:105770009DF80C206421B120FFF7CCFB207809288C
:105780006ED000239DF80D206C21B120FFF7C2FBE5
:1057900000232F227421B120FFF77EFB7FBDC2883A
:1057A00033A1684601F0DEFF002322220421B1204C
:1057B000FFF772FB002323221421B120FFF76CFBBB
:1057C00000233A222421B120FFF7A4FB20780428EB
:1057D00036D000239DF800203421B120FFF79AFB3A
:1057E000207805282ED000239DF801203C21B120EF
:1057F000FFF790FB2078062826D000239DF8022092
:105800004421B120FFF786FB207807281ED0002313
:105810004C219DF80320B12001E01BE01CE0FFF7C4
:1058200079FB00232D225421B120FFF735FB002303
:105830002D226421B120FFF72FFB00232D22A9E7A1
:105840000123C7E70123CFE70123D7E70123DFE7E0
:1058500004E005E0012365E701236DE7012387E705
:1058600001238FE798670020253032640000000094
:1058700025303464000000002DE9F04100250326A6
:105880003C4C0F464FF00108092871D2DFE800F0C8
:10589000051745704A707070540039463548FFF757
:1058A000FBFD39463348FFF757FE39463148FFF7CD
:1058B0009DFE3946BDE8F0412E48FFF7FFBE217836
:1058C0000A200B2932D2DFE801F006090B0D1D1F5B
:1058D00021242324260084F8008027E0022018E0F9
:1058E000267023E0387800EB4001234800EB81006C
:1058F0004078012802D0022802D017E0042008E0F6
:10590000082006E0052004E0062002E0072000E071
:10591000092020700AE0257008E03946154800F09B
:1059200049F803E039461348FFF7F8FC3946BDE86B
:10593000F041104800F02AB8104F38780A2817D1E3
:1059400000210846FDF75AFF002000F0B7F9602259
:105950000B490948FAF764FC3E700A482570006854
:1059600003F008F9084861684160656080F80080CC
:10597000BDE8F0813013002098670020C4000020AB
:1059800038670020101300202000002070B50C465E
:105990000546FFF781FD21462846FFF7DDFD21463C
:1059A0002846FFF723FE21462846BDE87040FFF752
:1059B00085BE000070B50D4600780121614C0B28B2
:1059C00011D2DFE800F006111C27323F51606F85CD
:1059D0008F00287800EB400004EB80000279012A58
:1059E00000D10021017170BD287800EB400004EB6C
:1059F00080004278012A00D10221417070BD2878D0
:105A000000EB400004EB8000017A1729F6D2491C14
:105A1000017270BD287800EB400004EB8001487AE9
:105A20003B28F6D2401C487270BD287842F22832DA
:105A300000EB400004EB8001C8889042F4D200F5EE
:105A40007A700FE028784FF47A7200EB400004EB94
:105A50008001C888B0FBF2F302FB1302B2F5617F4C
:105A6000E2D26430C88070BD2878642200EB400028
:105A700004EB8001C888B0FBF2F302FB13025A2A40
:105A8000F1D20A30EEE728780A2200EB400004EB5E
:105A90008001C888B0FBF2F302FB1302092AE2D2AC
:105AA000401CDFE7287800EB400004EB8001C87859
:105AB0003C28D8D2401CC0B2C8702978C01C01EB69
:105AC000410104EB81018A789042CCD9887070BD85
:105AD000287800EB400004EB800188783F28F6D25C
