:020000040800F2
:10000000A0870020DD010008296D0008DD3B000805
:10001000C96B0008610E0008918B00080000000009
:100020000000000000000000000000004501000882
:100030001F1800080000000089010008E98400087A
:10004000F7010008F7010008F7010008F7010008B0
:10005000F7010008F7010008F7010008F7010008A0
:10006000F7010008F7010008F7010008F701000890
:10007000F7010008F7010008F7010008F701000880
:10008000DD170008E9170008F7010008F70100086C
:10009000F7010008F7010008F7010008F701000860
:1000A000F7010008F7010008F7010008F701000850
:1000B000D9850008F7010008F7010008F7010008DA
:1000C000F7010008F7010008F70100080D780008A3
:1000D000F70100086D8B0008798B0008F701000814
:1000E000F7010008F7010008F7010008F701000810
:1000F000F7010008F7010008F7010008F701000800
:10010000F7010008F7010008F7010008F7010008EF
:10011000F7010008F7010008F7010008F7010008DF
:10012000F7010008F7010008F7010008F7010008CF
:10013000DFF80CD000F0AEFC0048004765970008DF
:10014000A0870020224B19680868B0E8F00F80F300
:100150000988BFF36F8F4FF0000080F311884EF0D5
:100160000D0E70470000000006480068006880F32C
:10017000088862B661B6BFF34F8FBFF36F8F00DFA1
:1001800000BF00BF08ED00E0EFF30980BFF36F8F01
:100190000F4B1A6820E9F00F106008B54FF05000BF
:1001A00080F31188BFF34F8FBFF36F8F0AF0B8F958
:1001B0004FF0000080F31188BDE808401968086816
:1001C000B0E8F00F80F30988BFF36F8F704700BF6E
:1001D00038130020EFF30580704700000648804781
:1001E00006480047FEE7FEE7FEE7FEE7FEE7FEE71C
:1001F000FEE7FEE7FEE7FEE7918500083101000813
:10020000202A04DB203A21FA02F00021704721FA6B
:1002100002F3D040C2F120029140084319467047D2
:1002200040EA01039B0703D009E008C9121F08C078
:10023000042AFAD203E011F8013B00F8013B521EF8
:10024000F9D27047D2B201E000F8012B491EFBD26F
:1002500070470022F6E710B513460A4604461946D1
:10026000FFF7F0FF204610BD30B505462A460B4685
:1002700012F8010B13F8014B08B1A042F8D01CB1E1
:10028000002802D06D1CF1E7284630BD10B50446A9
:1002900004E00B7800F8013B03B1491C521EF8D270
:1002A000204610BD421C10F8011B0029FBD1801A0A
:1002B000704770B5064608F07BFD046805460A22C3
:1002C0000021304600F079F92C6070BDF0B480EA6E
:1002D0000102D40F4200B2EB410F02D2024608469F
:1002E00011464A0042D0C30DDDB2C1F3C752AD1A68
:1002F000202D35DAC1F3160141F4000204B1524257
:10030000C5F1200602FA06F12A411044B3EBD05F92
:1003100023D0C4B1012DA0EBC35009DCF0BC4FF0D9
:10032000004202EAC352DBB200F5000000F086B9D9
:10033000400000F1807000EBC350A0F1807040EAF3
:10034000D170490009E0490841EAC071A0EBC350EF
:1003500000F50000400800EBC350F0BC00F065B9A8
:100360006142012202EB4101001BF6E7F0BC70473D
:1003700081F00041AAE780F00040A7E780EA01028F
:1003800010B502F00043400022D04A001FD0010EF9
:1003900001EB1261C0F35600C2F3560240F40000B4
:1003A00042F40002A0FB022000047F39140400D0B4
:1003B000401C50EA124001D44000491EC2B20C0653
:1003C00004EBD010401C4008802A02D003E000203B
:1003D00010BD20F00100002900DA0020184310BDF4
:1003E00030B480EA010202F0004530F0004221F012
:1003F000004013D090B1C30DD40DC2F31601C0F369
:100400001600E41A41F4000140F400027D349142E8
:1004100001D3641C00E04900002C02DA30BC00204B
:1004200070474FF400000023914201D3891A03431F
:1004300040084FEA4101F7D151B1914202D14FF04A
:10044000004105E002D24FF0010101E06FF001012F
:1004500003EBC450284430BC00F0E7B8C10F80EA79
:10046000E0700844CA079623002100F0E7B89623FD
:100470000022114600F0E2B800F0004220F00040F7
:10048000C10DC0F3160040F400007F2901DA0020FE
:100490007047962903DCC1F19601C84001E0963906
:1004A0008840002AF4D04042704720F00040C10D3F
:1004B000C0F3160040F400007F2901DA00207047E5
:1004C000962903DCC1F19601C840704796398840EF
:1004D0007047000030B5041E71F1000404DB4FF0DA
:1004E0000044404264EB0101141E73F1000405DB7B
:1004F0001C464FF00043524263EB0403994208BF8D
:10050000904230BD002801DBC0F10040002901DB32
:10051000C1F1004181427047002801DBC0F1004079
:10052000002901DBC1F100418842704730B50B461C
:10053000014600202022012409E021FA02F59D4213
:1005400005D303FA02F5491B04FA02F52844151EE7
:10055000A2F10102F1DC30BD2DE9F05F054600207B
:1005600092469B4688460646814640241BE0284624
:10057000414647462246FFF743FE53465A46C01AB5
:10058000914110D311461846224600F095FA2D1AD3
:1005900067EB01084F4622460120002100F08CFA4B
:1005A00017EB00094E41201EA4F10104DFDC484690
:1005B00031462A464346BDE8F09F2DE9F047914673
:1005C0000F4680460446002614F8015B2DB100F06A
:1005D00095FA0068405DC007F6D12B2D02D02D2D75
:1005E00018D0641E4A463946204600F08BFA27B1DF
:1005F0003968A14201D1C7F8008071054FF00204AB
:100600000BD54042002803DD08F0D2FB0460A007B0
:10061000BDE8F08746F48066E4E70028F8DA08F0E1
:10062000C7FB04606FF00040F2E70029A8BF7047E5
:10063000401C490008BF20F00100704710B4B0FA18
:1006400080FC00FA0CF050EA010404BF10BC7047B3
:1006500049B1CCF1200421FA04F411FA0CF118BFCD
:10066000012121430843A3EB0C01CB1D4FEA00619C
:100670004FEA102042BF002010BC704700EBC3506F
:1006800010440029A4BF10BC7047401C490008BF9B
:1006900020F0010010BC704710B5141E73F1000467
:1006A00008DA401C41F1000192185B411A4301D164
:1006B00020F0010010BD2DE9F04D92469B4611B18E
:1006C000B1FA81F202E0B0FA80F22032904600F0F6
:1006D000F3F904460F4640EA0A0041EA0B0153468B
:1006E0005A46084313D0114653EA010019D0C8F105
:1006F00040025046FFF784FD05460E4650465946D7
:10070000424600F0D9F9084305D0012004E0204614
:100710003946BDE8F08D0020054346EAE0762C43DB
:1007200037430A986305E40AA0EB08000022FD0A9B
:1007300044EA47540A3002D500200146E9E70105A2
:1007400010196941DDE9084500196941BDE8F04D1E
:10075000A2E72DE9FE4F804681EA0300C00F0C4658
:10076000009021F0004123F00045B8EB0200A941C0
:1007700005D24046214690461C460B46024623F0D1
:100780000040104347D0270DC7F30A00C3F30A51B6
:100790000290401A019040286BDAC3F3130040F432
:1007A000801B0098924620B10023D2EB030A63EB32
:1007B0000B0B01985946C0F14002504600F07CF9FD
:1007C00006460D4650465946019A00F084F910EB52
:1007D00008006141002487EA115284EAE7731A4352
:1007E00040D0009A62B3019A012A4FEA075215DC01
:1007F000001B61EB02014FF0004202EA0752CDE913
:100800000042001C41F5801132462B46FFF753FF92
:1008100003B0BDE8F08F40462146F9E7001B61EBCD
:100820000201001C41F5801300185B412018A2F55D
:10083000001747EB030140EAD570B6196D4111E08E
:100840006D084FEA360645EAC0754FEA0752001BAD
:1008500061EB0201001C41F5801149084FEA3000AC
:100860000019514132462B4603B0BDE8F04FFFF767
:1008700013BF0098012240000023D0EB020263EB7B
:10088000E073009821464FEAE074B8EB000061EB9A
:100890000401E9E783F000435BE781F0004158E79A
:1008A0002DE9FE4F81EA030404F0004421F00041E9
:1008B00000944FF0000B23F0004350EA01045ED097
:1008C00052EA03045BD0C3F30A54C1F30A552C4423
:1008D000A4F2F3340194A0FB0254C1F3130141F4D8
:1008E0008011C3F3130343F4801301FB024400FBA4
:1008F000034E840A970A44EA815447EA8357A4FBCB
:10090000076802958D0A05FB07854FEA932C04FBC7
:100910000C542705029D4FEA065847EA1637B5EBF7
:1009200008056EEB070C870E920E47EA811742EA24
:100930008312A7FB0201B6EB0B0164EB00042B0D45
:1009400043EA0C335E1844EB1C50DA465146E7FB91
:100950000201C5F313044FEA0B3343EA14534FEA81
:100960000432019C43EA0603A4F10C040294009CA7
:10097000CDE900B4FFF79FFE03B0BDE8F08F002083
:100980000146F9E72DE9F04D81EA030404F0004B3C
:1009900021F0004514464FF0000A23F0004150EAD0
:1009A000050220D054EA01021DD0C5F30A570246C1
:1009B000C5F31303C1F31300C1F30A5640F48015C5
:1009C00043F48013A7EB0608101BD64608F2FD3847
:1009D00073EB050002D308F1010801E092185B41B6
:1009E000B8F1000F03DA00200146BDE8F08D0020C9
:1009F0004FF48011064684460EE0171B73EB050783
:100A000005D3121B63EB050306434CEA010C4908AE
:100A10004FEA300092185B4150EA0107EDD152EAEB
:100A2000030012D082EA040083EA0501084305D0DE
:100A3000101BAB4106D20122002306E000224FF03A
:100A4000004302E06FF0010253101AEB06004CEB7A
:100A5000085110EB0A0041EB0B01BDE8F04DFFF728
:100A60001BBEC1F30A52C1F3130140F2FF3341F43C
:100A700080119A4202DA00200146704740F2334367
:100A80009A42A2F2334202DC5242FFF7B9BB00F0B5
:100A900013B80000064C074D06E0E06840F0010383
:100AA00094E8070098471034AC42F6D3FFF744FBB4
:100AB00030B4000850B40008202A04DB203A00FAC1
:100AC00002F1002070479140C2F1200320FA03F3A5
:100AD000194390407047202A06DBCB17203A41FA91
:100AE00002F043EAE07306E041FA02F3D040C2F1BB
:100AF00020029140084319467047000000487047A3
:100B000018B200082DE9F05F8246007800271546EC
:100B10008B460AF10104B946302801D09DB113E09B
:100B200014F8010B0127782803D0582801D045B1CB
:100B30000AE00DB1102D07D10027102514F8010B84
:100B400002E0082500E00A250026B0460EE005FB7D
:100B5000080005FB06F1012701EB10461FFA80F89B
:100B6000B6F5803F00D3B94614F8010B294600F0D2
:100B700018F80028EBDABBF1000F05D00FB1641EA6
:100B800000E05446CBF80040B9F1000F06D008F061
:100B90000FF902210160C81EBDE8F09F48EA064037
:100BA000FAE73A2800D2303820F02002412A01D357
:100BB000A2F13700884201D34FF0FF30704770B583
:100BC0008C1810F8015B15F0070301D110F8013BF8
:100BD0002A1106D110F8012B03E010F8016B01F87F
:100BE000016B5B1EF9D12B0705D40023521E0DD4D7
:100BF00001F8013BFAE710F8013BCB1A921C03E025
:100C000013F8015B01F8015B521EF9D5A142D8D35C
:100C1000002070BD2DE9F041244F0D46064601220B
:100C20001146384601F067FC01220221384601F0E6
:100C300062FC00F087FD1E480024047007F0A9FF45
:100C40001B490322491CB82007F0FCFF032008F0D1
:100C50004BFE08221749B82006F00CFD0122114670
:100C6000384601F048FC01220221384601F043FCDD
:100C70000821104800F031FA90B10E4C60792179CA
:100C800000EB0120FFF7F3FB3060E078A17800EB88
:100C900001200A21B0FBF1F0FFF7E9FB286001E039
:100CA00034602C604FF07E50BDE8F081000C0140B4
:100CB000001300206C1E002070B514460D46064639
:100CC00008E03046711C8EB200F007F8641E05F88B
:100CD000010BA4B2002CF4D170BD10B50446002065
:100CE00003F04EF9200AA02101EB4000C1B2002020
:100CF00003F0E0F8002003F0C7F9E1B2002003F0B0
:100D0000D9F8002003F0C0F9002003F039F9A1213F
:100D1000002003F0CFF8002003F0B6F900210846C8
:100D200003F050F80446002003F06CF9204610BD93
:100D300070B516460C46054606E02178284600F0B8
:100D400007F86D1CADB2641C761EB6B2F5D270BD4C
:100D500070B504460D46002003F012F9200AA021C8
:100D600001EB4000C1B2002003F0A4F8002003F022
:100D70008BF9E1B2002003F09DF8002003F084F924
:100D80002946002003F096F8002003F07DF90020AA
:100D900003F038F9BDE870400A2008F0A5BD000056
:100DA0002DE9F0411F4D064600241BA12868FFF7DE
:100DB0005BFA012710B1012486F888701AA128680F
:100DC000FFF752FA10B1022486F889701AA1286838
:100DD000FFF74AFA10B1032486F88A7019A128682F
:100DE000FFF742FA10B1042486F88B70D6F8900011
:100DF00058B917A12868FFF737FA30B116A007F0E5
:100E0000B3FF05240820707100E00CB100F0A4FCD1
:100E10002046BDE8F08100002B4346554E3A203174
:100E200000000000041300202B4350494E3A20528A
:100E3000454144590000000043616C6C20526561DB
:100E400064790000534D53205265616479000000BD
:100E5000434C4F5345440000636C6F73650D0A00AB
:100E6000FEE7000008B5474C4FF0FF3529462B46FA
:100E70006A46002009F046FF0128F7D10098C0B269
:100E800010285BD024DC012832D002283CD0042872
:100E900048D00828EAD13CA007F066FF4FF4C841CB
:100EA0003CA007F061FF09F069FB01463FA007F095
:100EB0005BFF00F0D1F820680028D7D00023032280
:100EC0005FF0080109F046FE0028CFD13BA043E0C7
:100ED000202844D040284BD08028C7D13EA007F01E
:100EE00043FF00F0CDF80023032280212068E9E7CA
:100EF0003DA007F039FF00F0AFF820680028B5D01A
:100F00000023032201210AE03AA007F02DFF00F0A0
:100F1000A3F820680028A9D000230322022109F0A9
:100F200019FEA3E736A007F01FFF00F095F8206830
:100F300000289BD0002303220421F0E733A007F010
:100F400013FF00F09DF8002303221021206809F010
:100F500001FE00288AD131A007F006FF86E736A0FF
:100F600007F002FF00F08CF8002303222021BDE7E8
:100F700035A007F0F9FE00F083F80023032240219A
:100F8000B4E7000014000020C8A1CFFBB0B4BCFC43
:100F90000D0A0000544F54414C5F484541505F5387
:100FA000495A45203D2025640D0A0000CAA3CFC23E
:100FB000486561703D2025640D0A0000322073658C
:100FC0006E64206B65792076616C75652066616C56
:100FD00073650D0A00000000C8A1CFFBB0B4BCFCD3
:100FE000B3A4B0B40D0A0000B9A6C4DCB0B4BCFC14
:100FF0000D0A0000CFF2C9CFB0B4BCFC0D0A00004E
:10100000CFF2CFC2B0B4BCFC0D0A0000D1A1D4F124
:10101000B0B4BCFCB3A4B0B40D0A000031207365B9
:101020006E64206B65792076616C75652066616CF5
:1010300073650D0A00000000CFF2C9CFB0B4BCFC4C
:10104000B3A4B0B40D0A0000CFF2CFC2B0B4BCFC60
:10105000B3A4B0B40D0A000010B5084C0122082159
:10106000204601F048FA962008F03EFC2046002277
:10107000BDE81040082101F03EBA0000000C01401C
:1010800010B5084C01220821204601F034FA4FF433
:10109000967008F029FC20460022BDE81040082187
:1010A00001F029BA000C014030B503464FF6FF703D
:1010B0004AF201040DE000BF13F8012B504000225A
:1010C000C5074FEA500000D06040521CD2B2082A37
:1010D000F6D3491EC9B2EFD230BD30B505460C4635
:1010E000881EC1B22846FFF7DFFF291911F8012C2D
:1010F000B2EB102F06D111F8021CC0B2814201D10F
:10110000FF2030BD002030BD10B53222174990209D
:10111000FFF7D2FD154800F091F9144A0319501C4D
:1011200000F01EF9C418901C00F04AFA04440F485D
:101130000C3000F01DF904440C48163000F0A6F8FD
:1011400004440A48203000F013F8044407482830CB
:1011500000F0CAF9204410F0FF0F04D032220349F6
:101160009020FFF7E5FD002010BD00007B1E002051
:101170002DE9FE43044600680090606801902089D4
:10118000ADF808000621684600F086FA401C02D03F
:101190000020BDE8FE831E4F1E4E4FF0FF38002595
:1011A0001DA007F0E1FD01222249234802F020FCA6
:1011B000002342461946386809F072FA012821D105
:1011C00006211E4800F068FA81461C48FFF76AF8BD
:1011D0000C2812D8B9F1FF3F0FD00622174920463C
:1011E000FFF754F8214616A007F0BEFD4021134832
:1011F000FFF72FF835700120CBE740210F48FFF7AC
:1012000028F8357001220B490B4802F0F1FBC7E7C3
:101210002800002038000020CAE4C8EBC9FAB2FA5E
:10122000C8D5C6DA5C725C6EBDE1CEB2A3BA0D0A57
:101230000000000039000020281400203015002094
:1012400025730D0A000000001CB500208DF8000079
:101250008DF80400012269468A20FFF72DFD012246
:1012600001A98B20FFF728FD9DF804009DF80010D0
:1012700040EA0120B0F5167F03D9002002F05CFFA0
:101280001CBD014908801CBD981200202DE9FE43B9
:10129000044600680090606801902089ADF808005D
:1012A0000921684600F0F8F9401C02D00020BDE892
:1012B000FE831E4F1E4E4FF0FF3800251DA007F085
:1012C00053FD01222149224802F092FB00234246AD
:1012D0001946386809F0E4F9012821D109211D488F
:1012E00000F0DAF981461B48FEF7DCFF0C2812D823
:1012F000B9F1FF3F0FD0092216492046FEF7C6FF7D
:10130000214615A007F030FD40211248FEF7A1FF4D
:1013100035700120CBE740210E48FEF79AFF35706B
:1013200001220A490A4802F063FBC7E728000020AF
:1013300038000020CAE4C8EBC9E8B1B849445C727F
:101340005C6EBDE1CEB2A3BA0D0A000039000020E8
:10135000281400203015002025730D0A000000001D
:101360000178012901D0012101700020704700009F
:101370002DE9FE4301680091416801918046008992
:10138000ADF808001EA16846FEF76EFF10B1002000
:10139000BDE8FE831B4E1C4F1C4C4FF0FF3900254F
:1013A0001BA007F0E1FC01222249234802F020FBA8
:1013B00000234A461946306809F072F901280CD119
:1013C0001148FEF76FFF0A2802D2387856280AD053
:1013D00040210D48FEF73DFF2570012215491648B2
:1013E00002F006FBDCE7227807494046921EFEF732
:1013F0004DFF40210448FEF72CFF25700120C7E770
:101400005600000028000020301500203800002081
:10141000CAE4C8EBD3B2BCFEB0E6B1BE5C725C6E8F
:10142000BDE1CEB2B8F1CABD2856312E7829A3BA93
:101430000D0A000039000020281400207FB5802507
:10144000002001240095CDE901040A4E694630468A
:1014500000F058FF8021304601F048F80220CDE925
:101460000240CDE900546946304600F04BFF04B01D
:10147000002070BD001001401FB501226946822086
:10148000FFF71AFC012201A98320FFF715FC9DF844
:1014900004009DF80010134C40EA012042F206714E
:1014A00060800A38884202D30A2002F081FE0122BD
:1014B00002A98420FFF700FC012203A98520FFF781
:1014C000FBFB9DF80C009DF8081040EA012000B2DB
:1014D00042F20F71A080884202DD002002F092FEED
:1014E0001FBD00007C1200202DE9FE430446006869
:1014F0000090606801902089ADF8080008216846D6
:1015000000F0CAF8401C02D00020BDE8FE831E4F48
:101510001E4E4FF0FF3800251DA007F025FC0122CC
:101520002249234802F064FA0023424619463868EB
:1015300009F0B6F8012821D108211E4800F0ACF8C6
:1015400081461C48FEF7AEFE0C2812D8B9F1FF3FC9
:101550000FD0082217492046FEF798FE214616A014
:1015600007F002FC40211348FEF773FE357001209E
:10157000CBE740210F48FEF76CFE357001220B4986
:101580000B4802F035FAC7E7280000203800002099
:10159000CAE4C8EBC1F7CBAEBAC538CEBB5C725C4F
:1015A0006EBDE1CEB2A3BA0D0A00000039000020E2
:1015B000281400203015002025730D0A00000000BB
:1015C0002DE9FE4301680091416801918046008940
:1015D000ADF8080020A16846FEF746FE10B10020D5
:1015E000BDE8FE831D4E1E4F1E4C4FF0FF390025F7
:1015F0001DA007F0B9FB01222449254802F0F8F9A3
:1016000000234A461946306809F04AF801280CD1EF
:101610001348FEF747FE0A2802D2387856280AD027
:1016200040210F48FEF715FE257001221749184882
:1016300002F0DEF9DCE7227809494046921EFEF707
:1016400025FE074913A007F08FFB40210448FEF751
:1016500000FE25700120C3E756000000280000208E
:101660003015002038000020CAE4C8EBC8EDBCFEED
:10167000B0E6B1BE5C725C6EBDE1CEB2B8F1CABD7F
:101680002856312E7829A3BA0D0A0000390000200F
:1016900028140020257300000246002008E0135C97
:1016A000303B092B02D94FF0FF307047401C40B24D
:1016B0008842F4DB7047000070B598B000246D4696
:1016C00004EB440605EB860120010C22FFF7F4FA37
:1016D00015F82600641CA04204D0002002F0A8FDEA
:1016E00018B070BDE4B2082CEAD30A4D002400BF44
:1016F00004EB440005EB800120010C22FFF7DCFA2B
:10170000641CE4B2082CF3D3602202490248FEF7BD
:1017100087FDE5E770150020D015002008B50122EF
:1017200069468720FFF7C8FA9DF80000C11E6229AC
:1017300003D3032002F0CCFD08BD0149487008BD69
:101740007C1200200020034902460A54401C0F2846
:10175000FBDB70476C1E002070B51F4C23681868B7
:1017600090F8001540F2045505EB4101425A90F8FB
:10177000001501EB810100EBC11103F1AA00FEF796
:101780004FFD2068002250F8AB1B91F8003505EBA7
:101790004303C95A0A542068006890F8001501EB09
:1017A000810100EBC110FEF77DFD01462068006855
:1017B00090F8002502EB820200EBC210FEF749FD13
:1017C0002068006890F8001519B1002180F8001514
:1017D00070BD0121FAE70000F0120020014800F07E
:1017E000F3BB0000EC140020014800F0EDBB00004A
:1017F000A814002030B590F840500124AC40C56BCF
:101800006C60046863604368102B036803D09960C0
:101810000068C26030BD9A600068C16030BD70472A
:1018200070B50078424C434D86B0072829D2DFE8D6
:1018300000F004142A3B4C5D6E003F4E30680028D7
:101840001FD114223D496846FEF7EAFC0021684694
:1018500008F060F8306003200FE0394E306800284F
:101860000FD13649142214316846FEF7D9FC002105
:10187000684608F04FF8306004202070286808F0AF
:10188000EFFD06B070BD2F4E30680028F9D12B490E
:10189000142228316846FEF7C3FC0021684608F090
:1018A00039F830600520E8E7274E30680028E8D195
:1018B000224914223C316846FEF7B2FC00216846FA
:1018C00008F028F830600620D7E7204E306800285E
:1018D000D7D11A49142250316846FEF7A1FC0021E5
:1018E000684608F017F830600720C6E7184E3068E1
:1018F0000028C6D11149142264316846FEF790FCD5
:101900000021684608F006F830600820B5E7114E5F
:1019100030680028B5D10949142278316846FEF7AD
:101920007FFC0021684607F0F5FF30600920A4E73E
:10193000480000205000002094120020CCB0000885
:10194000B0120020AC120020A4120020D4120020FB
:10195000C4120020CC12002070B51B4D4FF4007152
:10196000284600F0C3FD0446A915284600F0BEFD38
:101970001649097801EB4102154901EB820131F862
:10198000062C1449B1F900108A4203DA012C01D166
:10199000012804D08A4208DD012C04D005E0BDE80E
:1019A000704005F043B9012808D08A420AD10CB131
:1019B000002807D1BDE8704005F06AB9BDE8704065
:1019C00005F004B970BD0000001001407C12002039
:1019D00070150020801200202DE9F84F0646087887
:1019E000DDF828801D4614460F4650B920786178EE
:1019F0000844A178C0EB001001EB800030600120AA
:101A00003870207861784C4A0844A178C0EB001007
:101A100001EB800012883168DFF820911144884280
:101A20005CD3DFF81CA14FF40071504600F05EFD5E
:101A300083464FF48071504600F058FDBBF1010F12
:101A400043D1404A404901283FD11078934600EBEA
:101A5000400201EB82008A4610F80A0CFEF707FDEF
:101A600000903B4839490068FEF7BAFC0099FEF740
:101A700053FD0CD23749B9F900000988884206DACB
:101A8000A8F800000120287005F0A0F81DE09BF8E0
:101A9000000000EB40010AEB810010F8090CFEF792
:101AA000E6FC82462A4829490068FEF799FC51461F
:101AB000FEF728FD09D2B9F90000002805DDA8F8D5
:101AC00000000220287005F0B1F820786178084401
:101AD000A178C0EB001001EB800030602978002075
:101AE000012917D0022925D1217862781144A278E2
:101AF000C1EB011102EB81013160B8F80010B9F9B6
:101B000000200A39914215DB38702870BDE8F84F83
:101B100005F0BEB8217862781144A278C1EB0111BA
:101B200002EB81013160B8F80010B9F900200A31E8
:101B30009142E9DDBDE8F88F981200208012002064
:101B4000001001407C120020701500200000204190
:101B5000DC1200207E120020002302A203A100F06C
:101B600029B800004F4B0D0A0000000041540D0A37
:101B7000000000000023024A02A100F01BB8000090
:101B8000641B0008415445300D0A0000002180F814
:101B900084100B4601A203A100F00CB85354415429
:101BA000453A000041542B43495053544154555336
:101BB0000D0A00002DE9F0411D462B4E00239046F2
:101BC0000F4604465A1E1946306808F069FDC4E9FC
:101BD00024783846FEF766FB0146384605F094FF48
:101BE00085B14FF47A7005FB00F2204800231946B6
:101BF000006808F055FD0025012809D054F8901F11
:101C00001BA024E039462046BDE8F04105F076BA35
:101C100020482168006891F80015006801EB8101F7
:101C200000EBC1104146FEF71FFB68B1FFF794FDC2
:101C300000231A461946306808F02CFE44F8905FDD
:101C400001206560BDE8F08154F8901F12A007F0F4
:101C50008BF800231A461946306808F01BFE2560F1
:101C600000206560EEE70000F41200202000002054
:101C7000636D64203D205B25735D2C7853656D6139
:101C800070686F726554616B65203D2066616C738E
:101C9000650D0A00F0120020636D64203D205B2575
:101CA000735D2C636865636B206572726F720D0AD9
:101CB000000000002DE9F8434FF0000804466F468D
:101CC00080F88380434633A234A1FFF773FF0128D5
:101CD0005DD1354E354D36A03168AA31296007F007
:101CE00043F83AA12868FEF7BFFA010040F2045019
:101CF0004DD029680978202917D0326821681268E8
:101D000092F8002500EB420211440A88521E0A8014
:101D100032682168126892F8002500EB4202895A65
:101D2000A1B32968491C2960E4E72968491C296096
:101D300009782C2918D032682168126892F8002599
:101D400000EB420211440A88521E0A803268216860
:101D5000126892F8002500EB4202895AB1B1296855
:101D6000097807F8011BE0E787F800809DF800007C
:101D7000A0719DF80100E0719DF802002072684694
:101D8000FEF797FA20710120BDE8F883FFE70020F5
:101D9000FAE700004F4B0D0A0000000041542B43AE
:101DA00053510D0A00000000F0120020041300201F
:101DB000475052535F52785F44617420435351201F
:101DC0003D205B25735D0D0A000000002B4353513D
:101DD0003A00000070B50546002408F097F809E0C5
:101DE000641CE4B2032C02D1002408F08FF86420B4
:101DF00007F07AFD2846FFF7AFFE0128F0D128460C
:101E0000FFF7B8FE0128FAD170BD10B50446FFF700
:101E100051FF20790A2804D320791F2801D80120F6
:101E200010BD002010BD000010B5094C09A0B4F988
:101E3000041006F099FF0020A080E08002F0E2F993
:101E4000B4F90410BDE8104002A006F08DBF0000F8
:101E50007C120020475F4E6F775F526F757465206C
:101E60003D2025640D0A000001680A6822F00E0278
:101E70000A6001680A6822F001020A6090F84020B6
:101E8000C36B012101FA02F25A6080F8211000218F
:101E900080F82010084670472DE9F05F90F8211077
:101EA0000024022903D004218163012485E0016814
:101EB0000A6822F00E020A6001680A6822F0010234
:101EC0000A603F4E3E4FB215DFF8F4C0DFF8F090E5
:101ED000DFF8ECA0DFF8E8B0DFF8E4E00168783F75
:101EE00013011502ACF1640CA9F15009AAF13C0AE6
:101EF000ABF1280BAEF1140E4FF48018B14227D984
:101F0000B9420ED0614512D049451DD0514518D077
:101F1000594518D0714501D1424615E0294EB142CC
:101F200001D1012210E0274E1436B14201D1102216
:101F30000AE0244E2836B14206D0224A3C32914271
:101F400001D11A4600E02A461E49091F0A602BE00B
:101F5000B94213D0614517D0494522D051451DD013
:101F600059451DD0714501D142461AE0B14202D116
:101F70004FF0807215E0134EB14201D1012210E002
:101F8000104E1436B14201D110220AE00D4E28360F
:101F9000B14206D00B4A3C32914201D11A4600E0D0
:101FA0002A46074980394A60012180F82110002122
:101FB00080F82010416B01B188472046BDE8F09FB2
:101FC00080000240080402402DE9F05FC16B0A68FE
:101FD00001680B68046C4FF0040808FA04F8844D9B
:101FE000844E854FDFF814C2DFF81492DFF814A294
:101FF000DFF814B2DFF814E218EA020F65D05FEAE6
:10200000437862D50A68920603D40A6822F0040273
:102010000A60DFF8F0814FF48062016808F114086B
:1020200013011402414524D9A9420DD0B1420FD069
:10203000B9421AD0614515D0494515D0514501D155
:10204000120312E0594501D104220EE0714501D17D
:1020500040220AE06D4D1435A94206D06B4A283261
:10206000914201D11A4600E022466749091F0A60E1
:1020700029E0A94213D0B14215D0B94220D0614520
:102080001BD049451BD0514502D14FF4800217E0C7
:10209000414502D14FF0806212E0594501D104223E
:1020A0000EE0714501D140220AE0584D1435A94295
:1020B00006D0564A2832914201D11A4600E0224603
:1020C0004B4908394A60C16A71E04FF0020808FACA
:1020D00004F818EA020F70D05FEA83786DD50A68B9
:1020E000920606D40A6822F00A020A60012180F8EA
:1020F0002110DFF810814FF40072016808F1140814
:1021000013011402414524D9A9420DD0B1420FD088
:10211000B9421AD0614515D0494515D0514501D174
:10212000120312E0594501D102220EE0714501D19E
:1021300020220AE0354D1435A94206D0334A283210
:10214000914201D11A4600E022462F49091F0A6038
:1021500029E0A94213D0B14215D0B94220D061453F
:102160001BD049451BD0514502D14FF4001217E056
:10217000414502D14FF0007212E0594501D10222CF
:102180000EE0714501D120220AE0204D1435A9420C
:1021900006D01E4A2832914201D11A4600E022465A
:1021A000134908394A60002180F82010816A00290B
:1021B0001CD0BDE8F05F0847FFE70825A5401542A1
:1021C00014D01A0712D50A6822F00E020A6090F89D
:1021D0004020C36B012101FA02F25A60816380F84A
:1021E0002110002180F82010016BE0E7BDE8F09F8E
:1021F000080002401C00024030000240440002403F
:10220000580002406C000240080402401C040240D6
:1022100030B560B11C4A03681421934209D21B4AAD
:102220001A44B2FBF1F18900016419490AE0012066
:1022300030BD154A52421A44B2FBF1F189000164E3
:1022400011490839C163022180F821101A6843F648
:10225000F0718A43F0E901142143D0E902452C438F
:102260002143046921434469214384692143114383
:102270001960002141628162C162016341630122F0
:1022800042770177084630BD08040240F8FFFDBFE1
:102290000000024070B5044690F820000025012897
:1022A0000CD0012084F8200094F821600020012E39
:1022B00006D084F820000225284670BD022070BD9B
:1022C000022684F82160A0632068066826F00106D3
:1022D00006602046FFF78EFAE06A00282068016851
:1022E00002D041F00E0106E021F0040101602068F7
:1022F000016841F00A0101602068016841F00101B4
:102300000160D9E72DE9F84FDFF8B8A100220AF102
:10231000040B144601274FF00F090BF1040E00BF08
:102320000B6807FA04F52B40AB4274D1DFF898C173
:102330004E68A6EB0C0866452BD00DDC032E34D07E
:1023400005DC36B3012E19D0022E2FD11BE0112E41
:1023500016D0122E2AD119E0B8F5881F19D006DC44
:10236000B8F5803F15D0B8F5801F1FD111E0B8F542
:10237000001F0ED0B8F5041F18D10AE0CA6815E096
:10238000CA68121D12E0CA6808320FE0CA680C322F
:102390000CE08A682AB1012A4FF0080203D0456197
:1023A00004E0042202E0056100E00022FF2B01D8D6
:1023B000064601E000F104064FEA840501D9A5F1C3
:1023C0002005D6F800C009FA05F82CEA080C02FA34
:1023D00005F54CEA050CC6F800C04D68ED006AD55D
:1023E0003A4DAE6946F00106AE61AD6924F00306D0
:1023F00005F001050095364D06EB050CDCF808509C
:10240000A6074FEA167809FA08F6B543314EB042EE
:1024100002D100261AE04EE02F4EB04201D1012633
:1024200014E02E4EB04201D102260FE02C4EB042F5
:1024300001D103260AE02B4EB04201D1042605E06B
:10244000294EB04201D1052600E0062606FA08F61C
:102450002E43CCF808604D68DAF80060ED0355466D
:1024600001D51E4300E09E432E604D68AD0305D5A7
:10247000DBF800601E43CBF8006004E0DBF800509E
:102480009D43CBF800504D68DEF80060ED027546C4
:1024900001D51E4300E09E432E604D68AD0205D578
:1024A000084D0C352E681E432E6004E0054E0C3698
:1024B00035689D433560641C102CFFF431AFBDE8D6
:1024C000F88F0000000401400000111000100240CD
:1024D0000000014000080140000C014000100140D4
:1024E0000014014000180140001C014080680840B1
:1024F00000D0012070470AB1016170470904FBE771
:102500000148806870470000081300200248816875
:10251000027811448160704708130020074810B505
:10252000016841F010010160032000F09DF80F20C8
:1025300000F006F800F024F8002010BD0020024052
:1025400070B50D4D04464FF47A712878B1FBF0F068
:102550000A490968B1FBF0F000F096FE48B9102C6A
:1025600007D200222146501E00F05EF800206C6069
:1025700070BD012070BD0000081300203C00002049
:10258000214808B5816941F001018161816901F04B
:1025900001010091C16941F08051C161C06900F041
:1025A00080500090032000F05FF8002211466FF089
:1025B0000B0000F039F8002211466FF00A0000F01D
:1025C00033F8002211466FF0090000F02DF80022C8
:1025D0001146501F00F028F800221146101F00F08D
:1025E00023F800220F21901E00F01EF800220F2178
:1025F000501E00F019F80548416821F0E06141F0F3
:102600000071416008BD0000001002400000014060
:1026100000F01F02012191404009800000F1E020FC
:10262000C0F8001170470000F0B40E4B1B680C4658
:10263000C3F30223C3F10705042D00D90425191D96
:10264000072901D2002300E0DB1E012606FA05F16E
:10265000491E214099409E40761E16403143F0BCF1
:1026600004F063BB0CED00E0064900F007020868C7
:102670004FF6FF03184040EA0220034A1043086067
:10268000704700000CED00E00000FA050149012050
:102690000862704700000E4210B52CA401461DCC04
:1026A00086B08DE81D002DA02D4C00680490002000
:1026B00004292FD00BDC01292FD0022928D100F0CA
:1026C0008BF96168C1F38131491C49001EE008297A
:1026D00020D010291CD161682268D20118D5C1F31D
:1026E0008342C9031DF8020009D5616804AAC1F339
:1026F0004041515C1B4AB2FBF1F1484301E01A49E9
:1027000048436168490203D440000321B0FBF1F063
:1027100006B010BD00F070F9FAE7226AC2F3012199
:10272000012903D1920701D5C803F1E7022905D198
:10273000626A920702D549F64040E9E70329E7D1EA
:1027400021688903E4D54FF22440E1E70203040540
:10275000060708090A0B0C0D0E0F101001020000ED
:102760000010024000127A0000093D002DE9F843F4
:1027700005460078354CC00754D0E0690026C000FB
:1027800008D4E06940F08050E061E069012600F083
:10279000805000902E480168C90512D40168804617
:1027A00041F480710160FFF7ABFE074605E000BF12
:1027B000FFF7A6FEC01B642823D8D8F80000C00588
:1027C000F6D5206A10F4407021D0A98801F4407138
:1027D00081421CD0206A1F49012220F440700A6007
:1027E00000220A602062C00711D0FFF789FE074669
:1027F00041F2883808E000BFFFF782FEC11B414567
:1028000002D90320BDE8F883206A8007F4D5206A46
:10281000696820F44070084320621EB1E06920F02E
:102820008050E0612878800705D56068A96820F4A9
:102830004040084360602878C00605D56068696933
:1028400020F48000084360600020DBE700100240B5
:1028500000700040400442422DE9F047DFF83C811F
:1028600005460E46D8F8000000F00700B0420CD232
:10287000D8F8001021F007013143C8F80010D8F84B
:10288000000000F00700B04263D12878444C800774
:1028900005D56068A96820F0F000084360602878DA
:1028A000C00745D06868012816D02168022816D0D4
:1028B000890700294DDA616821F003010143616055
:1028C000FFF71EFE6968074641F2883001290FD0E4
:1028D0000229814619D027E021688903E9E78901A7
:1028E000E7E700BFFFF70CFEC11B494501D918E01F
:1028F00081466068C0F381000128F3D118E000BF71
:10290000FFF7FEFDC11B49450BD86068C0F381008D
:102910000228F5D10CE000BFFFF7F2FDC11B4945CD
:1029200002D90320BDE8F087606810F00C0FF3D1E6
:10293000D8F80010404601F00701B1420BD90168F8
:1029400021F0070131430160006800F00700B04248
:1029500001D00120E6E72878400705D56068E968DE
:1029600020F4E060084360602878000706D56068BE
:10297000296920F4605040EAC100606000F03CF832
:102980006168084AC1F30311515CC84006490860F8
:102990000F20FFF7D5FD0020C4E700000020024013
:1029A0000010024014B000083C00002001480068FC
:1029B000704700003C000020044805490068496851
:1029C000044AC1F30221515CC84070473C0000201A
:1029D0000010024024B00008044805490068496816
:1029E000044AC1F3C221515CC84070473C0000203A
:1029F0000010024024B0000812A185B00FC98DE874
:102A00000F0014A0144A006804905168134801F0A4
:102A10000C03042B10D0082B0ED1C1F38343C90340
:102A20001DF803000AD5516804AAC1F34041515C66
:102A30000A4A5043B0FBF1F005B0704708494843DB
:102A4000FAE7000002030405060708090A0B0C0D4B
:102A50000E0F1010010200000010024000127A0058
:102A600000093D002DE9F84F04460078B94DC00734
:102A700048D06868C0F38100012807D06868C0F3B7
:102A80008100022809D16868C00306D52868800340
:102A900038D5606800286FD034E06068B0F5803FBA
:102AA0000BD010B1B0F5A02F11D0286820F48030E1
:102AB0002860286820F4802002E0286840F48030F4
:102AC0002860606888B1FFF71BFD064609E02868AA
:102AD00040F480202860F0E7FFF712FD801B642897
:102AE00075D828688003F7D50CE0FFF709FD064686
:102AF00005E000BFFFF704FD801B6428F0D82868BC
:102B00008003F7D42078944E80074FF001094FF0EE
:102B100000083BD5686810F00C0F07D06868C0F358
:102B20008100022809D16868C00306D4286880079C
:102B300014D5206901281FD110E02069B0B1C6F872
:102B40000090FFF7DDFC074605E000BFFFF7D8FC6B
:102B5000C01B0228C4D828688007F7D52868616997
:102B600020F0F80040EAC10028600FE0C6F80080BD
:102B7000FFF7C6FC074606E0E9E000BFFFF7C0FC30
:102B8000C01B022823D828688007F7D420780007C4
:102B90002CD57248A169D9B1C0F80090FFF7B0FCFC
:102BA000074604E0FFF7ACFCC01B02280FD8686A98
:102BB0008007F7D56A484FF4FA510068B0FBF1F08E
:102BC000009000BF0098411E0091FAD20EE080E014
:102BD000C0F80080FFF794FC074604E0FFF790FC84
:102BE000C01B022875D8686A8007F7D42078400790
:102BF00060D5E8690027C00008D4E86940F080503B
:102C0000E861E869012700F08050009055480168AC
:102C1000C90513D40168834641F480710160FFF750
:102C20006FFC824606E000BFFFF76AFCA0EB0A00DB
:102C300064284ED8DBF80000C005F5D5E06801280F
:102C40000AD008B1052813D0286A20F001002862B4
:102C5000286A20F0040002E0286A40F0010028629F
:102C6000E06841F2883B98B1FFF74AFC82460BE0EE
:102C7000286A40F004002862EEE700BFFFF740FC3E
:102C8000A0EB0A0159455AD8286A8007F6D50CE00E
:102C9000FFF736FC824605E0FFF732FCA0EB0A01A5
:102CA00059454CD8286A8007F6D41FB1E86920F04E
:102CB0008050E861E06988B36968C1F38101022945
:102CC00045D00228C6F8608004D0FFF719FC0446FE
:102CD00038E034E0FFF714FC074604E0FFF710FC8F
:102CE000C01B02282BD828688001F7D4206AB0F5D1
:102CF000803F05D16868A16820F40030084368600F
:102D0000D4E908010843696821F474110843686034
:102D1000C6F86090FFF7F4FB044606E015E000BF3C
:102D2000FFF7EEFB001B022809D828688001F7D5C1
:102D30000BE000BFFFF7E4FB001B022802D90320D1
:102D4000BDE8F88F28688001F4D40020F8E701205E
:102D5000F6E70000001002400000424280044242B8
:102D60003C000020007000402DE9F04791460C46E1
:102D70005FEA00084AD084B3D8F8000040684007F2
:102D800044D4404604F012FC4FF461620546B0FBA7
:102D9000F2F1B0FBF2F302FB13503C23B0FBF3F073
:102DA000B5FBF2F6607002FB1650B0FBF3F203FBCA
:102DB0001200A070182931D31820B1FBF0F7B1FB35
:102DC000F0F200FB12102070404604F0E8FB411CBA
:102DD00004D0A84202D9461B02E017E04FF0FF36AC
:102DE000A7EB071000EB4000C0EB001005EBC0158F
:102DF0002946404604F029FC40B9701C01D07119E5
:102E000000E03146404604F00CFC10B10120BDE862
:102E1000F0873946404604F035FB00E02170B9F1F7
:102E2000000F0BD0207804F022FB2070607804F0B3
:102E30001EFB6070A07804F01AFBA0700020E6E78B
:102E400070B5040003D0607C002610B105E00120BD
:102E500070BD2674204600F043F8022060742046BE
:102E600000F010F9042578BB204604F062FB58BB43
:102E70002068416821F007014160A06820B117482F
:102E8000016821F0010101601448001F0168A26877
:102E900021F46071114301606068411C04D101207C
:102EA000FFF7FAFB80B1401E21688A6822F00F020A
:102EB00042EA10428A602168CA6860F30F02CA6061
:102EC000204604F051FB08B16574C0E7E6730120A9
:102ED0006073A0736074002070BD0000306C00400F
:102EE00008B50068084988420DD1FFF7CFFB0748B5
:102EF000C16941F00061C161C069054900F000602D
:102F000000900120086008BD002800400010024029
:102F10003C0442422DE9F0410D4604003BD0C5B3CC
:102F2000207C01283AD04FF0010884F8108002205C
:102F30006074E87872B304F091FAE073687804F092
:102F40008DFA6073A87804F089FAA073C2B2617B2D
:102F5000E07B04F03BFB20732870204604F026FB46
:102F60004FF46161B0FBF1F1002518292DD9182229
:102F7000B1FBF2F1A1EB011101EB4101C1EB011138
:102F800000EBC1163146204604F05FFB0427C8B9A8
:102F90000BE000E004E00120BDE8F0810220FBE747
:102FA000E07368786073A878CFE7204604F0F7FAFA
:102FB000411C0AD0B04208D206490144204604F020
:102FC00030FB10B167742574E5E784F8118025742F
:102FD0000020E1E7805101002DE9F0410D46040099
:102FE00024D01DB3207C012823D04FF0010884F8A1
:102FF0001080022060742878EAB104F02FFA4FF4B0
:10300000616100FB01F6687804F028FAC0EB00105B
:1030100006EB8006A87804F021FA351829462046E8
:1030200004F013FB0026042710BB0FE00120BDE8CD
:10303000F0810220FBE74FF4616148436978C1EBFE
:10304000011100EB8100A9784518E7E72068416885
:1030500021F005014160204604F0A1FA411C0AD08C
:10306000A84208D206490144204604F0DAFA10B119
:1030700067742674DAE784F8118026740020D6E796
:103080008051010070B504000AD02068416821F029
:1030900008014160FFF734FA05464FF47A7608E0FC
:1030A000012070BDFFF72CFA401BB04201D903206C
:1030B00070BD206840680007F4D5002070BD7047DF
:1030C00038B504460068426881684B0605D4CB07D2
:1030D00003D0530601D5216C04E08B0707D51306F6
:1030E00005D5616C01B02046BDE83040084711F0BD
:1030F000600F3FD093063DD54B060AD594F851306A
:10310000032B34D0636D43F004036365C3688368A5
:103110000093890609D5616D41F0010161658168FF
:103120000091016821F040010160606D002821D00C
:103130002068416821F0E0014160012084F85100DD
:10314000900718D02068416821F0030141600C4DC0
:10315000E06C18B14563E06CFEF79EFEA06C0028A1
:1031600008D04563A06CBDE83840FEF795BEC16845
:103170008068009038BD2046FFF7A1FF38BD0000F1
:103180001978000870B5040005D00025A56294F8F0
:10319000510010B104E0012070BD204600F034F869
:1031A000022084F851002068016821F0400101608C
:1031B000D4E901010843D4E90312114308436169CA
:1031C0000843218B01F400710843E1690843216A37
:1031D0000843A16A084321680860A069042101EA44
:1031E0001040616A0843216848602168E06A08610C
:1031F0002068C16921F40061C1616565012084F81E
:103200005100002070BD000010B50068154986B05F
:10321000884224D11448816941F4805181618069D8
:10322000124C00F480500490A020009002200190E5
:103230000320039069462046FFF764F800214020F0
:10324000CDE90001029169462046FFF75BF80022B4
:1032500005212320FFF7E8F92320FFF7D9F906B06D
:1032600010BD000000300140001002400008014085
:103270004FF0E0210428086903D020F00400086121
:10328000704740F00400FAE710B5401EB0F1807FAF
:1032900001D3012010BD4FF0E02460610F216017C1
:1032A00003F043FD0020A06107202061002010BD35
:1032B0007047704730B590F83C20012A20D0012299
:1032C00080F83C20022380F83D3003685C6824F0DD
:1032D00070045C6003685C680D682C435C60036884
:1032E0009C6824F080049C6003689C6849680C43D7
:1032F0009C6080F83D20002180F83C10084630BDDD
:10330000022030BD10B5040003D094F83D0010B188
:1033100007E0012010BD002084F83C00204600F0AA
:103320000DF8022084F83D00211D206805F05AF9AF
:10333000012084F83D00002010BD000008B50068A1
:10334000B0F1804F12D10A48C16941F00101C16159
:10335000C069002200F00100009005211C20FFF749
:1033600063F9BDE808401C20FFF752B908BD000012
:10337000001002400168CA6842F00102CA60006899
:10338000016841F0010101600020704770B50446FA
:1033900090F83C00012817D0012584F83C50022009
:1033A00084F83D002068826822F0770222F47F4290
:1033B00082600868502837D00DDC202859D005DC01
:1033C00088B3102841D151E0022070BD302853D07D
:1033D00040283AD13FE060282ED070280BD0B0F5BD
:1033E000805F03D0B0F5005F2FD110E020688168C6
:1033F00021F0070115E0CB68D1E90121206805F033
:1034000037F92168886840F0770088601DE0CB6854
:10341000D1E90121206805F02BF92068816841F489
:103420008041816011E01EE0CA684968206805F0AB
:1034300031F95021206806E0CA684968206805F023
:103440003AF96021206805F01DF984F83D5000200C
:1034500084F83C0070BDCA684968206805F01AF914
:1034600040212068EFE700212068ECE71021206868
:10347000E9E720212068E6E730212068E3E770478C
:1034800070B50446006801694FF00005C94389071B
:1034900015D4C168C943890711D4E91E016101200F
:1034A0002077206880698007204602D0FFF7E7FF79
:1034B00004E000F098F8204600F0BCF8257720687A
:1034C0000169C943490717D4C168C943490713D4DF
:1034D0006FF004010161022020772068806910F4F8
:1034E000407F204602D0FFF7CAFF04E000F07BF8DF
:1034F000204600F09FF8257720680169C943090735
:1035000016D4C168C943090712D46FF008010161DC
:10351000042020772068C0698007204602D0FFF78A
:10352000AEFF04E000F05FF8204600F083F8257756
:1035300020680169C943C90617D4C168C943C906CF
:1035400013D46FF010010161082020772068C06952
:1035500010F4407F204602D0FFF791FF04E000F016
:1035600042F8204600F066F8257720680169C943D3
:10357000C90708D1C168C943C90704D1891E0161BF
:10358000204600F059F820680169C943090609D4AA
:10359000C168C943090605D46FF080010161204666
:1035A000FFF786FE20680169C943490609D4C1684E
:1035B000C943490605D46FF040010161204600F07F
:1035C0004FF820680169C94389060BD4C168C94313
:1035D000890607D46FF0200101612046BDE87040E4
:1035E000FFF767BE70BD704770B50D46040003D08D
:1035F00094F83D0010B107E0012070BD002084F870
:103600003C00204600F015F8022084F83D00211D02
:10361000206804F0E7FF2068016821F008010160DC
:103620002068016829430160012084F83D000020E2
:1036300070BD704770470000074800680068D0F808
:103640000815B1F5805F04D3D0F80815491CC0F8FF
:1036500008150248FFF78EBEF0120020E813002084
:10366000704710B504460068416994F83920C1F3E9
:10367000C011212A0BD151B1416921F08001416172
:10368000206B08B1FEF7F0FB204605F0CBF8206870
:10369000416994F83A20C1F38011222A0BD151B12B
:1036A000416921F040014161606B08B1FEF7DCFB2C
:1036B000204605F0A9F8002010BD704770B50268DB
:1036C00004461068D168536910F00F0F50D003F012
:1036D000010501F4907635435DD0C20705D0CA05D7
:1036E00003D5E26B42F00102E263420705D5DA0737
:1036F00003D0E26B42F00202E263820705D5DA07EB
:1037000003D0E26B42F00402E263020705D5DA0758
:1037100003D0E26B42F00802E263E26B002A33D08E
:10372000800604D5880602D5204605F0B7F8206843
:103730004069E16BC0F38010090700D428B320462C
:1037400005F062F82068416949061AD5416921F0FF
:1037500040014161606BA0B11B494163606BFEF7A2
:103760009BFB002810D0606B416BBDE870400847A0
:10377000830610D58B060ED52046BDE8704005F0B7
:103780008DB82046FFF799FF70BD2046FFF795FFE3
:103790000020E06370BD030606D50B0604D5204665
:1037A000BDE8704005F07EB94006F3D54806F1D576
:1037B000D168204621F04001D160202184F83910E1
:1037C00000F00AFA70BD00003187000870B50400EF
:1037D00004D094F83900002510B106E0012070BD36
:1037E00084F83850204600F023F8242084F839006B
:1037F0002068C16821F40051C160204605F09AF8A4
:103800002068016921F4904101612068416921F03B
:103810002A0141612068C16841F40051C160E5633B
:10382000202084F8390084F83A00002070BD0000A0
:10383000F0B506463A4F03683A48022103223A4D52
:10384000002485B0BB4219D1836943F4804383616E
:103850008069039200F4804004900802CDE90001E1
:1038600069462846FEF74EFD2815CDE90004694655
:1038700028460294FEF746FD05B0F0BD2B4FBB4233
:10388000FAD1C36943F40033C361C069039200F401
:10389000003004900420CDE9000169462846FEF777
:1038A00031FD0820CDE90004694628460294FEF760
:1038B00029FD204D1E48802701C5102091C51D48B7
:1038C00045F810496C61AC61EC61FEF7A1FC20B1D8
:1038D00040F22F1118A005F03BFA35636E621448D0
:1038E0001C4D1438C5E90004C5E902472C614FF4AA
:1038F00040506C61C5E906402846FEF789FC20B1BE
:1039000040F23F110CA005F023FA75630022052157
:1039100026206E62FEF788FE2620FEF779FEABE7D2
:1039200000380140001002400008014000440040FF
:1039300080000240A81400202E2E2F5372632F7394
:10394000746D3332663178785F68616C5F6D737067
:103950002E630000EC140020F8B5044690F83A00FD
:1039600020283CD1C1B3BAB394F83800012836D02E
:10397000012084F83800A162A2850025E563222099
:1039800084F83A00636B17489862636B1648D862F4
:10399000636B16481863606B134645630846666B95
:1039A000216802463046091DFEF774FC2068016854
:1039B0004168009184F83850C16841F48071C16059
:1039C0002068416941F0010141612068416941F08D
:1039D000400141610020F8BDFFE70120FBE7022024
:1039E000F9E700008B870008C787000841870008B7
:1039F00090F83A30202B22D1F9B1F2B190F838305A
:103A0000012B1CD081628285C2850021C1632222E4
:103A100080F83A2080F838100168CA6842F4807251
:103A2000CA6001684A6942F001024A610068C168DF
:103A300041F02001C1600020704701207047022042
:103A40007047000008B500680F4988421BD10F4835
:103A50000F49027843788B54521CD2B202708818F6
:103A600010F8011C0A2908D110F8020C0D2804D105
:103A700008486946006806F0BDFF04490122491C58
:103A80000548FFF7B5FF08BD0038014038000020A9
:103A900030150020280000202814002070472DE950
:103AA000F843044690F839001F4616460D46202874
:103AB00050D1A5B19EB194F8380001284AD0012018
:103AC00084F838004FF00008C4F83C80212084F8C6
:103AD0003900FEF715FDA6848146E68426E0012024
:103AE000BDE8F883E08C401EE084A0684B46B0F54A
:103AF000805F4FF000024FF080012046009703D016
:103B000005F001F8E8B90DE004F0FDFFC8B9288818
:103B10002168C0F308004860206908B16D1C05E009
:103B2000AD1C03E0216815F8010B4860E08C00280B
:103B3000D8D14B46002240212046009704F0E3FFF5
:103B400008B10320CCE7202084F8390084F83880BD
:103B50000020C5E70220C3E770B5044690F839009D
:103B6000202830D169B362B394F8380001282AD0F4
:103B7000012084F838002162A284E2840025E563F4
:103B8000212084F83900236B10489862236B104879
:103B9000D862236B0F481863206B13464563266871
:103BA000206B321DFEF776FB21686FF04000086045
:103BB00084F838502068416941F08001416100205B
:103BC00070BD012070BD022070BD0000D1870008CB
:103BD000FF870008418700087047704701A005F083
:103BE000C3F8FBE7686172646661756C740D0A0066
:103BF00070B51F4C05004FF000021DD00221204679
:103C0000FEF779FC284603F0E5FD0022012120465D
:103C1000FEF771FC0A2005F03DFD0122022120463D
:103C2000FEF769FC0A2005F035FD0022022120463E
:103C3000BDE87040FEF75FBC4FF4004631462046B9
:103C4000FEF759FC284603F0C5FD00224021094833
:103C5000FEF751FC022005F01DFD012231462046F1
:103C6000FEF749FC022005F015FD00223146DEE793
:103C7000000C0140001001402DE9F04101002B48EB
:103C8000DFF8AC8086B04FF001044FF0020520D081
:103C900001291BD1816941F0080181618069694670
:103CA00000F0080004900320CDE900044046CDE96F
:103CB0000245FEF727FB012202214046FEF71BFCCE
:103CC000012211464FEA0800FEF715FC06B0BDE8D8
:103CD000F081816941F004018161816901F0040191
:103CE0000491816941F0080181618069002700F039
:103CF00008000297CDE903504FF40046CDE9006477
:103D000069464046FEF7FEFA402003958DE8910093
:103D100069460848FEF7F6FA002231464046FEF7AB
:103D2000EAFB002240210448CEE7000000100240D8
:103D3000000C0140000801400010014070B51F4C0C
:103D400005004FF000021DD002212046FEF7D3FBF4
:103D5000284603F03FFD012211462046FEF7CBFB2B
:103D60000A2005F097FC012202212046FEF7C3FB42
:103D70000A2005F08FFC002202212046BDE8704099
:103D8000FEF7B9BB4FF4004631462046FEF7B3FBC1
:103D9000284603F01FFD012240210948FEF7ABFB36
:103DA000022005F077FC012231462046FEF7A3FBF6
:103DB000022005F06FFC00223146DEE7000C0140D6
:103DC000001001402DE9F047384D88465FEA0009B0
:103DD0004FF0000434D003F0E1FC01220824002657
:103DE00011462846FEF787FB002202212846FEF7EF
:103DF00082FB0A2005F04EFC7006060E641EE4B23B
:103E0000012202212846FEF776FB0A2005F042FC3B
:103E100001212846FEF76AFB012840D006F0FE0685
:103E2000002CE1D1002202212846FEF764FBB8F104
:103E3000000F484636D0FFF7DBFE3046BDE8F0877E
:103E400003F0ACFCDFF868A000264FF40047002226
:103E500039462846FEF74FFB022005F01BFC0122E5
:103E600039462846FEF747FB6006040E40215046BF
:103E7000FEF73CFB08B1641CE4B2012005F00AFC2B
:103E8000761CF6B2082EE2D3B8F1000F484603D0F4
:103E9000FFF7AEFE2046D1E7FFF750FFFAE746F006
:103EA0000106BDE7FFF74AFFC7E70000000C01402D
:103EB000001001402DE9F0412F4D0C4660B103F098
:103EC00089FC002202212E462846FEF714FB00251D
:103ED000200631D5012230E003F07CFC4FF400478E
:103EE000002239462846FEF706FBDFF890800026C0
:103EF000200601D5012200E0002240214046FEF7C5
:103F0000FAFA6006040E022005F0C4FB01223946CD
:103F10002846FEF7F0FA022005F0BCFB00223946E5
:103F20002846FEF7E8FA022005F0B4FB761CF6B24C
:103F3000082EDDD3BDE8F081002201213046FEF7D6
:103F4000DAFA6006040E082005F0A4FB0122022123
:103F50003046FEF7D0FA082005F09CFB0022022133
:103F60003046FEF7C8FA082005F094FB6D1CEDB250
:103F7000082DADD3DEE70000000C01400010014029
:103F800070B51E4CE8B103F025FC01221146204615
:103F9000FEF7B1FA012202212046FEF7ACFA082012
:103FA00005F078FB002201212046FEF7A4FA082044
:103FB00005F070FB002202212046BDE87040FEF7AC
:103FC0009ABA03F007FC0E4D012240212846FEF765
:103FD00092FA0122D60331462046FEF78CFA0420DD
:103FE00005F058FB002240212846FEF784FA042001
:103FF00005F050FB00223146DEE70000000C0140D6
:104000000010014070B51E4CC0B103F0E3FB00226C
:1040100001212046FEF76FFA082005F03BFB012244
:1040200002212046FEF767FA082005F033FB204600
:10403000BDE8704001221146FEF75DBA03F0CAFBED
:104040004FF40045002229462046FEF754FA0D4E53
:10405000002240213046FEF74EFA042005F01AFBFC
:10406000012229462046FEF746FA01224021304629
:10407000FEF741FABDE87040042005F00BBB0000DC
:10408000000C0140001001402DE9F041284D0600D0
:104090004FF0000412D003F081FB012211462846A4
:1040A000FEF729FA0A2005F0F5FA01220221284636
:1040B000FEF721FA0A2005F0EDFA2CE003F06EFB82
:1040C0001C4F012240213846FEF715FA012005F069
:1040D000E1FA4FF40048012241462846FEF70BFA68
:1040E000012005F0D7FA03E0641CE4B2FA2C0CD8E6
:1040F00040213846FEF7FAF90028F5D10022414662
:1041000011E0641CE4B2FA2C05D93046FFF77AFFBF
:104110000120BDE8F08101212846FEF7E7F90028DB
:10412000EFD1002202212846FEF7E5F90020F0E752
:10413000000C0140001001401CB50446000A8DF837
:1041400000008DF80440012269468A20FCF7F0FD4A
:10415000012201A98B20FCF7EBFD014804801CBD66
:104160009812002008B5012269468020FCF7A4FDC2
:104170009DF90000323065280CD305208DF8000031
:10418000012269468020FCF7D3FD01226946802088
:10419000FCF792FD9DF90000FCF760F90249FCF77D
:1041A0001FF90249086008BD00002041D812002014
:1041B0007CB5124D010A012268808DF800108DF83F
:1041C000040069468220FCF7B3FD012201A9832087
:1041D000FCF7AEFD0A4E002404EB440006EB800120
:1041E0006888CA88824204D9C88020010C22FCF762
:1041F0009FFD641CE4B2082CEED37CBD7C12002031
:10420000701500201CB5094901228880010A8DF82B
:1042100000108DF8040069468420FCF789FD012216
:1042200001A98520FCF784FD1CBD00007C12002044
:104230002DE9F041002601271A4D1DE000EB400159
:10424000441C05F8214005EB810117220A723B222C
:104250004A728A720E7119228A701422CA70CE8034
:104260004F7020B92F7104232B726E72AE72000151
:104270000C22FCF75DFDE0B20828DFD30A4D0024D4
:1042800004EB440005EB800120010C22FCF714FD37
:10429000641CE4B2082CF3D3BDE8F0410C2103A068
:1042A00004F062BDD015002070150020777269748B
:1042B0006520616C6C20537472617465677920733A
:1042C000756363657373256421210D0A0000000086
:1042D00001B5012269468720FCF72AFD02499DF8B5
:1042E0000000487008BD00007C12002000F040B8BB
:1042F0002DE9F0410E460746B024204604F05CFC50
:10430000102004F059FC002004F056FC002538462B
:1043100004F0D8FC304604F0D5FC6D1CEDB2802DC5
:10432000F5D3641CE4B2B82CE7D3BDE8F0810000FB
:104330000E4810B500784FF000030A284FF02D0208
:1043400008D04421B32001F021FB00232D22542169
:10435000B32007E06421B52001F018FB00232D22D3
:104360007421B520BDE8104001F010BB48000020CA
:1043700070B50C46054600230E221421B72001F02B
:1043800005FB00230F222421B72001F0FFFA0023B0
:1043900010223421B72001F0F9FA00231122442120
:1043A000B72001F0F3FA00233A225421B72001F09C
:1043B0002BFB2146284600F0BDF800232A2252217B
:1043C000B52001F0E3FA002302221421B32001F00A
:1043D000DDFABDE87040002303222421B32001F060
:1043E000D5BA00002DE9F041444C454E4FF001088C
:1043F000217819B93188618084F800800025092866
:104400007AD2DFE800F0050C14793E7979795B0007
:10441000BDE8F0413949491C481CFFF767BF607887
:10442000032802D2401C607041E065703FE0607874
:104430004FF4167130B1012809D002280CD003289E
:1044400035D10CE06088643003E060802FE0608844
:104450000A308842F9D92AE06088401CF9E72749E8
:10446000491C481C00F066F860883080FFF764FE45
:1044700001F0D0F940F2DC5005F036FAFFF758FFB2
:1044800015E0607820B1012807D002280FD109E09B
:10449000608864280BD46438D7E760880A2806D47B
:1044A0000A38D2E76088012801D4401ECDE7BDE874
:1044B000F0411249491C481C00F03CB8114F3878B3
:1044C000072819D110A004F04FFC00210846FFF77F
:1044D0000FFF002000F0F2FB308860802570022082
:1044E000387012486570006805F036FF1048616842
:1044F0004160656080F80080BDE8F081D012002046
:1045000098120020480000206E6F775F7061676529
:10451000203D3D2044656C61795F496E7370656331
:1045200074696F6E5F706167650D0A00500000204E
:104530003000002038B50C4605463022032168467D
:10454000FBF780FE2A881FA1684604F01DFC207836
:1045500068B300239DF800203A21B52001F054FAF9
:104560002078012825D000239DF801204221B52084
:1045700001F04AFA207802281DD000239DF802207D
:104580004A21B52001F040FA2078032815D00023F5
:1045900002221421B32001F0F9F9207803280ED06B
:1045A000002303222421B32001F0F0F938BD0123B8
:1045B000D0E70123D8E70123E0E70123E8E701235F
:1045C000EFE70000253033640000000010B50078EC
:1045D000042826D00024234635220421B72001F0E8
:1045E00013FA23462E220C21B72001F00DFA2346A0
:1045F0000E221421B72001F0C9F923460F222421ED
:10460000B72001F0C3F9234610223421B72001F06E
:10461000BDF9234611224421BDE81040B72001F026
:10462000B5B90124D7E710B50078032826D00024B7
:10463000234634220421B12001F0E6F923462E223C
:104640000C21B12001F0E0F923460A221421B12007
:1046500001F09CF923460B222421B12001F096F9A8
:1046600023460C223421B12001F090F923460D227B
:104670004421BDE81040B12001F088B90124D7E7FA
:1046800070B50C46054600230A221421B72001F01C
:104690007DF900230B222421B72001F077F90023B4
:1046A0000C223421B72001F071F900230D2244219E
:1046B000B72001F06BF900233A225421B72001F012
:1046C000A3F92146284600F0BDF800232F225421EB
:1046D000B52001F05BF9002302221421B32001F080
:1046E00055F9BDE87040002303222421B32001F0D6
:1046F0004DB900002DE9F047424C8046DFF80891A3
:104700006078424F012638B949463868FBF736FED3
:10471000FBF7B2FE207066703A480025B8F1090F29
:1047200080786CD2DFE808F0050C176B3C6B6B6B84
:104730004600BDE8F0473349891C881E01F0B7B830
:1047400038B1A570BDE8F0472E49891C881E00F0DD
:1047500079B8A670F6E7E8B1012850D12949891C3B
:10476000881E00F06FF894F90000FBF777FE4946C9
:10477000FBF736FE3860012222498020FCF7D8FA88
:1047800001F048F840F2DC5005F0AEF8BDE8F04723
:10479000FFF7CEBD94F90000322830DA401C07E064
:1047A00000282CD194F9000010F1320F27DD401EB3
:1047B0002070C7E7DFF8588098F8000006281ED15F
:1047C00014A004F0D1FA00210846FFF791FD002063
:1047D00000F074FA49463868FBF7D0FDFBF74CFE51
:1047E00020706570022188F800101448A5700068D8
:1047F00005F0B2FD12486168416065600670BDE871
:10480000F0870000A012002000002041D8120020F4
:10481000480000206E6F775F70616765203D3D2026
:1048200048554D495F436F6D70656E736174696F74
:104830006E5F706167650D0A000000005000002087
:10484000300000207CB50C46054630220521684624
:10485000FBF7F8FC95F90020002A28DB39A168460F
:1048600004F092FA2078E0B15FF000039DF8002098
:104870002A21B52001F0C8F82078A0B100232E220B
:104880003221B52001F0C0F8207870B15FF000034C
:104890009DF801203A21B52001F0B6F8002320222E
:1048A0002AE00123E2E70123E9E70123F0E727A15A
:1048B000684604F069FA2078A8B300239DF8002028
:1048C0002A21B52001F0A0F8207868B35FF000033A
:1048D0009DF801203221B52001F096F8207840B3F0
:1048E00000232E223A21B52001F08EF8207810B353
:1048F0005FF000039DF802204221B52001F084F80A
:104900002078012819D0002302221421B32001F0BD
:104910003DF82078012812D0002303222421B3205F
:1049200001F034F87CBD00E001E00123C6E701237B
:10493000CEE70123D5E70123DCE70123E4E70123E8
:10494000EBE70000253032640000000025303364BE
:104950000000000010B50078022826D0002423466D
:1049600033220421B32001F04FF823462E220C21DC
:10497000B32001F049F8234608221421B32001F0A6
:1049800005F8234609222421B32000F0FFFF234627
:1049900004223421B32000F0F9FF234605224421EC
:1049A000BDE81040B32000F0F1BF0124D7E730B4D8
:1049B0000A787AB1012A15D0022A20D0032A2BD1F5
:1049C00002880A23B2FBF3F403FB1423092B20D241
:1049D000521C12E0028842F228339A4219D202F5A0
:1049E0007A720AE002884FF47A73B2FBF3F403FBA5
:1049F0001423B3F5617F0CD26432028009E002888F
:104A00006423B2FBF3F403FB14235A2B01D20A32C2
:104A1000F3E730BC00F0C2B830BC704770B50C464C
:104A20000546002308221421B72000F0AFFF002321
:104A300009222421B72000F0A9FF002304223421F9
:104A4000B72000F0A3FF002305224421B72000F087
:104A50009DFF00233A225421B72000F0D5FF2146C4
:104A6000284600F09BF800232E225421B52000F0A8
:104A70008DFF002302221421B32000F087FFBDE840
:104A80007040002303222421B32000F07FBF0000E8
:104A90002DE9F041344C354F4FF00108217819B918
:104AA0003988618084F80080002509285AD2DFE81F
:104AB00000F0050C1A59345959593B00BDE8F04132
:104AC0002949491C481C00F05FBF6078042802D2C5
:104AD000401C607000E06570BDE8F0412249491C4F
:104AE000481C00F05BB8607804280FD11E49491CAF
:104AF000481C00F053F86088FFF75AFB00F08AFE6C
:104B000040F2DC5004F0F0FEFFF712FCBDE8F0418B
:104B10001549491C481CFFF74ABFBDE8F04112493E
:104B2000491C481C00F096B8114E3078052819D160
:104B300010A004F019F900210846FFF7D9FB002066
:104B400000F0BCF838886080257002203070114871
:104B50006570006805F000FC0F48616841606560A1
:104B600080F80080BDE8F081A81200207E120020AD
:104B7000480000206E6F775F70616765203D3D20C3
:104B80004D61785F526F7574655F706167650D0A7E
:104B90000000000050000020300000203EB50C4610
:104BA000054630220A216846FBF74CFB2A8827A1DC
:104BB000684604F0E9F82078B0B300239DF800209F
:104BC0002A21B52000F020FF207801282FD00023D3
:104BD0009DF801203221B52000F016FF2078022830
:104BE00027D000239DF802203A21B52000F00CFFC9
:104BF000207803281FD000239DF803204221B520F0
:104C000000F002FF2078042817D000280BD10023E1
:104C100002221421B32000F0B9FE00230322242134
:104C2000B32000F0B3FE3EBDFFE70123C6E701233A
:104C3000CEE70123D6E70123DEE701230222142178
:104C4000B32000F0A3FE0123E8E700002530346420
:104C50000000000030B40A784FF47A7372B1012A70
:104C600012D0022A1AD0032A25D102880A23B2FBC5
:104C7000F3F403FB1423DBB1521E0DE002889A42C9
:104C800016D3A2F57A7207E00288B2FBF3F403FBB5
:104C90001423632B0CD9643A028009E00288642350
:104CA000B2FBF3F403FB1423092B01D90A3AF3E70F
:104CB00030BCFFF773BF30BC70470000254910B50A
:104CC0000A78092845D2DFE800F0050D144418449D
:104CD000444420001F4ABDE81040921C511E481E4B
:104CE00000F032BE1B49BDE81040891C881EFCF74D
:104CF00097BD002A2DD0012102E0072A29D20221E6
:104D0000BDE81040134800F031B891F90200401C92
:104D10001FD100240C704C7021462046FFF7E8FAA2
:104D20000D48007800F06AFF0C480068007900F038
:104D30003DFF012000F0F0FE00F01AFF0848006877
:104D400005F00AFB07480121017007490A68426023
:104D50000C6010BD9A1200207C120020F01200207E
:104D60004C00002030000020500000202DE9F041D0
:104D7000044690F800C006200522042303250226DD
:104D80000127BCF1080F7DD2DFE80CF004081827DA
:104D9000354D5F7602297ED1277005E002290BD0C0
:104DA000012978D100202070204600F05BF92046D0
:104DB000BDE8F04100F0D6B8267004E002290AD020
:104DC000012968D12770204600F0CCF82046BDE8C4
:104DD000F041FFF7BFBD257018E0022903D001297B
:104DE00059D1267012E023702046FFF7EFFB2046D2
:104DF00000F008FA38E0022910D001294BD12570C3
:104E0000204600F02FF9204600F0ACF82046FFF7CE
:104E1000A1FD2046BDE8F041FFF705BC2270204609
:104E2000FFF7D4FB19E002290AD0012933D12370FE
:104E3000204600F0E7F92046BDE8F041FFF7C6BB89
:104E40002070204600F0DEF920E002290AD0012976
:104E500021D12270204600F0B7FB2046BDE8F0418A
:104E600000F0D0B907202070204600F0ADFB2046AE
:104E7000BDE8F04100F0EEBC02290CD001290AD1B6
:104E8000207000E007E0204600F0E4FC2046BDE88A
:104E9000F04100F099BBBDE8F08110B50023262257
:104EA0001421B72000F072FD002327222421B7200F
:104EB00000F06CFD002304223421B72000F066FDD1
:104EC000002305224421B72000F060FD00233A2290
:104ED0005421B72000F098FD00F014F800232E2292
:104EE0005421B52000F052FD01231B221421B320D0
:104EF00000F04CFD01231C222421BDE81040B3200A
:104F000000F044BD0EB530220A216846FBF79AF93D
:104F1000114812A1007842B2684603F035FF9DF8AF
:104F2000002000232A21B52000F06EFD9DF801200D
:104F300000233221B52000F067FD9DF802200023F8
:104F40003A21B52000F060FD9DF8032000234221A6
:104F5000B52000F059FD0EBD8012002025303464CC
:104F60000000000010B50078012826D00024234658
:104F700032220421B52000F047FD23462E220C21C9
:104F8000B52000F041FD234604221421B52000F095
:104F9000FDFC234605222421B52000F0F7FC234622
:104FA00006223421B52000F0F1FC234607224421DB
:104FB000BDE81040B52000F0E9BC0124D7E70000AF
:104FC00010B5092834D2DFE800F005330933333354
:104FD00033331700BDE81040FFF75FBFFCF724FF35
:104FE000FFF790FF00F016FC40F2DC5004F07CFC70
:104FF000BDE81040FFF79CB90E4C2078042817D16B
:105000000DA003F0B1FE00210846FFF771F9002062
:10501000FFF754FE022020700F48006805F09CF94D
:105020000E480F4902684A600022026001200870A1
:1050300010BD0000480000206E6F775F70616765EB
:10504000203D3D20526F7574655F52657365745FD6
:10505000706167650D0A000050000020B01200204A
:105060003000002010B5007830B3002423463122F0
:105070000421B72000F0C8FC23462E220C21B720C3
:1050800000F0C2FC234600221421B72000F07EFC71
:10509000234601222421B72000F078FC2346022277
:1050A0003421B72000F072FC234603224421BDE8DE
:1050B0001040B72000F06ABC0124D7E72DE9F04189
:1050C000044690F800C0062005220423032502268A
:1050D0000127BCF1080F7DD2DFE80CF0040B1E2D78
:1050E000425A6C85022975D12770204601F030FBA9
:1050F0001AE002290BD001296CD100202070204633
:1051000001F02CFB2046BDE8F04101F021BB2670E8
:10511000204601F023FB16E002290AD001296FD1B5
:105120002770204601F020FB2046BDE8F04101F049
:1051300015BB25701FE002290AD0012960D1267015
:10514000204601F017FB2046BDE8F04101F00CBB02
:105150002370204601F014FB204601F017FB38E0D5
:10516000022910D001294BD12570204601F0F0FA18
:10517000204601F0F3FA204601F0F6FA2046BDE899
:10518000F04101F0F7BA2270204601F0F9FA19E077
:1051900002290AD0012933D12370204601F0F6FA02
:1051A0002046BDE8F04101F0EBBA2070204601F046
:1051B000EDFA20E002290AD0012921D122702046EF
:1051C00001F0EAFA2046BDE8F04101F0DFBA07201D
:1051D000207000E014E0204601F0DEFA2046BDE831
:1051E000F04101F0DFBA02290AD0012908D120706C
:1051F000204601F0D7FA2046BDE8F04101F0CCBAD4
:10520000BDE8F08110B50078052826D0002423469B
:1052100036220421B52000F0F7FB23462E220C2174
:10522000B52000F0F1FB23460F221421B52000F039
:10523000ADFB234612222421B52000F0A7FB234614
:1052400013223421B52000F0A1FB2346142244216F
:10525000BDE81040B52000F099BB0124D7E770B538
:105260000C46054600230F221421B72000F08EFBC8
:10527000002312222421B72000F088FB00231322F0
:105280003421B72000F082FB002314224421B720F0
:1052900000F07CFB00233A225421B72000F0B4FB3D
:1052A0002146284600F0B0F8002302221421B32042
:1052B00000F06CFBBDE87040002303222421B320E2
:1052C00000F064BB2DE9F0414A4C074601266078A6
:1052D00028B90022A11C4848FDF746FD66704548E4
:1052E0000025801C4FF00208092F7DD2DFE807F06F
:1052F000050C207F487F7F7F6400BDE8F0413D4979
:10530000891C881E01F0DCBA94F9000050B1012814
:1053100006D0022802D0032847D106E0267044E0D8
:10532000257042E0032020703FE084F800803CE0DC
:1053300094F9001081B1012909D0022902D0032972
:1053400033D10EE0017818292FD2491C22E0417890
:105350003B292AD2491C22E081783B2925D2491CCD
:1053600022E024490022891C2348FDF735FE00F085
:1053700051FA40F2DC5004F0B7FAFEF7D9FF14E01E
:1053800094F9001069B1012906D002290DD10178E4
:1053900059B1491E017008E0417831B1491E417090
:1053A00003E0817809B1491E8170BDE8F0411149DF
:1053B000891C881E00F028B8104F3878082816D1AC
:1053C00000210846FEF794FF0020FFF777FC657088
:1053D00087F800800A4884F80080006804F0BCFF69
:1053E0000848A168416000E001E0A5600670BDE8E2
:1053F000F0810000BC1200207C1300204800002037
:1054000050000020300000203EB50D4604463022FA
:1054100003216846FAF716FF3022032101A8FAF7A4
:1054200011FF3022032102A8FAF70CFF95F90020A2
:1054300063A1684603F0A8FC95F9012060A101A8CA
:1054400003F0A2FC95F902205DA102A803F09CFCE8
:1054500094F90000022824D001283CD0002876D0FE
:10546000032837D19DF8002000232A21B52000F021
:10547000CBFA9DF8012000233221B52000F0C4FAB8
:105480003A2200231146B52000F0BEFA9DF8042010
:1054900000234221B52000F0B7FA9DF80520002333
:1054A00037E09DF8002001232A21B52000F0ACFA56
:1054B0009DF801200123DFE702221421B32000F030
:1054C00065FA2078032878D0002303222421B32012
:1054D00000F05CFA3EBD9DF8002000232A21B52093
:1054E00000F092FA9DF8012000233221B52000F04F
:1054F0008BFA3A2200231146B52000F085FA9DF878
:10550000042001234221B52000F07EFA9DF80520F9
:1055100001234A21B52000F077FA00233A225221D4
:10552000B52000F071FA9DF8082000235A21B5201B
:1055300000F06AFA9DF8092000236221B52000F0EE
:1055400063FA2078032836D00023B5E7FFE79DF8FB
:10555000002000232A21B52000F056FA9DF80120F2
:1055600000233221B52000F04FFA3A2200231146E1
:10557000B52000F049FA9DF8042000234221B5200F
:1055800000F042FA9DF8052000234A21B52000F0E2
:105590003BFA00233A225221B52000F035FA9DF85B
:1055A000082001235A21B52000F02EFA9DF8092089
:1055B0000123C2E701E001237EE7012385E7000024
:1055C000253032640000000010B50078062826D08F
:1055D0000024234637220421B32000F015FA234685
:1055E0002E220C21B32000F00FFA234604221421AE
:1055F000B32000F0CBF9234605222421B32000F08C
:10560000C5F9234615223421B32000F0BFF9234603
:1056100016224421BDE81040B32000F0B7B90124A0
:10562000D7E770B50C460546002304221421B720A5
:1056300000F0ACF9002305222421B72000F0A6F9E0
:10564000002315223421B72000F0A0F900231622F0
:105650004421B72000F09AF900233A225421B720C0
:1056600000F0D2F921462846BDE8704000F08CB821
:105670002DE9F041374C384E617819B931782170F5
:105680000121617033490025092891F902105FD288
:10569000DFE800F0050B1A5E335E5E5E4000BDE899
:1056A000F0412C49881C01F00DB9012902DA491C8E
:1056B000A17000E0A5702749881C00F065F82078EB
:1056C000BDE8F041FEF704BE91B1012940D1214966
:1056D000881C00F059F82078FEF7FAFD00F09AF8DF
:1056E00040F2DC5004F000F9BDE8F041FEF720BEC6
:1056F000207832282CD2401C05E0002928D12078BF
:10570000032825D9401E2070BDE8F0411149881CAE
:1057100000F03AB8114F3878092819D110A003F0D9
:1057200023FB00210846FEF7E3FD0020FFF7C6FA41
:1057300030782070A57065700220387011480068BC
:1057400004F00AFE60686560BDE8F04104F0F9B855
:10575000BDE8F081C81200207D1200204800002022
:105760006E6F775F70616765203D3D205374726F87
:105770006B696E675F4379636C655F706167650D28
:105780000A0000005000002038B50D4604463022C3
:1057900003216846FAF756FD2A781CA1684603F0F3
:1057A000F3FA207848B300239DF800202A21B52081
:1057B00000F02AF9207810B35FF000039DF8012073
:1057C0003221B52000F020F900232A223A21B52009
:1057D00000F0DCF82078012813D0002302221421E5
:1057E000B32000F0D3F8207801280CD00023032246
:1057F0002421B32000F0CAF838BD0123D4E70123E7
:10580000DCE70123EAE70123F1E7000025303264F9
:10581000000000000E4810B500784FF000030A2881
:105820004FF02B0208D04421B32000F0AFF8002342
:105830002C225421B32007E06421B52000F0A6F803
:1058400000232C227421B520BDE8104000F09EB842
:105850004800002010B50078072826D000242346F1
:1058600038220421B12000F0CFF823462E220C214B
:10587000B12000F0C9F8234617221421B12000F00E
:1058800085F8234618222421B12000F07FF8234612
:1058900019223421B12000F079F823461A2244213C
:1058A000BDE81040B12000F071B80124D7E7FEF741
:1058B000E7BE000070B50122224D140321462846A0
:1058C000FCF719FEDC2004F00FF8002221462846E0
:1058D000FCF711FE4FF4D27004F006F801222146C5
:1058E0002846FCF708FEDC2003F0FEFFE32003F06F
:1058F00063F9A32003F060F9A12003F05DF9C02053
:1059000003F05AF92F2003F057F9232003F054F93C
:10591000812003F051F9272003F04EF9F82003F01D
:105920004BF9082003F048F9B02003F045F91020A6
:1059300003F042F9002003F03FF9BDE87040AF20CA
:1059400003F03AB90010014010B50446007804286D
:1059500020460CD2FFF786FB2046FFF703FB2046CC
:10596000FEF7F8FF2046BDE81040FEF75CBEFEF7EC
:105970002DFE2046FFF746FC2046FFF725FE204679
:10598000BDE81040FFF766BFFFF748B82DE9F047C4
:1059900005461C481F468A4600EB421404F028FBCB
:1059A000A846A5F1010925E003F006F9102141EA16
:1059B0001A1003F001F90AF00F0003F0FDF80026B9
:1059C000002517B1012F03D008E014F8010B03E004
:1059D00014F8010BC043C0B203F074F96D1CEDB2B2
:1059E000082DEED3761CF6B2022EE9D3A8F1010001
:1059F00000F0FF084046C845D6DABDE8F04704F09D
:105A000017BB0000C40200202DE9F04704461948E6
:105A10001F4600EB02158946A5F5007504F0E8FA6B
:105A2000A4F101081FE0204603F0C6F8102141EA66
:105A3000191003F0C1F809F00F0003F0BDF80026BB
:105A400017B1012F03D008E015F8010B03E015F89A
:105A5000010BC043C0B203F035F9761CF6B2082E34
:105A6000EED3641EE4B24445DDDABDE8F04704F04D
:105A7000DFBA0000C40C00202DE9FC5FFAF715FD29
:105A800080B26421B0FBF1F28DF80020B0FBF1F29E
:105A900001FB12020A21B2FBF1F28DF80120B0FBEA
:105AA000F1F201FB12008DF80210DFF868B08DF8FA
:105AB00003000024EA4600BF1AF804104FF0B508AE
:105AC0000BEB811704F11009404603F075F809F05B
:105AD000FF0003F071F8082003F06EF8002600259F
